:060000000A128A110E280D
:10000800FE00030E83120313A6000A08A7000A12B3
:100018008A1509280A128A11E42FBC00A730B400F7
:1000280083163C08BC0A84000A168A1100200A12AA
:100038008A11C800C80803190800253A0319292895
:10004800480863250A128A111428C101C201BD019A
:10005800BE0130283D15BC0A3C0884000A168A11E6
:1000680000200A128A11303A03192E283B283C082E
:1000780084000A168A1100200A128A11D3250A124E
:100088008A11031C70288316C101C2018316420815
:100098008312A9008316410864270A128A11E225EF
:1000A80083163C0884000A168A1100200A128A1155
:1000B8000D27C1002C080318013EFF3EC200BC0AF0
:1000C8003C0884000A168A1100200A128A11D325D6
:1000D8000A128A1103184A2883163C0884000A1653
:1000E8008A1100200A128A112E3A031DA8283E17E9
:1000F800BC0AC601C7013C0884000A168A11002000
:100108000A128A11D3250A128A11031CB1288316F0
:1001180047088312A9008316460864270A128A1121
:10012800E22583163C0884000A168A1100200A1268
:100138008A110D270A128A11C6002C080318013EDD
:10014800FF3EC700BC0A7F28C601C7013E16B1287A
:100158003E15C528C030BD04C52883163C08BC0A16
:1001680084000A168A1100200A128A11C800003A6F
:100178000319622D663A0319AC28133A0319AE28FD
:1001880014280730AB013E05AC002B040319372CAB
:100198003E1ED1280630C600C701340884008313E8
:1001A8000008C300840A0008C400840A0008C500C7
:1001B8000330B40743088312A80083164408831247
:1001C800A900831645088312AA00AB01AC01AD0152
:1001D800A7250A128A1103180D29831643088312CA
:1001E800A800831644088312A900831645088312C1
:1001F800AA009E260A128A1128088316C3008312B1
:1002080029088316C40083122A088316C500033000
:10021800BD048316BF01C001450844044304031903
:10022800B629C33084000008AB00840A0008AC007B
:10023800840A0008AD00840A0008AE000F300310DD
:10024800AE0CAD0CAC0CAB0CFF3E031D23292C08E7
:10025800C0002B08BF008230C001BF07031CC003C9
:10026800FF30BF07031CC00303308312A800A90195
:10027800831640088312AB0083163F088312AA0036
:10028800E22529088316C000831228088316BF00B8
:100298000A308312AE00AF01831640088312B10002
:1002A80083163F088312B0000A128A1569260A12BB
:1002B8008A112F088316C00083122E088316BF00E8
:1002C800C01F6A29FF30BF07031CC0033F03FF3A62
:1002D8000A128A15D7240A128A111B270A128A11B0
:1002E8004B27831635088312C600831636088312F7
:1002F800C700831637088312C8000A128A15EB262E
:100308000A128A1143088316B5008312440883161B
:10031800B600831245088316B700F9260A128A1117
:100328008030AB01AC003F30AD00A7250A128A111E
:100338000318A429FF308316BF07031CC003B6297E
:100348008316F9260A128A112030AB01AC0041301D
:10035800AD00A7250A128A11031CB6298316BF0A05
:100368000319C00A83164708803AFF0080307F02CD
:10037800031DC0290D3046020318EB296A274608D9
:100388000A128A1541210A128A115E08D2005F08F2
:10039800D3006008D400831643088312D50083165F
:1003A80044088312D600831645088312D7000A161C
:1003B8008A1172260A128A1152088316C300831200
:1003C80053088316C400831254088316C5006A278D
:1003D8004008803AFF0080307F02031DF5290A306B
:1003E8003F020318162A6A274508440443040319E0
:1003F800682A430840270A128A11FB250A128A1123
:100408003908380437043604031D682A831640085F
:10041800803AFF0080307F02031D142A02303F0219
:10042800031C682A6A27F9260A128A117030AB0061
:100438008930AC004030AD00A7250A128A11031894
:10044800272AF730282AF8308316BF07031CC00371
:100458003F080A128A15D7240A128A111B270A1282
:100468008A11A800831644088312A9008316450838
:100478008312AA00831635088312AB008316360848
:100488008312AC00831637088312AD006D270A1259
:100498008A112B088316B30083122A088316B20028
:1004A800831229088316B100831228088316B00026
:1004B8003308BB003208BA003108B9003008B80068
:1004C800C301C401C501A92A6A27430840270A12A3
:1004D8008A11FB250A128A1129270A128A11831602
:1004E800B8003B088312B30083163A088312B2009F
:1004F800831639088312B100831638088312B000B6
:10050800A6260A128A113008DE003108DF003208F8
:10051800E000831643088312E1008316440883121F
:10052800E200831645088312E300C6260A128A11E0
:100538005E088316C30083125F088316C400831203
:1005480060088316C500BF01C001C801C80AF026AB
:100558000A168A1100200A128A11AC000A168A119A
:1005680000200A128A11AD000A168A1100200A1208
:100578008A11AE000A168A1100200A128A11AF00E9
:100588002F083B02031DD22A2E083A02031DD22A45
:100598002D083902031DD22A2C083802031CD92A37
:1005A800C80A48080A3A031DAB2A46084807AB00A0
:1005B80047080318470AC81BFF3EAC003F082B0733
:1005C800AD0040080318400A2C07AE002D08C102F0
:1005D8002E08031CC203C202470846040319F82A5E
:1005E800FF30C107031CC2033D0803390319002B60
:1005F800FF30C107031CC2033D190C2B212B3030DF
:1006080063250A128A11FF308316C107031CC2032F
:100618004208803AFF0080307F02031D152B01300D
:100628004102031C602B032B203063250A128A1118
:10063800FF308316C107031CC2034208803AFF003B
:1006480080307F02031D2A2B013041020318182B2A
:100658006A273D0803390319602B2D305D2B0527C8
:100668000A128A11F0260A168A1100200A128A1123
:100678008312A8000A168A1100200A128A11A900FA
:100688000A168A1100200A128A11AA000A168A116B
:1006980000200A128A11DE260A128A1156260A1228
:1006A8008A1137270A128A1169250A128A11350810
:1006B800303E63250A128A116A27C803480F332B74
:1006C8004008803AFF0080307F02031D6D2B013007
:1006D8003F02031C792B303063250A128A11FF3040
:1006E8008316BF07031CC003642B6A274708803A98
:1006F800FF0080307F02031D832B09304602031C54
:10070800882B08306A278A2B6A274608C800AB005E
:10071800AC01AB1BAC03C6022C08031CC703C70201
:1007280048080319992B2E306325831648080A12A6
:100738008A15D7240A128A115208C6005308C7001E
:100748005408C8008316430883124B270A128A15D7
:10075800EB260A128A114308B6004408B700450878
:10076800B800FB250A128A1129270A128A11242C9B
:1007780005270A128A11F0260A168A1100200A1281
:100788008A118312A8000A168A1100200A128A11F7
:10079800A9000A168A1100200A128A11AA000A164C
:1007A8008A1100200A128A11DE260A128A11562698
:1007B8000A128A1137270A128A1169250A128A1120
:1007C8003508303E63250A128A118316F0260A1668
:1007D8008A1100200A128A118312B5000A168A119A
:1007E80000200A128A11B6000A168A1100200A127D
:1007F8008A11B7000A168A1100200A128A11B80055
:1008080083163B088312BC0083163A088312BB0088
:10081800831639088312BA00831638088312B90080
:1008280069250A128A1138088316BB008312370813
:100838008316BA00831236088316B9008312350866
:100848008316B800C803480FBC2B47084604031991
:100858001428303063250A128A11FF308316C60720
:10086800031CC703292C3408840083130008AB0039
:10087800840A0008AC002B08B8002C08B900BA019B
:10088800BB01B40AB40A47084604031D532C3B08AD
:100898003A04390438040319C60A0319C70AC801F7
:1008A800C80AF0260A168A1100200A128A11AC001A
:1008B8000A168A1100200A128A11AD000A168A1136
:1008C80000200A128A11AE000A168A1100200A12A4
:1008D8008A11AF002F083B02031D7C2C2E083A0218
:1008E800031D7C2C2D083902031D7C2C2C08380292
:1008F800031C832CC80A48080A3A031D552C4808CB
:1009080055270A128A114708803A2D02031D8E2C9A
:1009180046082B020318942C6A274608C800AC2CFA
:100928006A274808AB00AC01AB1BAC034708803A08
:10093800AD002C08803A2D02031DA42C2B0846027A
:100948000318AC2C6A274808C600C701C61BC70392
:100958006A27420841040319B92C3D0803390319D1
:10096800B92CFF30C107031CC2033E1FD22C470815
:10097800803AAB004208803A2B02031DC52C41087F
:1009880046020318CF2C6A274608C1024708031CF1
:10099800C203C202D22C6A27C101C20148085527E6
:1009A8000A128A114208803A2D02031DDD2C4108E3
:1009B8002B020318EB2C6A274808AB00AC01AB1BD1
:1009C800AC03C1022C08031CC203C202EE2C6A2726
:1009D800C101C2013D1D072D3D0803390319F82C3B
:1009E8002D3063250A128A1183164208410403191F
:1009F800202D303063250A128A11FF308316C10773
:100A0800031CC203F92C420841040319182D203095
:100A180063250A128A11FF308316C107031CC2031B
:100A280042084104031D0B2D3D0803390319202DED
:100A38002D3063250A128A11FF308316C607031C5E
:100A4800C703460A0319470A031914280A308312F0
:100A5800B500B601B701B80183164608AB0003100C
:100A6800AB0D03102B0D4F3E84000A168A1100208F
:100A78000A128A118312A8000A168A1100200A1283
:100A88008A11A9000A168A1100200A128A11AA00DE
:100A98000A168A1100200A128A11DE260A128A1101
:100AA80056260A128A1137270A128A1169250A124C
:100AB8008A113508303E8316C8001D2D08008312A0
:100AC8000313B1000A128A15CF2A380837043604EE
:100AD800350403199E2DBD01BD0AB81B792D0310DD
:100AE800B50DB60DB70DB80D702D38083C02031DB5
:100AF800872D37083B02031D872D36083A02031D50
:100B0800872D35083902031C982D3508B902360897
:100B1800031C360FBA023708031C370FBB0238080C
:100B2800031C380FBC020310B80CB70CB60CB50C7C
:100B3800BD0B792D3C08B8003B08B7003A08B60051
:100B48003908B5000800AA1FB62D2808003CA800DF
:100B58002908031C290F003CA9002A08031C2A0F96
:100B6800803CAA00AD1FC52D2B08003CAB002C080B
:100B7800031C2C0F003CAC002D08031C2D0F803CDF
:100B8800AD008030AA06AD062D082A02031D080014
:100B98002C082902031D08002B08280208008312CC
:100BA800A9003A30A80129020318E02D30302902A3
:100BB800031CE02DA801A80A280C0800AC01AD010F
:100BC800281CEC2D2A08AC070318AD0A2B08AD0722
:100BD8000310AA0DAB0D0310A90CA80C29082804B2
:100BE800031DE42D2D08A9002C08A80008005D2786
:100BF8000A128A1103103B0D3C0DC200C208031DE6
:100C08000A2EB601B701B801B90108005D270A121A
:100C18008A1117300310BC0CBB0CBA0CFF3E031D25
:100C28000E2E3A08BD00B717B8013608BE003708BF
:100C3800BF003808C0008E30C101C202C21F312E69
:100C48004208803A8F3E031C052E0310C10CC00CCD
:100C5800BF0CBE0CC20F292E3F2E183042020318BB
:100C6800052EC20803193F2E0310BE0DBF0DC00D7F
:100C7800C10DC203352E3D0803194D2EBE09BF090B
:100C8800C009C109BE0A0319BF0A0319C00A03191A
:100C9800C10A4108B9004008B8003F08B7003E083B
:100CA800B6000800B001B101B201B3012B082A0453
:100CB800290428040319952EB401B40AAB1B6A2E23
:100CC8000310A80DA90DAA0DAB0D612E0310B00DD0
:100CD800B10DB20DB30D2B082F02031D7D2E2A086E
:100CE8002E02031D7D2E29082D02031D7D2E2808A6
:100CF8002C02031C8F2E2808AC022908031C290F7C
:100D0800AD022A08031C2A0FAE022B08031C2B0F66
:100D1800AF0230140310AB0CAA0CA90CA80CB40B2E
:100D28006A2E3308AB003208AA003108A90030083F
:100D3800A80008002A08290428040319080080309C
:100D4800AA0608008E30B400FF3033050319B32E0D
:100D58000310B30CB20CB10CB00CB40AA82E3008B6
:100D6800A8003108A9003208AA003408AB00AC0179
:100D78000A128A1569272808B0002908B1002A082C
:100D8800B20008008030E0066108D2006208D30093
:100D98006308D4005E08D5005F08D6006008D70055
:100DA8000A168A1172265208DE005308DF0054081A
:100DB800E0000800AB0083163B088312AF008316DF
:100DC8003A088312AE00831639088312AD008316E1
:100DD80038088312AC0008004808AB000310AB0DBC
:100DE80003102B0D4F3E8400080035088312A8001D
:100DF800831636088312A900831637088312AA00BF
:100E080008000A308312B500B601B701B80183168D
:100E18000800831228078316AB000030031801303E
:100E2800831229078316AC002B08D03E080052080D
:100E38008316B500831253088316B600831254082C
:100E48008316B70043088312080039088316BB00CD
:100E5800831238088316BA00831237088316B9003C
:100E68008312360808002B08BC002A08BB00290892
:100E7800BA002808B90008008312B600831644088F
:100E88008312B700831645088312B8000800C30010
:100E9800831644088312C400831645088312C500CC
:100EA8000800AB00AC01AB1BAC032C08803AAD00CA
:100EB80008003608BA003708BB003808BC0008002C
:100EC8008312A8000A30AA00AB0108008316031396
:100ED80008002808AE002908AF002A08B00003104F
:100EE8002F0D300DB600B608031D7F2FA801A901EC
:100EF800AA01AB0108002B08AE002C08AF002D0892
:100F0800B00003102F0D300DB500B50803197A2F66
:100F18007F30A917AA01AC17AD01B101B201B30125
:100F2800B401B60298303507AE00B6021830B500E5
:100F38000310B10DB20DB30DB40D2D082A02031D17
:100F4800AB2F2C082902031DAB2F2B082802031CEA
:100F5800B92F2B08A8022C08031C2C0FA9022D0856
:100F6800031C2D0AAA0231140310A80DA90DAA0DFD
:100F7800B50B9C2FB61FCD2F3608803A973E031C21
:100F88007A2F0310B40CB30CB20CB10CB60FC52FEA
:100F9800DB2F1830360203187A2FB6080319DB2F17
:100FA8000310B10DB20DB30DB40DB603D12F340833
:100FB800AB003308AA003208A9003108A8000800CD
:100FC800E401E501E6018316C901CA01CB01CC01A0
:0E0FD800CD01CE01CF0183010A168A11CD2D65
:10101200073081000B1D3C288030F801F9003F3079
:10102200FA006408FB006508FC006608FD00432026
:101032000A128A157808E4007908E5007A08E600C1
:10104200453A031D2A281C306506031D2A28403014
:101052006406031D3B28E401E501E6010E08831640
:10106200C90083120F088316CA00CB01CC01831278
:101072008F018E010B1127088A00260E8300FE0EB7
:101082007E0E09007808A0007908A1007A08A20063
:101092000310210D220DA5007B08A0007C08A100F1
:1010A2007D08A2000310210D220DA40025080319BA
:1010B200662824082502240803186E28A0002508A3
:1010C200A00219302002031C6D287B08F8007C085E
:1010D200F9007D08FA000800240803190800250811
:1010E200240203187C282508A0002408A002193035
:1010F2002002031808000630A300FA1BA317FD1BE9
:101102002317F917FA01FC17FD0124082502031819
:10111200A3280310FB0DFC0DFD0DA40324082506D6
:1011220003199E28A3032308073903199E288A2836
:101132000310FA0CF90CF80CA50A25082406031969
:10114200BF289928250824020318BF280310F80D88
:10115200F90DFA0DA503240825060319BB28A303DC
:10116200230807390319BB28A7280310FD0CFC0C20
:10117200FB0CA40A25082406031DB628A31FCA28AF
:10118200FF30F806F906FA06F80A0319F90A0319F4
:10119200FA0A231FD528FF30FB06FC06FD06FB0AD0
:1011A2000319FC0A0319FD0AA3017808FB07790851
:1011B20003110318790A031DFC077A0803110318A7
:1011C2007A0A031DFD07FD1FF128FF30FB06FC060E
:1011D200FD06FB0A0319FC0A0319FD0AA301A30A6F
:1011E2007B08F0007C08F1007D08F2002508F3007E
:1011F2002308F40003217008F8007108F90072084E
:10120200FA000800730803190B29720871047004AC
:10121200031D1429F001F101F2010800F30A031081
:10122200F20CF10CF00CFE307205031923290F2980
:10123200F30AF00A0319F10A0319F20A0310F20C75
:10124200F10CF00CFF30720503192D291929F30353
:101252000310F00DF10DF20DF11F2829731CF1138B
:101262000310F30C7308F700F601F5017508F0049A
:101272007608F1047708F2047408031DF2170800D7
:10128200A6006E302602031CD92903308312B10056
:101292000A30AD006430A8008316260872220A12B2
:1012A2008A1556220A128A155A270A128A151C3ED4
:1012B20084000A168A1100200A128A15C3000A162F
:1012C2008A1100200A128A15C4000A168A11002007
:1012D2000A128A15C5000330B1006430AD008316CE
:1012E200260856220A128A155A270A128A15373EEA
:1012F20084000A168A1100200A128A15C6000A16EC
:101302008A1100200A128A15C7000A168A110020C3
:101312000A128A15C8000A128A15EB260A128A15C1
:101322009D220A128A150330B0220A128A157222ED
:101332000A128A155A270A128A15013E84000A16D1
:101342008A1100200A128A15C3000A168A11002087
:101352000A128A15C4000A168A1100200A128A1576
:101362008F220A128A15EB260A128A15430883165F
:10137200A000831244088316A10083124508831635
:10138200A20083123F30C301C401C50083162008A6
:101392008312C600831621088312C700831622080F
:1013A2008312C8000A128A15EB260A128A15A92A84
:1013B2000B302602031C2E2A0330B0220A128A1591
:1013C20072220A128A155A270A128A15013E8400CD
:1013D2000A168A1100200A128A15C3000A168A11F7
:1013E20000200A128A15C4000A168A1100200A1265
:1013F2008A15C5000330B1000A30AD0083162608F5
:1014020056220A128A155A270A128A151C3E84008D
:101412000A168A1100200A128A15C6000A168A11B3
:1014220000200A128A15C7000A168A1100200A1221
:101432008A15C8000A128A15EB260A128A159D22FD
:101442000A128A1583123F30C301C4018F220A1285
:101452008A15EB260A128A15A92A83123F30C30184
:10146200C401C5000330B100831626080A128A158A
:101472005A270A128A15013E84000A168A11002090
:101482000A128A15C6000A168A1100200A128A1543
:10149200C7000A168A1100200A128A15C8000A1209
:1014A2008A15EB260A128A15A92A8312AE00B00108
:1014B2002D080319702AAF01AF0AAD1B632A03106E
:1014C200AD0D5D2A0310B00D2D082E02031C6D2AEE
:1014D2002D08AE0230140310AD0CAF0B632A300896
:1014E20008008312AA000830AB00AC012A08A90048
:1014F20007300310A90CFF3E0310031D7B2A2C0D9D
:101502002904AC000310AA0D28082C02031C8B2A04
:101512002808AC02AB0B772A2C080800C5008316FA
:1015220023088312C600831624088312C700831679
:1015320025088312C800080043088316A3008312FB
:1015420044088316A400831245088316A5000800E8
:101552004308DE004408DF004508E000080083126B
:10156200B1000A30A800831626080800AE002D0834
:101572000319BE2A4030AF00BF2AAF012E08AF07C1
:101582002F088038A8000030BF230A128A156A2467
:101592000A128A15003803190800C82AB000F52A71
:1015A2000030A801A80ABF230A128A156A240A1267
:1015B2008A15003803190800D72A0030AD01AD0A98
:1015C200B72A300895240A128A15031C080030082D
:1015D200A8000130BF230A128A156A240A128A154A
:1015E200003803190800EE2A30080A3A0319DE2AE5
:1015F200063A0319D12AE22A080003138811881037
:1016020008110812881208138813831203308811F4
:1016120088100811AF008A30AE005630AD00AD0B15
:10162200102BAE0B102BAF0B102B172BA3240A126F
:101632008A15BF230A128A150230AF004530AE0068
:10164200A930AD00AD0B232BAE0B232BAF0B232BFD
:101652002A2BA3240A128A15BF230A128A150230E2
:10166200AF004530AE00A930AD00AD0B362BAE0B4E
:10167200362BAF0B362B3D2B323083120313A800CF
:101682000030BF230A128A150330AF008A30AE0041
:101692005630AD00AD0B4B2BAE0B4B2BAF0B4B2B88
:1016A200522B033083120313AF008A30AE00563040
:1016B200AD00AD0B5A2BAE0B5A2BAF0B5A2B612B35
:1016C200033083120313AF008A30AE005630AD00F0
:1016D200AD0B692BAE0B692BAF0B692B702B6A24F8
:1016E2000A128A150038031D702B2830A80000301A
:1016F200BF230A128A156A240A128A150038031DAA
:101702007C2B0830A8000030BF230A128A156A24F5
:101712000A128A150038031D882B0C30A8000030ED
:10172200BF230A128A156A240A128A150038031D79
:10173200942B0030A801A80ABF230A128A156A2432
:101742000A128A150038031DA02B0430A8000030AD
:10175200BF230A128A156A240A128A150038031D49
:10176200AC2B0030A801A80ABF230A128A156A24EA
:101772000A128A15003803190800B82BAB00831629
:101782000812881208138813831288102B08031D6D
:1017920088142130A900A90BCC2B8312031321300A
:1017A2000811A900A90BD32B83120313881128084F
:1017B200AC002C0E0139A900290C031CE42B831266
:1017C20003130816E72B8312031308122C0EA90029
:1017D200290C0139AA002A0C031CF32B83120313D0
:1017E2008816F62B8312031388122C0EA900A90C5B
:1017F200290C0139AA002A0C031C032C831203139F
:101802000817062C8312031308132C0D2C0D013913
:10181200A900290C031C112C831203138817142C02
:101822008312031388132130A900A90B162C8312EB
:10183200031321308815A900A90B1D2C8312031351
:1018420088112C080139A900290C031C2C2C8312A5
:10185200031308162F2C8312031308122C0C0139C0
:10186200A900290C031C392C8312031388163C2C63
:101872008312031388122C0CA900290C0139AA0027
:101882002A0C031C482C8312031308174B2C8312B7
:10189200031308132C0CA900A90C290C0139AA0066
:1018A2002A0C031C582C8312031388175B2C8312F7
:1018B200031388132130A900A90B5D2C8312031393
:1018C20021308815A900A90B642C831203138811F7
:1018D2000800831603130816881608178817831240
:1018E200213008158810A800A80B752C8312031349
:1018F20021308815A800A80B7C2C0030831203131A
:10190200881B0130A90021308811A800A80B872C60
:101912008312031321308815A800A80B8E2C831282
:101922000313881129080800A9007F30A8012902A1
:101932000318A12C20302902031CA12CA801A80AFB
:10194200280C0800303083120313A80000348E30B4
:10195200B501B400B31FBA2CB009B109B209B30979
:10196200B00A0319B10A0319B20A0319B30AB5017D
:10197200B50AFF3033050319C52C0310B30CB20CA2
:10198200B10CB00CB40ABA2C3008A8003108A90076
:101992003208AA003408AB003508AC0069272808D1
:1019A200B0002908B1002A08B20008008312DC0046
:1019B200DC1FA32DDC09DC0A5C08803A123E031C02
:1019C200472D0A30CB270A128A15AE260A128A152B
:1019D2002908B1002808B00069260A128A15E027F2
:1019E2001C3E84000A168A1100200A128A15C300BE
:1019F2000A168A1100200A128A15C4000A168A11D0
:101A020000200A128A15F0270A128A15B01BB103A8
:101A120069260A128A15AF27373E84000A168A11F0
:101A220000200A128A15C6000A168A1100200A121C
:101A32008A15C7000A168A1100200A128A15C800E0
:101A4200EB260A128A15BE270A128A15AA1BAB03B5
:101A5200AE260A128A15A727013E84000A168A11A9
:101A620000200A128A15C3000A168A1100200A12DF
:101A72008A15C4000A168A1100200A128A15E8275C
:101A82000A128A15EB260A128A15B72F5C08803AC9
:101A9200753E031C8C2D0A30A800A9015C08AA001F
:101AA200AB01AA1BAB03AE260A128A15A727013E79
:101AB20084000A168A1100200A128A15C3000A1627
:101AC2008A1100200A128A15C4000A168A110020FF
:101AD2000A128A15F8270A128A15B01BB103692661
:101AE2000A128A15AF271C3E84000A168A110020AA
:101AF2000A128A15C6000A168A1100200A128A15CD
:101B0200C7000A168A1100200A128A15C800EB269D
:101B12000A128A15B72F0330B1005C085A27013E1A
:101B220084000A168A1100200A128A15D2000A16A7
:101B32008A1100200A128A15D3000A168A1100207F
:101B4200D40008005C08803A123E031C0D2E0A30B5
:101B5200CB270A128A15AE260A128A152908B10065
:101B62002808B00069260A128A15E027433E84003D
:101B72000A168A1100200A128A15C3000A168A114F
:101B820000200A128A15C4000A168A1100200A12BD
:101B92008A15F0270A128A15B01BB10369260A12A8
:101BA2008A15AF275E3E84000A168A1100200A12A7
:101BB2008A15C6000A168A1100200A128A15C70061
:101BC2000A168A1100200A128A15C800EB260A1288
:101BD2008A15BE270A128A15AA1BAB03AE260A1261
:101BE2008A15A727283E84000A168A1100200A12A5
:101BF2008A15C3000A168A1100200A128A15C40027
:101C02000A168A1100200A128A15E8270A128A1572
:101C1200EB260A128A15B72F5C08803A753E031C20
:101C2200522E0A30A800A9015C08AA00AB01AA1B27
:101C3200AB03AE260A128A15A727283E84000A168D
:101C42008A1100200A128A15C3000A168A1100207E
:101C52000A128A15C4000A168A1100200A128A156D
:101C6200F8270A128A15B01BB10369260A128A15CF
:101C7200AF27433E84000A168A1100200A128A15F1
:101C8200C6000A168A1100200A128A15C7000A160F
:101C92008A1100200A128A15C800EB260A128A1538
:101CA200B72F0330B1005C085A27283E84000A1679
:101CB2008A1100200A128A15D2000A168A110020FF
:101CC2000A128A15D3000A168A110020D4000800CD
:101CD200B301AF1F732EAE09AF09AE0A0319AF0AE3
:101CE200B301B30AB11F7C2EB009B109B00A0319BE
:101CF200B10A0130B306B401B5012F082E0403194D
:101D0200A12EB201B20AAF1B8A2E0310AE0DAF0D87
:101D1200832E0310B40DB50D2F083102031D932E2F
:101D22002E083002031C9D2E2E08B0022F08031C21
:101D3200B103B10234140310AF0CAE0CB20B8A2EF5
:101D420033080319A92EB409B509B40A0319B50A4F
:101D52003508AF003408AE000800AD01AB1FB82E45
:101D6200AA09AB09AA0A0319AB0AAD01AD0AA91F58
:101D7200BF2EA809A909A80A0319A90A2908280433
:101D82000319DE2EAC01AC0AA91BCB2E0310A80D41
:101D9200A90DC42E29082B02031DD12E28082A02C0
:101DA200031CDA2E2808AA022908031CAB03AB0283
:101DB2000310A90CA80CAC0BCB2E2D080319E62E90
:101DC200AA09AB09AA0A0319AB0A2B08A9002A0817
:101DD200A80008004308C9004408CA004508CB000F
:101DE20003104A0D4B0DCC00CC08031DFC2EC30181
:101DF200C401C50108004608C9004708CA004808CE
:101E0200CB0003104A0D4B0DD100D108031D0D2F3D
:101E1200C301C401C501080051087B3ECC07450837
:101E2200D1004808D1068030D1050730C417C71742
:101E3200C801CD01CE01CF01D000431C282F460896
:101E4200D6270A128A150318480A031DCF07031062
:101E5200C50CC40CC30C0310C60DC70DC80DD00BA6
:101E62001E2F0930D000431C3E2F4608D6270A12E7
:101E72008A150318480A031DCF070310C50CC40CAA
:101E8200C30C0310CF0CCE0CCD0CD00B342F4D084D
:101E9200A8004E08A9004F08AA004C08AB00510840
:101EA200AC0069272808C3002908C4002A08C50015
:101EB20008008312B300B20131083318B2070310CD
:101EC200B10D0310B30CB308031D5D2F32080800D7
:101ED2002B080319712F2A0829042804031D7A2FBD
:101EE200A801A901AA010800AB0A0310AA0CA90CB7
:101EF200A80CFE302A050319892F752FAB0AA80AF0
:101F02000319A90A0319AA0A0310AA0CA90CA80CFE
:101F1200FF302A050319932F7F2FAB030310A80D5F
:101F2200A90DAA0DA91F8E2F2B1CA9130310AB0CF0
:101F32002B08AF00AE01AD012D08A8042E08A9049C
:101F42002F08AA042C08031DAA1708002808D50088
:101F52002908D60055085507550708002E08D7004E
:101F62002F08D80057085707570708004308D20020
:101F72004408D3004508D40008004308D9004408A7
:101F8200DA004508DB000A30A800A9015C08AA00B3
:101F9200AB010800AE00AF015C08AA00AB01AA1BAE
:101FA200AB036430A800A9010800CD07470803115C
:101FB2000318470A031DCE074808031108002E081C
:101FC200D5002F08D6005508550755070800C5004B
:101FD2005908C6005A08C7005B08C8000800C500B7
:101FE2006430AE00AF015C08B000B1010800C5006A
:101FF2000A30AE00AF015C08B000B1010800103039
:102002008A000408840A82070034003480343F3492
:10201200CD34CC343D34D73423343C34123483347D
:102022003A34B734D1343834C634273437343834B8
:1020320086343534C034D6343334CC342B34323451
:10204200703489343034E734DB342E34E5343C34B4
:102052001E344234A2340D34003480343F34003410
:10206200203441340034C834423400347A344434A5
:1020720040341C3446345034C3344734243474342A
:102082004934973418344B34BC34BE344C346B343A
:102092006E344E340334153450347934AD346034F4
:1020A200F3344934713401340034003400340A34D6
:1020B2000034003400346434003400340034E83432
:1020C2000334003400341034273400340034A03494
:1020D200863401340034403442340F3400348034C6
:1020E2009634983400340034E134F5340534003445
:1020F200CA349A343B34783475346E3467343A34A3
:1021020020342534303438347534003466343A346B
:0E2112002034253433342E3432346634003415
:102B9A0083160317890188010A128A15FE220A166A
:102BAA008A118316051688010730091081128111CE
:102BBA00011181140110831281008B160B118B17DE
:102BCA001013901410159012101210148F018E0108
:102BDA0083164C088312B30083164B088312B20083
:102BEA0083164A088312B100831649088312B0007B
:102BFA000A128A15A8240A168A113008C600310852
:102C0A00C7003208C8000930C3007930C4003B301D
:102C1A00C5000A128A15EB260A168A114308DE0035
:102C2A004408DF004508E00083164C088312B3000D
:102C3A0083164B088312B20083164A088312B10026
:102C4A00831649088312B0000A128A15A8240A16A4
:102C5A008A113008E1003108E2003208E3000A1262
:102C6A008A11C6260A168A115E088316CD008312B7
:102C7A005F088316CE00831260088316CF00831282
:102C8A000030AD010A128A15B7220A168A11831674
:102C9A004C08AA004B08A9004A08A8004908A7003E
:102CAA0077300A128A1111200A168A11831200300B
:102CBA00AD01AD0A0A128A15B7220A168A118316BD
:102CCA004D08A7004E08A8004F08A90082300A1232
:102CDA008A1111200A168A11ED2D5208D8005308BC
:102CEA00D9005408DA000310590D5A0DDD005508B1
:102CFA00D8005608D9005708DA000310590D5A0DA2
:102D0A00DC005D080319952E5C085D025C08031857
:102D1A009D2ED8005D08D80219305802031C9C2E3B
:102D2A005508D2005608D3005708D40008005C089A
:102D3A00031908005D085C020318AB2E5D08D80071
:102D4A005C08D80219305802031808000630DB0064
:102D5A00D41BDB17D71B5B17D317D401D617D701A0
:102D6A005C085D020318D22E0310D50DD60DD70DBF
:102D7A00DC035C085D060319CD2EDB035B0807390B
:102D8A000319CD2EB92E0310D40CD30CD20CDD0AA4
:102D9A005D085C060319EE2EC82E5D085C02031856
:102DAA00EE2E0310D20DD30DD40DDD035C085D06A3
:102DBA000319EA2EDB035B0807390319EA2ED62E1C
:102DCA000310D70CD60CD50CDC0A5D085C06031D73
:102DDA00E52EDB1FF92EFF30D206D306D406D20A1F
:102DEA000319D30A0319D40A5B1F042FFF30D5062F
:102DFA00D606D706D50A0319D60A0319D70ADB015C
:102E0A005208D507530803110318530A031DD6079E
:102E1A00540803110318540A031DD707D71F202F7C
:102E2A00FF30D506D606D706D50A0319D60A0319DE
:102E3A00D70ADB01DB0A5508A8005608A90057087B
:102E4A00AA005D08AB005B08AC000A128A15692764
:102E5A002808D2002908D3002A08D40008002830FC
:102E6A0084008313000883120313AE00840A000847
:102E7A00AF00840A0008B000840A0008B1000310F9
:102E8A00300D310DBB00BB08031D502FA801A9014D
:102E9A00AA01AB0108002B30F3270A168A11031086
:102EAA00300D310DBA00BA0803194B2F28308400AF
:102EBA008030840A840A80042830840A84002B30F3
:102ECA00840A840A840A800184008030840A840A7D
:102EDA0080042B30840A84007F30840A840A840A9E
:102EEA008001B601B701B801B901BB02A0303A07A7
:102EFA00AE00BB022030BA002B300310B60DB70D5E
:102F0A00B80DB90DF3270A168A1128308400000873
:102F1A00B200840A0008B300840A0008B400840AD4
:102F2A000008B50031083502031DA52F3008340208
:102F3A00031DA52F2F083302031DA52F2E083202C9
:102F4A00031CC12F2B30F3270A168A11283084005C
:102F5A002E088002840A2F08031C2F0F8002840A7D
:102F6A003008031C300F8002840A3108031C310A1E
:102F7A008002033084023614283084000310800D46
:102F8A00840A800D840A800D840A800DBA0B812F71
:102F9A00BB1FDC2F3B08803A9F3E031C4B2F0310BC
:102FAA00B90CB80CB70CB60CBB0FD42FEA2F2030D3
:102FBA003B0203184B2FBB080319EA2F0310B60D67
:102FCA00B70DB80DB90DBB03E02F3908AB003808AF
:102FDA00AA003708A9003608A800080084000008DB
:102FEA00AE00840A0008AF00840A0008B000840A10
:062FFA000008B100080010
:02400E00C2E30B
:00000001FF
