:060000000A128A110E280D
:10000800FE00030EF0000408F1000A08F2000A12CC
:100018008A11212E0A128A115D2EFF1B1B288313B9
:100028007F1883170008840A0319FF0A08000030A4
:100038008A000408840A82070034013400340A3430
:10004800003464340034E8340334103427344E3434
:1000580075346D34623465347234733420346934E1
:1000680073343A3420340034203425343034353471
:10007800753420340034203420340034253464347A
:02008800003442
:10020000FF0001308A007F08820705290A128A113F
:10021000C22BB5000130B701B8003330B600350845
:10022000A4003630A50037308029B600B80034303D
:10023000B901B7003308A4003730A5003830802159
:1002400038088400831380010800A5002508840075
:1002500083130008203A031D2F29A50A2629250803
:1002600084000008093A03192D29A301A401A20161
:100270002508840000082D3A031D4029A20A6A2996
:100280002508840000082B3A03196A2925088400F0
:10029000000828230A128A11031C6C2925088400EF
:1002A0002408F4002308F3000A30F500F601362391
:1002B0000A128A1100087307A000003003180130E9
:1002C0007407A1002008D03EA30021080318013EB6
:1002D000FF3EA400A50A4629220803197B29230909
:1002E000A0002409A100A00A0319A10A2008F9000E
:1002F0002108FA0008002408FA002308F900080081
:10030000B200BF232408A40A84000A128A111B2009
:100310000A128A11B100B1080319252B3108253AB8
:100320000319A8293208013E8400831380080319A9
:10033000A1293108AB230A128A1100210A128A115D
:100340008129320884000008B1230A128A11812908
:10035000AF01B001AE01AE292E15A40A2408840015
:100360000A128A111B200A128A11303A0319AC2989
:10037000B929240884000A128A111B200A128A1142
:1003800028230A128A11031CF529AF01B001300895
:10039000F4002F08F3000A30F500F6013623240894
:1003A00084000A128A111B200A128A117307A60000
:1003B0000030031801307407A7002608D03EAF00B4
:1003C00027080318013EFF3EB000A40A2408840059
:1003D0000A128A111B200A128A1128230A128A1172
:1003E000031CF529C7292E170B2A2408A40A840008
:1003F0000A128A111B200A128A11B100003A03194D
:10040000252B643A03190B2A0D3A03190B2A1C3ABF
:100410000319F32981292E1B1B2A25089D230A1263
:100420008A11AB1F1D2A0330AE04AA09AB09AA0A20
:100430000319AB0A1D2A25089D23B101B10A031037
:10044000310D013E84000A128A111B200A128A1102
:10045000A6000A128A111B200A128A11A7002B0279
:10046000031D342A26082A02031C3B2AB10A31083C
:10047000053A031D1F2A30082F040319472A2E08A6
:1004800003390319472AFF30AF07031CB0033108B3
:10049000A600A701A61BA7032708803AA8003008DA
:1004A000803A2802031D562A2F0826020318642AC0
:1004B000BF233108A600A701A61BA703AF02270888
:1004C000031CB003B002672ABF23AF01B0012E1D89
:1004D000A52A2E0803390319822A3208013E840016
:1004E0008313800803197C2A2D30AB230A128A114A
:1004F00000210A128A11822A320884000008B823D7
:100500000A128A11BF2330082F040319E32A320884
:10051000013E8400831380080319962A3030AB23F0
:100520000A128A1100210A128A119F2A32088400B5
:10053000000884003030800032088400800AFF30D8
:10054000BF23AF07031CB003832A30082F0403190D
:10055000CA2A3208013E8400831380080319B82A8E
:100560002030AB230A128A1100210A128A11C12AF3
:1005700032088400000884002030800032088400A3
:10058000800AFF30BF23AF07031CB00330082F04DD
:10059000031DA92A2E0803390319E32A3208013E54
:1005A0008400831380080319DD2A2D30AB230A123F
:1005B0008A1100210A128A11E32A320884000008F5
:1005C000B8230A128A11BF233108A900202B0A3050
:1005D000A000A1010310290D013E84000A128A1116
:1005E0001B200A128A11F3000A128A111B200A1218
:1005F0008A11F4002B08F6002A08F5004F230A128E
:100600008A117408A3007308A20079230A128A11C0
:100610002008303EB1003208013E84008313800878
:1006200003191A2B3108AB230A128A1100210A126E
:100630008A11202B320884000008B1230A128A1183
:10064000BF23A903290FE72A8129A401A5010800D6
:10065000F4003A30F30174020318342B3030740282
:10066000031C342BF301F30A730C0800F701F801A3
:10067000731C402B7508F7070318F80A7608F8076B
:100680000310F50DF60D0310F40CF30C740873044D
:10069000031D382B7808F4007708F3000800F701F1
:1006A000F801740873040319742BF901F90AF41B97
:1006B0005D2B0310F30DF40D562B0310F70DF80D01
:1006C00074087602031D662B73087502031C702BD9
:1006D0007308F5027408031CF603F602771403107E
:1006E000F40CF30CF90B5D2B7808F4007708F30099
:1006F0000800210820040319982BFA01FA0AA11B0B
:10070000852B0310A00DA10D7E2B21082302031DB4
:100710008B2B20082202031C942B2008A202210804
:10072000031CA303A3020310A10CA00CFA0B852B3E
:100730002308A1002208A0000800840083130008F9
:10074000A60002308007260884000008AA00840A58
:100750000008AB000800A1003208013E8400000838
:10076000080084003108800032088400800A0800F4
:1007700084002D30800032088400800A0800831233
:10078000031308002108DC2BF90078080319CB2B90
:100790004030FA00CC2BFA017908FA077A08803841
:1007A000F3000030C6240A128A1156250A128A1153
:1007B000003803190800D52BA000022C0030F301EB
:1007C000F30AC6240A128A1156250A128A11003821
:1007D00003190800E42B0030F801F80AC42B2008A4
:1007E0007D250A128A11031C08002008F30001303D
:1007F000C6240A128A1156250A128A1100380319D2
:100800000800FB2B20080A3A0319EB2B063A0319C0
:10081000DE2BEF2B08000313881188100811081233
:100820008812081388138312033088118810081166
:10083000FA008A30F9005630F800F80B1D2CF90B3D
:100840001D2CFA0B1D2C242C3030F3000030C62454
:100850000A128A110230FA004530F900A930F80076
:10086000F80B302CF90B302CFA0B302C372C3030A5
:10087000F3000030C6240A128A110230FA00453013
:10088000F900A930F800F80B432CF90B432CFA0BB4
:10089000432C4A2C3230F3000030C6240A128A114D
:1008A0000330FA008A30F9005630F800F80B562C65
:1008B000F90B562CFA0B562C5D2C0330FA008A30BB
:1008C000F9005630F800F80B632CF90B632CFA0B87
:1008D000632C6A2C0330FA008A30F9005630F80095
:1008E000F80B702CF90B702CFA0B702C772C56250A
:1008F0000A128A110038031D772C2830F3000030CB
:10090000C6240A128A1156250A128A110038031DBC
:10091000832C0830F3000030C6240A128A115625B1
:100920000A128A110038031D8F2C0C30F30000309E
:10093000C6240A128A1156250A128A110038031D8C
:100940009B2C0030F301F30AC6240A128A115625A3
:100950000A128A110038031DA72C0430F30000305E
:10096000C6240A128A1156250A128A110038031D5C
:10097000B32C0030F301F30AC6240A128A1156255B
:100980000A128A11003803190800BF2CF6008316DA
:10099000031308128812081388138312881076082C
:1009A000031D88142130F400F40BD42C922521303F
:1009B0000811F400F40BDA2C922588117308F70063
:1009C000770E0139F400740C031CE92C92250816EB
:1009D000EB2C92250812770EF400740C0139F50007
:1009E000750C031CF62C92258816F82C922588127B
:1009F000770E8B250A128A11031C012D92250817E8
:100A0000032D92250813770D770D0139F400740C2E
:100A1000031C0D2D922588170F2D92258813213048
:100A2000F400F40B112D922521308815F400F40BFD
:100A3000172D9225881177080139F400740C031CD6
:100A4000242D92250816262D92250812770C01399F
:100A5000F400740C031C2F2D92258816312D92253D
:100A60008812770CF400740C0139F500750C031C26
:100A70003C2D922508173E2D92250813770C8B25C7
:100A80000A128A11031C472D92258817492D922599
:100A900088132130F400F40B4B2D9225213088155A
:100AA000F400F40B512D92258811080083160313CE
:100AB0000816881608178817831221300815881021
:100AC000F300F30B612D922521308815F300F30B11
:100AD000672D00309225881B0130F40021308811E9
:100AE000F300F30B712D922521308815F300F30BE1
:100AF000772D9225881174080800F4007F30F301E7
:100B000074020318892D20307402031C892DF3010F
:100B1000F30A730C0800F400F40C740C0139F500AE
:100B2000750C08008312031308008316031789014C
:100B300088010A128A110B240A128A110A128A11D8
:100B40004E260A128A110A128A113F260A128A11A7
:100B50008C1283168C160B178B178312BA01BB01EC
:100B600046300A128A1125210A128A117A08BD001C
:100B70007908BC003D08BF003C08BE000A30BE0733
:100B80000318BF0A0230F8010A128A11C4230A129C
:100B90008A110B300A128A1109210A128A110430B3
:100BA000F801F80A0A128A11C4230A128A113D08B0
:100BB000B4003C08B30018300A128A1109210A1245
:100BC0008A112230B3003F08B5003E08B40040301F
:100BD0000A128A1115210A128A114030F400F50117
:100BE0000A128A11FF250A128A111F30F400803080
:100BF000F5000A128A11FF250A128A11B02D750814
:100C0000FF00740884000A128A1111200A128A1146
:100C10000038031908007508FF00740884000A12E0
:100C20008A1111200A128A111B260A128A11F40A4B
:100C30000319F50AFF2DF3000C1E1C2E73089900F2
:100C40000800831203138C1E362E3A08463E840099
:100C50001A0883138000BA0A0319BB0A3A08053A36
:100C60003B04031D352EBA01BB018C1272088A00A9
:100C700071088400700E8300FE0E7E0E09000230A3
:100C800083169A0008309900181218150317871553
:100C900083120313181618139817080002308316CE
:100CA0009A000830990018121815031787150313B6
:100CB000981618138312981708003A30831384008B
:100CC0004B300A128A11682683010A128A11952D67
:100CD00064008001840A0406031900340406692EA6
:02400E00C2E30B
:00000001FF
