:060000000A128A110E280D
:10000800FE00030EF0000408F1000A08F2000A12CC
:100018008A11282B0A128A117E2B83120313A70038
:100028002708840083130008203A031D1D28A70A07
:100038001428270884000008093A03191B28A50179
:10004800A601A4012708840000082D3A031D2E28C4
:10005800A40A58282708840000082B3A03195828AE
:10006800270884000008A9210A128A11031C5A28AB
:10007800270884002608F4002508F3000A30F50054
:10008800F601B7210A128A1100087307A20000308E
:10009800031801307407A3002208D03EA5002308E6
:1000A8000318013EFF3EA600A70A342824080319B6
:1000B80069282509A2002609A300A20A0319A30A90
:1000C8002208A0002308A10008002608A10025088E
:1000D800A0000800B6002830AD002708A70A840051
:1000E8000A128A1109230A128A11B700B7080319DC
:1000F800A4293708253A0319862836081E220A1229
:100108008A117128B401B501B3018C283315A70AE7
:10011800270884000A128A1109230A128A11303A20
:1001280003198A289728270884000A128A110923A4
:100138000A128A11A9210A128A11031CD028B401B3
:10014800B5013508F4003408F3000A30F500F6016B
:10015800B721270884000A128A1109230A128A1172
:100168007307AA000030031801307407AB002A088F
:10017800D03EB4002B080318013EFF3EB500A70A85
:10018800270884000A128A1109230A128A11A92150
:100198000A128A110318A5282708A70A84000A1238
:1001A8008A1109230A128A11B700003A0319A429EF
:1001B800643A0319E3280D3A0319E32871282D0836
:1001C800840083130008AF00840A0008B000AD0A59
:1001D800AD0AB01FF6280330B304AF09B009AF0A5F
:1001E8000319B00AB701B70A0310370D013E84009E
:1001F8000A128A1109230A128A11AA000A128A11FC
:1002080009230A128A11AB003002031D0D292A089E
:100218002F02031C1429B70A3708053A031DF828CA
:100228003508340403192029330803390319202910
:10023800FF30B407031CB5033708AA00AB01AA1B9B
:10024800AB032B08803AAC003508803A2C02031D1A
:100258002F2934082A0203183E298312031337086A
:10026800AA00AB01AA1BAB03B4022B08031CB503FD
:10027800B502422983120313B401B501331D5B296A
:100288003308033903194C29360824220A128A1123
:10029800350834040319752936088400303083136F
:1002A8008000FF30B60AB407031CB5034C29350893
:1002B800340403196D293608840020308313800024
:1002C800FF30B60AB407031CB50335083404031D10
:1002D8005F293308033903197529360824220A12BD
:1002E8008A113708AE00A0290A30A300A401031020
:1002F8002E0D013E84000A128A1109230A128A115E
:10030800F3000A128A1109230A128A11F40030082C
:10031800F6002F08F500D0210A128A117408A600E9
:100328007308A500FA210A128A112308303EB70083
:1003380036081E220A128A11AE032E0F7829712858
:1003480036088400831380010800F4003A30F30172
:1003580074020318B52930307402031CB529F3015F
:10036800F30A730C0800F701F801731CC12975081A
:10037800F7070318F80A7608F8070310F50DF60DC5
:100388000310F40CF30C74087304031DB9297808DE
:10039800F4007708F3000800A101A20174087304AF
:1003A8000319F529A001A00AF41BDE290310F30D97
:1003B800F40DD7290310A10DA20D74087602031DB0
:1003C800E72973087502031CF1297308F5027408FC
:1003D800031CF603F60221140310F40CF30CA00B13
:1003E800DE292208F4002108F30008002408230469
:1003F8000319192AF701F70AA41B062A0310A30DEB
:10040800A40DFF2924082602031D0C2A230825020F
:10041800031C152A2308A5022408031CA603A60208
:100428000310A40CA30CF70B062A2608A400250821
:10043800A30008008400370883138000B60A080068
:1004480084002D3083138000B60A08008316031732
:100458008901880103130711831292101214910164
:100468007C308316920083121211970195010A12AB
:100478008A116F230A128A110A128A1146230A1254
:100488008A11C601C701831203134608483E840037
:1004980083130008B8004608433E840038088000EB
:1004A800C60A0319C70A4708803AFF0080307F024E
:1004B800031D602A03304602031C472A43300A12F0
:1004C8008A1111200A128A112108D3002008D200AB
:1004D8006430A000A1015308F4005208F3007C30F6
:1004E800F500F6010A128A11B7210A128A11740856
:1004F800A3007308A2000A128A11C4220A128A11E0
:100508002108D5002008D4000C3012159700550892
:10051800D7005408D6000310D60DD70D0310D60DFA
:10052800D70D5708A9005608A8000A128A11B02248
:100538000A128A110B30A7001508A8003930A90142
:100548000A128A116E200A128A1139300A128A1187
:100558005B230A128A11452A0430A000A101290848
:10056800A3002808A200C422200895009712171299
:1005780028080239013A031997162818171608008F
:10058800A501A11FCE2AA009A109A00A0319A10A41
:10059800A501A50AA31FD72AA209A309A20A03191C
:1005A800A30A0130A506A601A70121082004031902
:1005B800FC2AA401A40AA11BE52A0310A00DA10D81
:1005C800DE2A0310A60DA70D21082302031DEE2A1B
:1005D80020082202031CF82A2008A2022108031C72
:1005E800A303A30226140310A10CA00CA40BE52A54
:1005F80025080319042BA609A709A60A0319A70A9F
:100608002708A1002608A000080003308A00040873
:10061800840A82070034013400340A340034643414
:100628000034E8340334103427344334433450342A
:10063800523431344C343A34203425343034333461
:100648006434203420340034831203138C1E3D2B71
:100658007908483E84001A0883138000F90A0319B0
:10066800FA0A7908033A7A04031D3C2BF901FA01C6
:100678008C1272088A0071088400700E8300FE0EC6
:100688007E0E0900831618121815031702308715F5
:1006980003139A0008309900831218161813981734
:1006A80083168C1683128C120B178B170800F40014
:1006B800740884008008031908007408840000087E
:1006C80069230A128A11F40A5C2BF3000C1E6A2BA8
:1006D80073089900080083161812181503170230BA
:1006E800871503139A000830990098161813831277
:1006F800981708004830F901FA018313840058302C
:100708000A128A118B2383010A128A112A2A640089
:0E0718008001840A04060319003404068C2BA9
:02400E00C2E30B
:00000001FF
