:060000000A128A11C72C50
:10096C00F2004D3E840083130008870070084D3E52
:10097C0084000008880071084D3E84000008860041
:10098C0008003F30CD000630CE005B30CF004F303A
:10099C00D0006630D1006D30D2007D30D3000730EE
:1009AC00D4007F30D5006F30D60083010A128A1133
:1009BC00C32DA501A31FE92CA209A309A20A03199F
:1009CC00A30AA501A50AA11FF02CA009A109A00A40
:1009DC000319A10A2108200403190F2DA401A40A4C
:1009EC00A11BFC2C0310A00DA10DF52C210823023A
:1009FC00031D022D20082202031C0B2D2008A2022D
:100A0C002108031CA303A3020310A10CA00CA40B2C
:100A1C00FC2C25080319172DA209A309A20A0319F6
:100A2C00A30A2308A1002208A0000800AB01A71FFD
:100A3C00262DA609A709A60A0319A70AAB01AB0A1A
:100A4C00A91F2F2DA809A909A80A0319A90A013061
:100A5C00AB06AC01AD01270826040319542DAA01DD
:100A6C00AA0AA71B3D2D0310A60DA70D362D0310AA
:100A7C00AC0DAD0D27082902031D462D26082802B2
:100A8C00031C502D2608A8022708031CA903A90241
:100A9C002C140310A70CA60CAA0B3D2D2B08031924
:100AAC005C2DAC09AD09AC0A0319AD0A2D08A700E1
:100ABC002C08A6000800BC250A128A110310750D1B
:100ACC00760DFC00FC08031D702DF001F101F20104
:100ADC00F3010800BC250A128A1117300310F60C1A
:100AEC00F50CF40CFF3E031D742D7408F700F11780
:100AFC00F2017008F8007108F9007208FA008E30E3
:100B0C00FB01FC02FC1F972D7C08803A8F3E031CD6
:100B1C006B2D0310FB0CFA0CF90CF80CFC0F8F2D41
:100B2C00A52D18307C0203186B2DFC080319A52D7C
:100B3C000310F80DF90DFA0DFB0DFC039B2D770836
:100B4C000319B32DF809F909FA09FB09F80A031975
:100B5C00F90A0319FA0A0319FB0A7B08F3007A084D
:100B6C00F2007908F1007808F00008007008F40031
:100B7C007108F5007208F600080083160317890146
:100B8C008801031386010514031708148312031339
:100B9C009F171F1383169F121F1283129F121F126F
:100BAC009F111F1183169F17831241301F14BF0012
:100BBC00EE30BE00BE0BE02DBF0BE02D64008316A3
:100BCC00031387018801860183128601880187013E
:100BDC000030F001F1010A128A11B6240A128A11AE
:100BEC004130BF00EE30BE00BE0BFA2DBF0BFA2D0C
:100BFC006400831203139F149F18022E1E08C90051
:100C0C00C80183161E088312C8070318C90AA0302E
:100C1C00AF01B0004030B100C030A0007F30A10067
:100C2C004430A2004908F9004808F8000A128A1159
:100C3C00C6260A128A117808A3007908A4007A083B
:100C4C00A5000A128A11E1260A128A112008B200A4
:100C5C002108B3002208B4000A128A1149270A128B
:100C6C008A112F08CA003008CB003108CC00C830DC
:100C7C00AF01B0004230B1004A08B2004B08B300DB
:100C8C004C08B4000A128A1149270A128A112F083B
:100C9C00CA003008CB003108CC006430A600A70194
:100CAC004A08F0004B08F1004C08F2000A128A11B5
:100CBC0061250A128A117108A9007008A8000A128D
:100CCC008A111C250A128A112708C5002608C4009F
:100CDC000A30A600A7014A08F0004B08F1004C08A6
:100CEC00F2000A128A1161250A128A117108A300F6
:100CFC007008A2006430A000A1010A128A11DF243E
:100D0C000A128A112108A9002008A8000A128A11C7
:100D1C001C250A128A112708C1002608C0004A089F
:100D2C00F0004B08F1004C08F2000A128A11612500
:100D3C000A128A117108A3007008A2006430A00086
:100D4C00A1010A128A11DF240A128A112108C70094
:100D5C002008C6000A30A000A1014708A3004608DD
:100D6C00A2000A128A11DF240A128A112108C30078
:100D7C002008C2004008F0004208F1004408F12DA0
:100D8C00FB01F91FD02EF809F909F80A0319F90A21
:100D9C00FB01FB0A7808F0007908F1008E30F201B3
:100DAC00F3007B08F400B8277008F8007108F9000C
:100DBC007208FA0008002308A6002408A7002508DA
:100DCC00A8000310270D280DAD00AD08031DF22E51
:100DDC00A001A101A20108002008A6002108A7007B
:100DEC002208A8000310270D280DAE00AE08031D25
:100DFC00032FA001A101A20108008930AA01AB01B7
:100E0C00AC012E07A600AD022508AE002208AE06E6
:100E1C008030AE051830A417A501A117A201A900B6
:100E2C000310AA0DAB0DAC0D22082502031D242FB7
:100E3C0021082402031D242F20082302031C322F17
:100E4C002008A3022108031C210FA4022208031C62
:100E5C00220AA5022A140310A30DA40DA50DA90B9B
:100E6C00162F2A08F0002B08F1002C08F2002D0890
:100E7C00F3002E08F400B8277008A0007108A10038
:100E8C007208A20008002F08B5003008B60031081F
:100E9C00B7000310360D370DB800B808031D5A2FD4
:100EAC00AF01B001B10108003208B5003308B6003B
:100EBC003408B7000310360D370DBD00BD08031DF7
:100ECC006B2FAF01B001B10108003D087B3EB807A4
:100EDC003108BD003408BD068030BD050730B017A1
:100EEC00B317B401B901BA01BB01BC002F1C862F8A
:100EFC003208F6270A128A110318340A031DBB079D
:100F0C000310B10CB00CAF0C0310B20DB30DB40D3B
:100F1C00BC0B7C2F0930BC002F1C9C2F3208F627F1
:100F2C000A128A110318340A031DBB070310B10CF3
:100F3C00B00CAF0C0310BB0CBA0CB90CBC0B922F41
:100F4C003908F0003A08F1003B08F2003808F300C9
:100F5C003D08F400B8277008AF007108B0007208A3
:100F6C00B100080073080319C02F720871047004D3
:100F7C00031DC92FF001F101F2010800F30A03105F
:100F8C00F20CF10CF00CFE3072050319D82FC42FA3
:100F9C00F30AF00A0319F10A0319F20A0310F20C0E
:100FAC00F10CF00CFF3072050319E22FCE2FF30376
:100FBC000310F00DF10DF20DF11FDD2F731CF11369
:100FCC000310F30C7308F700F601F5017508F00433
:100FDC007608F1047708F2047408031DF217080070
:100FEC00B907330803110318330A031DBA07340871
:040FFC0003110800D5
:02400E00C2E30B
:00000001FF
