:060000000A128A110C280F
:10000800FE00030EF2000A08F3000A128A110F28F4
:100018000A128A1186288B1C5E28F00A0319F10A35
:10002800700371048312031D1C2865200A128A11AB
:100038007008023A7104031D27286C200C30121531
:100048009D0019309B007008033A7104031D322883
:100058006C200C3012159D0025309B007008043A66
:100068007104031D3D286C200C3012159D003230A0
:100078009B007008053A7104031D48286C200C3059
:1000880012159D003F309B007008063A7104031D4D
:1000980053286C200C3012159D004B309B007008C3
:1000A800073A7104031D5D28F001F00AF10183127B
:1000B80065208B1073088A00720E8300FE0E7E0E78
:1000C800090003130C3012159D000D309B00080029
:1000D8008312031308008316031789018801031389
:1000E800871006140B168B1001138B1783129210AE
:1000F80012149101523083169200831212119D013D
:100108009B018528F001F10183010A128A116F28E9
:02400E00C2E30B
:00000001FF
