:060000000A168A11302FE0
:10000A0083160317890188010A128A154E230A12D8
:10001A008A11831689100910880185150317881516
:10002A00031306140317091603139F121F128312D0
:10003A009F131F1783169F1783120D301F14DD009D
:10004A00FB30DC00DC0B2728DD0B27282C280A12C2
:10005A008A15DC200A128A110030F5010A128A1563
:10006A0007230A128A115E08D4005F08D5006008C7
:10007A00D60077300A128A115E200A128A110A12F1
:10008A008A15A4200A128A110030F501F50A0A120B
:10009A008A1507230A128A116108D4006208D5005A
:1000AA006308D60088300A128A115E200A128A1161
:1000BA002C288316AE005430A400FD272E08AE0A61
:1000CA0084000A128A1500200A128A11B800B80898
:1000DA0003190800253A031974283808BC2CAF0103
:1000EA00B001AC01AD012E0884000A128A15002065
:1000FA000A128A11F1240A128A11031CA828AF01D4
:10010A00B0013008F1002F08F0000A30F200F301C4
:10011A00FF242E0884000A128A1500200A128A1166
:10012A009E270A128A11AF00EF27B000AE0A2E08E6
:10013A0084000A128A1500200A128A11F1240A126E
:10014A008A11031886282E0884000A128A150020AC
:10015A000A128A112E3A031DDB282D17AE0AB601A0
:10016A00B7012E0884000A128A1500200A128A1181
:10017A00F1240A128A11031CE1283708F100360813
:10018A00F0000A30F200F301FF242E0884000A125C
:10019A008A1500200A128A119E270A128A11B600AD
:1001AA00EF270A128A11B700AE0AB628B601B701BC
:1001BA002D16E1282D15F1282E08AE0A84000A1200
:1001CA008A1500200A128A11B800003A0319C02CB5
:1001DA00663A0319DF28622883120730D70183168B
:1001EA002D058312D80057040319242C83162D1EBB
:1001FA0001290630B600B7012408840083130008D9
:10020A00B300840A0008B400840A0008B500033069
:10021A00A4073308F0003408F1003508F200F301AE
:10022A00F401F501C5240A128A1103182D2933088D
:10023A00F0003408F1003508F20071260A128A111A
:10024A007008B3007108B4007208B5000330AC043A
:10025A00B101B2013508340433040319C629B33095
:10026A00840000088312D700840A0008D800840A90
:10027A000008D900840A0008DA000F300310DA0CEB
:10028A00D90CD80CD70CFF3E031D432958088316F6
:10029A00B200831257088316B1008230B201B10747
:1002AA00031CB203FF30B107031CB2030330F00092
:1002BA00F1013208F3003108F200FF247108B2009C
:1002CA007008B1000A30F600F7013208F900310867
:1002DA00F8000A128A156A260A128A117708B200E9
:1002EA007608B100B21F7D29FF30B107031CB203A3
:1002FA003103FF3A0A128A15D8240A128A11912761
:10030A000A128A11C027831625088312B20083169F
:10031A0026088312B300831627088312B4000A1230
:10032A008A15EC260A128A112F088316A500831251
:10033A0030088316A600831231088316A700E8271F
:10034A000A128A118030F301F4003F30F500C52407
:10035A000A128A110318B629FF30B107031CB20327
:10036A00C629E8270A128A112030F301F400413025
:10037A00F500C5240A128A11031CC629B10A0319F9
:10038A00B20A3708803AFF0080307F02031DCF2966
:10039A000D3036020318F829FD2736080A128A1585
:1003AA00B5210A128A114A08BE004B08BF004C0840
:1003BA00C000831633088312C100831634088312DF
:1003CA00C200831635088312C30079260A128A11DD
:1003DA003E088316B30083123F088316B4008312C3
:1003EA0040088316B500FD273208803AFF008030A6
:1003FA007F02031D022A0A3031020318232AFD272D
:10040A003508340433040319642A3308B5270A1259
:10041A008A1118250A128A112308220421042004A9
:10042A00031D642A83163208803AFF0080307F0257
:10043A00031D212A02303102031C642AFD27E82702
:10044A000A128A117030F3008930F4004030F50046
:10045A00C5240A128A110318342AF730352AF830CB
:10046A00B107031CB20331080A128A15D8240A12EA
:10047A008A1191270A128A11F0003408F10035080E
:10048A00F2002508F3002608F4002708F500F925EC
:10049A000A128A1173088316A3007208A20071084F
:1004AA00A1007008A0002308AB002208AA002108B6
:1004BA00A9002008A800B301B401B5019F2AFD27AD
:1004CA003308B5270A128A1118250A128A118327B6
:1004DA000A128A118316A8002B08FB002A08FA00C0
:1004EA002908F9002808F8003B270A128A11780817
:1004FA008312CA007908CB007A08CC008316330825
:10050A008312CD00831634088312CE008316350871
:10051A008312CF005B270A128A114A088316B30096
:10052A0083124B088316B40083124C088316B50055
:10053A00B101B201B801B80A71270A128A1500205E
:10054A000A128A11D8000A128A1500200A128A1180
:10055A00D9000A128A1500200A128A11DA000A1230
:10056A008A1500200A128A11DB0083162B02031D4A
:10057A00CE2A83125A0883162A02031DCE2A831210
:10058A00590883162902031DCE2A83125808831696
:10059A002802031CD52AB80A38080A3A031DA12AD8
:1005AA00360838078312D700831637080318370A24
:1005BA00B81BFF3E8312D8008316310883125707EF
:1005CA00D900831632080318320A83125807DA0050
:1005DA0059088316AF0283125A088316031CB00304
:1005EA00B002370836040319FE2AFF30AF07031C8E
:1005FA00B0032C080339031D112B3008803AFF0081
:10060A0080307F02031D0B2B01302F02031C172B96
:10061A002030C1240A128A11FF30FD27AF07031CBC
:10062A00B003022BFD272C08033903194A2B2D305E
:10063A00472B7B270A128A1171270A128A15002072
:10064A000A128A11F0000A128A1500200A128A1167
:10065A00F1000A128A1500200A128A11F2000A12FF
:10066A008A1500200A128A11AA270A128A11B125AC
:10067A000A128A11D5270A128A1173250A128A11B7
:10068A002008303EC1240A128A11FD27B803380F08
:10069A001E2B3208803AFF0080307F02031D572B41
:1006AA0001303102031C632B3030C1240A128A1133
:1006BA00FF30FD27B107031CB2034E2BFD27370875
:1006CA00803AFF0080307F02031D6D2B093036020D
:1006DA00031C722B0830FD27742BFD273608B8003F
:1006EA008312D700D801D71BD8038316B602831208
:1006FA0058088316031CB703B70238080319892B55
:10070A002E30C1240A128A11FD2738080A128A15C6
:10071A00D8240A128A113E08B2003F08B3004008E2
:10072A00B40083163308C0270A128A15EC260A1267
:10073A008A112F08A0003008A1003108A20018254C
:10074A000A128A1183270A128A11112C7B270A128C
:10075A008A1171270A128A1500200A128A11F000DA
:10076A000A128A1500200A128A11F1000A128A1541
:10077A0000200A128A11F2000A128A1500200A12AF
:10078A008A11AA270A128A11B1250A128A11D527B3
:10079A000A128A1173250A128A112008303EC124CE
:1007AA000A128A11FD2771270A128A1500200A12D5
:1007BA008A11A0000A128A1500200A128A11A100C1
:1007CA000A128A1500200A128A11A2000A128A1530
:1007DA0000200A128A11A30083162B088312A7008D
:1007EA0083162A088312A600831629088312A500F5
:1007FA00831628088312A40073250A128A11230873
:10080A008316AB00831222088316AA0083122108DA
:10081A008316A900831220088316A800B803380F8C
:10082A00AB2B37083604031962283030C1240A1268
:10083A008A11FF30FD27B607031CB703162C83164F
:10084A0037083604031D312C2B082A0429042804EE
:10085A000319B60A0319B70A3808CB270A128A11EC
:10086A003708803A83125902031D3F2C8316360833
:10087A00831257020318452CFD273608B8005D2C51
:10088A008316DF270A128A113708803A8312D900A1
:10089A005808803A5902031D552C57088316360208
:1008AA0003185D2CFD273808B600B701B61BB7033D
:1008BA00FD2730082F0403196A2C2C080339031961
:1008CA006A2CFF30AF07031CB0032D1F872C370893
:1008DA00803A8312D70083163008803A831257026F
:1008EA00031D7A2C83162F0836020318842CFD2741
:1008FA003608AF023708031CB003B002872CFD2765
:10090A00AF01B0013808CB270A128A113008803AA1
:10091A0083125902031D952C83162F08831257023E
:10092A000318A32C8316DF270A128A11AF02831237
:10093A0058088316031CB003B002A62CFD27AF018A
:10094A00B00130082F040319B72C2030C1240A1231
:10095A008A11FF30FD27AF07031CB00330082F04AC
:10096A00031DAA2C2C080339031962282D30C1242F
:10097A000A128A1162280800F9000A128A151F2B26
:10098A00F21FD42C7008003CF0007108031C710F90
:10099A00003CF1007208031C720F803CF200F51F44
:1009AA00E32C7308003CF3007408031C740F003C2A
:1009BA00F4007508031C750F803CF5008030F206C0
:1009CA00F50675087202031D080074087102031DFA
:1009DA000800730870020800F1003A30F001710251
:1009EA000318FD2C30307102031CFD2CF001F00AB3
:1009FA00700C0800F401F501701C092D7208F40747
:100A0A000318F50A7308F5070310F20DF30D031026
:100A1A00F10CF00C71087004031D012D7508F1002A
:100A2A007408F0000800F6270A128A110310250D2F
:100A3A00260DAC00AC08031D272DA001A101A201BF
:100A4A00A3010800F6270A128A1117300310A60C10
:100A5A00A50CA40CFF3E031D2B2D2408A700A117EB
:100A6A00A2012008A8002108A9002208AA008E30A5
:100A7A00AB01AC02AC1F4E2D2C08803A8F3E031CF2
:100A8A00222D0310AB0CAA0CA90CA80CAC0F462DF6
:100A9A005C2D18302C020318222DAC0803195C2D8A
:100AAA000310A80DA90DAA0DAB0DAC03522D2708F2
:100ABA0003196A2DA809A909AA09AB09A80A0319E1
:100ACA00A90A0319AA0A0319AB0A2B08A3002A08C0
:100ADA00A2002908A1002808A0000800230822046F
:100AEA00210420040319A82DFD01FD0AA31B832D4F
:100AFA000310A00DA10DA20DA30D7A2D2308270224
:100B0A00031D912D22082602031D912D210825027D
:100B1A00031D912D20082402031CA22D2008A402E3
:100B2A002108031C210FA5022208031C220FA6027A
:100B3A002308031C230FA7020310A30CA20CA10C69
:100B4A00A00CFD0B832D2708A3002608A200250868
:100B5A00A1002408A0000800F801F901FA01FB012C
:100B6A0073087204710470040319F02DFC01FC0A65
:100B7A00F31BC52D0310F00DF10DF20DF30DBC2D75
:100B8A000310F80DF90DFA0DFB0D73087702031D1A
:100B9A00D82D72087602031DD82D71087502031D1F
:100BAA00D82D70087402031CEA2D7008F40271082B
:100BBA00031C710FF5027208031C720FF602730808
:100BCA00031C730FF70278140310F30CF20CF10CE8
:100BDA00F00CFC0BC52D7B08F3007A08F2007908AB
:100BEA00F1007808F00008007008F6007108F700B4
:100BFA007208F8000310770D780D8312A500A50876
:100C0A00031D0C2EF001F101F201F3010800730833
:100C1A00F6007408F7007508F8000310770D780DD0
:100C2A00A400A4080319072E7F30F117F201F41764
:100C3A00F501A001A101A201A301A5029830240790
:100C4A00F600A5021830A4000310A00DA10DA20DF4
:100C5A00A30D75087202031D382E74087102031D54
:100C6A00382E73087002031C462E7308F0027408AB
:100C7A00031C740FF1027508031C750AF202201492
:100C8A000310F00DF10DF20DA40B292EA51F5A2EFB
:100C9A002508803A973E031C072E0310A30CA20CCA
:100CAA00A10CA00CA50F522E682E1830250203188D
:100CBA00072EA5080319682E0310A00DA10DA20D79
:100CCA00A30DA5035E2E2308F3002208F2002108D3
:100CDA00F1002008F000080072087104700403197A
:100CEA0008008030F20608003E08C4003F08C5002C
:100CFA004008C6000310450D460DC9004108C4004E
:100D0A004208C5004308C6000310450D460DC80039
:100D1A00490803199C2E4808490248080318A42EBA
:100D2A00C4004908C40219304402031CA32E410816
:100D3A00BE004208BF004308C00008004808031963
:100D4A000800490848020318B22E4908C400480896
:100D5A00C40219304402031808000630C700C01B39
:100D6A00C717C31B4717BF17C001C217C3014808DB
:100D7A0049020318D92E0310C10DC20DC30DC803B1
:100D8A00480849060319D42EC70347080739031927
:100D9A00D42EC02E0310C00CBF0CBE0CC90A4908C1
:100DAA0048060319F52ECF2E490848020318F52ED6
:100DBA000310BE0DBF0DC00DC9034808490603192B
:100DCA00F12EC703470807390319F12EDD2E031048
:100DDA00C30CC20CC10CC80A49084806031DEC2EF4
:100DEA00C71F002FFF30BE06BF06C006BE0A031982
:100DFA00BF0A0319C00A471F0B2FFF30C106C206DC
:100E0A00C306C10A0319C20A0319C30AC7013E0865
:100E1A00C1073F08031103183F0A031DC207400810
:100E2A0003110318400A031DC307C31F272FFF30EE
:100E3A00C106C206C306C10A0319C20A0319C30AB4
:100E4A00C701C70A4108F0004208F1004308F2004E
:100E5A004908F3004708F4000A128A15692770083E
:100E6A00BE007108BF007208C00008008E30FC0086
:100E7A00FF307B050319482F0310FB0CFA0CF90C01
:100E8A00F80CFC0A3D2F7808F0007908F1007A087E
:100E9A00F2007C08F300F4010A128A156927700827
:100EAA00F8007108F9007208FA0008008030CC06D0
:100EBA004D08BE004E08BF004F08C0004A08C100D6
:100ECA004B08C2004C08C30079263E08CA003F08F6
:100EDA00CB004008CC00080038088312D700031062
:100EEA00D70D0310570D4F3E840008000A308312B5
:100EFA00A000A101A201A3018316080023088316FA
:100F0A00AB00831222088316AA00831221088316D3
:100F1A00A9008312200808003E088316A500831240
:100F2A003F088316A600831240088316A7003308D9
:100F3A00080070078312D7000030031801307107C8
:100F4A00D8005708D03E83160800F30083162B08F2
:100F5A00F7002A08F6002908F5002808F400080016
:100F6A008312A000831634088312A1008316350861
:100F7A008312A20008008312AF008316340883127A
:100F8A00B000831635088312B10008008312D70017
:100F9A00D801D71BD8035808803AD900831608000D
:100FAA0073088312A7007208A6007108A5007008CA
:100FBA00A4000800031338088312D700D801D71BEE
:100FCA00D803831608002508F0002608F100270830
:100FDA00F2000800831258080318013EFF3E8316E8
:100FEA0008002008A4002108A5002208A60008007D
:100FFA0083160313080008308A000408840A82074B
:10100A000034003480343F34CD34CC343D34D734CA
:10101A0023343C34123483343A34B734D134383438
:10102A00C63427343734383486343534C034D63469
:10103A003334CC342B343234703489343034E7349A
:10104A00DB342E34E5343C341E344234A2340D34BD
:10105A00003480343F340034203441340034C834FE
:10106A00423400347A34443440341C3446345034E4
:10107A00C3344734243474344934973418344B34E1
:10108A00BC34BE344C346B346E344E3403341534B1
:10109A0050347934AD346034F33449347134013422
:1010AA000034003400340A34003400340034643428
:1010BA00003400340034E83403340034003410348B
:1010CA00273400340034A0348634013400344034E8
:1010DA0042340F3400348034963498340034003467
:1010EA00E134F53405340034CA349A343B34443498
:1010FA00693465346E3420346134703420343134C8
:10110A003A342034253433342E34313466340034BE
:10111A004434693465346E34203461347034203494
:10112A0032343A342034253433342E34313466346C
:02113A0000347F
:1011480083120D309F161F169F111F11BF00FB3011
:10115800BE00BE0BAD28BF0BAD28B2288312031307
:101168009F149F18B5281E08E700E60183161E087D
:101178008312E6070318E70AFA309C210A128A1537
:101188006708F9006608F8007F210A128A15AE215F
:101198000A128A1515210A128A15A7210A128A1518
:1011A800EC262F08E1003008E2003108E3000800CF
:1011B800831203130D309F121F129F151F15BF00B6
:1011C800FB30BE00BE0BE628BF0BE628EB288312D7
:1011D80003139F149F18EE281E08E500E4018316E8
:1011E8001E088312E4070318E50AFA309C210A1244
:1011F8008A156508F9006408F8007F210A128A1523
:10120800AE210A128A1515210A128A15A7210A1277
:101218008A15EC262F08DE003008DF003108E000D0
:1012280008002308A6002408A7002508A800031022
:10123800270D280DAD00AD08031D2629A001A10129
:10124800A20108002008A6002108A7002208A8007B
:101258000310270D280DAE00AE08031D3729A00185
:10126800A101A20108008930AA01AB01AC012E0737
:10127800A600AD022508AE002208AE068030AE05F5
:101288001830A417A501A117A201A9000310AA0DDF
:10129800AB0DAC0D22082502031D58292108240294
:1012A800031D582920082302031C66292008A302CD
:1012B8002108031C210FA4022208031C220AA502EC
:1012C8002A140310A30DA40DA50DA90B4A292A0859
:1012D800F0002B08F1002C08F2002D08F3002E086E
:1012E800F4000A128A1569277008A0007108A10085
:1012F8007208A2000800FB01F91F8929F809F909F9
:10130800F80A0319F90AFB01FB0A7808F0007908C2
:10131800F1008E30F201F3007B08F4000A128A15FE
:1013280069277008F8007108F9007208FA000800C7
:10133800AF01B0004330B100C030A0007F30A10041
:101348004430A20008002008B2002108B300220897
:10135800B40008007808A3007908A4007A08A5005A
:1013680008008312D3006E305302031C402A033056
:10137800F9000A30F5006430F0005308D5220A124B
:101388008A15BA220A128A155B270A128A151C3E88
:1013980084000A128A1500200A128A15AF000A1260
:1013A8008A1500200A128A15B0000A128A15002030
:1013B8000A128A15B1000330F9006430F5005308A9
:1013C800BA220A128A155B270A128A15373E840048
:1013D8000A128A1500200A128A15B2000A128A1502
:1013E80000200A128A15B3000A128A1500200A1270
:1013F8008A15B4000A128A15EC260A128A150023E7
:101408000A128A150330F9000A30F0005308D52271
:101418000A128A155B270A128A15013E84000A12ED
:101428008A1500200A128A15AF000A128A150020B0
:101438000A128A15B0000A128A1500200A128A15A3
:10144800F8220A128A15EC260A128A152F08CD00EE
:101458003008CE003108CF003F30AF01B001B100F5
:101468004D08B2004E08B3004F08B4000A128A159E
:10147800EC260A128A15F12A0B305302031C942A0F
:101488000330F9000A30F0005308D5220A128A15F1
:101498005B270A128A15013E84000A128A15002069
:1014A8000A128A15AF000A128A1500200A128A1534
:1014B800B0000A128A1500200A128A15B1000330FA
:1014C800F9000A30F5005308BA220A128A155B2778
:1014D8000A128A151C3E84000A128A1500200A1274
:1014E8008A15B2000A128A1500200A128A15B3005A
:1014F8000A128A1500200A128A15B4000A128A15DF
:10150800EC260A128A1500230A128A153F30AF0109
:10151800B001F8220A128A15EC260A128A15F12A55
:101528003F30AF01B001B1000330F90053080A128F
:101538008A155B270A128A15013E84000A128A1549
:1015480000200A128A15B2000A128A1500200A120F
:101558008A15B3000A128A1500200A128A15B400E7
:101568000A128A15EC260A128A15F12AF600F801E1
:1015780075080319D32AF701F70AF51BC62A0310C1
:10158800F50DC02A0310F80D75087602031CD02A41
:101598007508F60278140310F50CF70BC62A7808BC
:1015A8000800F2000830F300F4017208F100073077
:1015B8000310F10CFF3E0310031DDD2A740D7104A6
:1015C800F4000310F20D70087402031CED2A700871
:1015D800F402F30BD92A740808002F08CA0030084F
:1015E800CB003108CC000800B1005008B200510807
:1015F800B3005208B40008002F08D0003008D1000A
:101608003108D2000800F600750803190E2B403087
:10161800F7000F2BF7017608F70777088038F000F6
:10162800003009240A128A1599240A128A150038EA
:1016380003190800182BF800452B0030F001F00AB8
:1016480009240A128A1599240A128A1500380319DE
:101658000800272B0030F501F50A072B7808C0246D
:101668000A128A15031C08007808F00001300924C2
:101678000A128A1599240A128A15003803190800D3
:101688003E2B78080A3A03192E2B063A0319212B08
:10169800322B0800031388118810081108128812C9
:1016A8000813881383120330881188100811F70073
:1016B8008A30F6005630F500F50B602BF60B602BE0
:1016C800F70B602B672B3030F000003009240A122A
:1016D8008A150230F7004530F600A930F500F50B01
:1016E800732BF60B732BF70B732B7A2B3030F00020
:1016F800003009240A128A150230F7004530F60036
:10170800A930F500F50B862BF60B862BF70B862BED
:101718008D2B3230F000003009240A128A1503306C
:10172800F7008A30F6005630F500F50B992BF60BCA
:10173800992BF70B992BA02B0330F7008A30F60072
:101748005630F500F50BA62BF60BA62BF70BA62BA0
:10175800AD2B0330F7008A30F6005630F500F50B54
:10176800B32BF60BB32BF70BB32BBA2B99240A1216
:101778008A150038031DBA2B2830F00000300924E0
:101788000A128A1599240A128A150038031DC62BD5
:101798000830F000003009240A128A1599240A1228
:1017A8008A150038031DD22B0C30F00000300924B4
:1017B8000A128A1599240A128A150038031DDE2B8D
:1017C8000030F001F00A09240A128A1599240A1235
:1017D8008A150038031DEA2B0430F0000030092474
:1017E8000A128A1599240A128A150038031DF62B45
:1017F8000030F001F00A09240A128A1599240A1205
:101808008A15003803190800022CF3008316031305
:101818000812881208138813831288107308031D8E
:1018280088142130F100F10B172CD5242130081130
:10183800F100F10B1D2CD52488117008F400740EEA
:101848000139F100710C031C2C2CD52408162E2C00
:10185800D5240812740EF100710C0139F200720CD3
:10186800031C392CD52488163B2CD5248812740ED9
:10187800CE240A128A15031C442CD5240817462C9A
:10188800D5240813740D740D0139F100710C031C73
:10189800502CD5248817522CD52488132130F100D8
:1018A800F10B542CD52421308815F100F10B5A2C5A
:1018B800D524881174080139F100710C031C672CB8
:1018C800D5240816692CD5240812740C0139F100A6
:1018D800710C031C722CD5248816742CD5248812FC
:1018E800740CF100710C0139F200720C031C7F2C8E
:1018F800D5240817812CD5240813740CCE240A1279
:101908008A15031C8A2CD52488178C2CD524881377
:101918002130F100F10B8E2CD52421308815F100EF
:10192800F10B942CD524881108008316031308168C
:101938008816081788178312213008158810F000B8
:10194800F00BA42CD52421308815F000F00BAA2C1C
:101958000030D524881B0130F10021308811F000B7
:10196800F00BB42CD52421308815F000F00BBA2CDC
:10197800D524881171080800F1007F30F001710248
:101988000318CC2C20307102031CCC2CF001F00A77
:10199800700C0800F100F10C710C0139F200720CA6
:1019A80008008312031308008312C800C81FA42D5F
:1019B800C809C80A4808803A123E031C482D0A3054
:1019C800CB270A128A15AF260A128A157108F90060
:1019D8007008F8006A260A128A15E0271C3E84005F
:1019E8000A128A1500200A128A15AF000A128A15EF
:1019F80000200A128A15B0000A128A1500200A125D
:101A08008A15E8270A128A15F81BF9036A260A12AA
:101A18008A15AF27373E84000A128A1500200A1259
:101A28008A15B2000A128A1500200A128A15B30014
:101A38000A128A1500200A128A15B400EC260A1226
:101A48008A15BE270A128A15F21BF303AF260A125B
:101A58008A15A727013E84000A128A1500200A1257
:101A68008A15AF000A128A1500200A128A15B000DA
:101A78000A128A1500200A128A15F0270A128A15F6
:101A8800EC260A128A15B72F4808803A753E031CBF
:101A98008D2D0A30F000F1014808F200F301F21B25
:101AA800F303AF260A128A15A727013E84000A12FB
:101AB8008A1500200A128A15AF000A128A1500201A
:101AC8000A128A15B0000A128A1500200A128A150D
:101AD800F8270A128A15F81BF9036A260A128A15CA
:101AE800AF271C3E84000A128A1500200A128A15A4
:101AF800B2000A128A1500200A128A15B3000A12C7
:101B08008A1500200A128A15B400EC260A128A15D2
:101B1800B72F0330F90048085B27013E84000A12FA
:101B28008A1500200A128A15BE000A128A1500209A
:101B38000A128A15BF000A128A150020C000080080
:101B48004808803A123E031C0E2E0A30CB270A1290
:101B58008A15AF260A128A157108F9007008F8006C
:101B68006A260A128A15E027433E84000A128A155B
:101B780000200A128A15AF000A128A1500200A12DC
:101B88008A15B0000A128A1500200A128A15E82759
:101B98000A128A15F81BF9036A260A128A15AF2752
:101BA8005E3E84000A128A1500200A128A15B200C5
:101BB8000A128A1500200A128A15B3000A128A1519
:101BC80000200A128A15B400EC260A128A15BE27CC
:101BD8000A128A15F21BF303AF260A128A15A727E1
:101BE800283E84000A128A1500200A128A15AF00BE
:101BF8000A128A1500200A128A15B0000A128A15DC
:101C080000200A128A15F0270A128A15EC260A12F1
:101C18008A15B72F4808803A753E031C532E0A30A0
:101C2800F000F1014808F200F301F21BF303AF26BC
:101C38000A128A15A727283E84000A128A1500204E
:101C48000A128A15AF000A128A1500200A128A158C
:101C5800B0000A128A1500200A128A15F8270A12FB
:101C68008A15F81BF9036A260A128A15AF27433E1C
:101C780084000A128A1500200A128A15B2000A1274
:101C88008A1500200A128A15B3000A128A15002044
:101C98000A128A15B400EC260A128A15B72F0330E7
:101CA800F90048085B27283E84000A128A1500209C
:101CB8000A128A15BE000A128A1500200A128A150D
:101CC800BF000A128A150020C0000800FB01F71F98
:101CD800742EF609F709F60A0319F70AFB01FB0A3D
:101CE800F91F7D2EF809F909F80A0319F90A0130D4
:101CF800FB06FC01FD01770876040319A22EFA0100
:101D0800FA0AF71B8B2E0310F60DF70D842E03101D
:101D1800FC0DFD0D77087902031D942E76087802D4
:101D2800031C9E2E7608F8027708031CF903F902B3
:101D38007C140310F70CF60CFA0B8B2E7B08031996
:101D4800AA2EFC09FD09FC0A0319FD0A7D08F70003
:101D58007C08F6000800F501F31FB92EF209F30913
:101D6800F20A0319F30AF501F50AF11FC02EF0096A
:101D7800F109F00A0319F10A710870040319DF2E3A
:101D8800F401F40AF11BCC2E0310F00DF10DC52E51
:101D980071087302031DD22E70087202031CDB2E19
:101DA8007008F2027108031CF303F3020310F10C2C
:101DB800F00CF40BCC2E75080319E72EF209F30981
:101DC800F20A0319F30A7308F1007208F000080018
:101DD8002F08B5003008B6003108B7000310360DDB
:101DE800370DB800B808031DFD2EAF01B001B101D1
:101DF80008003208B5003308B6003408B7000310ED
:101E0800360D370DBD00BD08031D0E2FAF01B00103
:101E1800B10108003D087B3EB8073108BD00340811
:101E2800BD068030BD050730B017B317B401B9013E
:101E3800BA01BB01BC002F1C292F3208D6270A1271
:101E48008A150318340A031DBB070310B10CB00C24
:101E5800AF0C0310B20DB30DB40DBC0B1F2F09301E
:101E6800BC002F1C3F2F3208D6270A128A150318E8
:101E7800340A031DBB070310B10CB00CAF0C0310E0
:101E8800BB0CBA0CB90CBC0B352F3908F0003A085A
:101E9800F1003B08F2003808F3003D08F400692718
:101EA8007008AF007108B0007208B1000800FB00AC
:101EB800FA0179087B18FA070310F90D0310FB0CD7
:101EC800FB08031D5D2F7A08080073080319712F9A
:101ED800720871047004031D7A2FF001F101F201F8
:101EE8000800F30A0310F20CF10CF00CFE30720536
:101EF8000319892F752FF30AF00A0319F10A031938
:101F0800F20A0310F20CF10CF00CFF307205031901
:101F1800932F7F2FF3030310F00DF10DF20DF11F36
:101F28008E2F731CF1130310F30C7308F700F601DE
:101F3800F5017508F0047608F1047708F2047408CE
:101F4800031DF21708007008C1007108C20041089B
:101F58004107410708007608C3007708C400430812
:101F68004307430708002F08BE003008BF003108A8
:101F7800C00008002F08C5003008C6003108C70097
:101F88000A30F000F1014808F200F3010800F600F9
:101F9800F7014808F200F301F21BF3036430F00084
:101FA800F1010800B907330803110318330A031DA8
:101FB800BA073408031108007608C1007708C20080
:101FC8004108410741070800B1006430F600F701F5
:101FD8004808F800F9010800B1004508B2004608B1
:101FE800B3004708B4000800B1000A30F600F70152
:081FF8004808F800F901080097
:102E6000DE01DF01E001E101E201E301E401E5014E
:102E7000E601E70183010A128A1105287030F32761
:102E80000A168A110310780D790D83120313A50019
:102E9000A508031D502FF001F101F201F301080014
:102EA0007330F3270A168A110310780D790DA400E8
:102EB000A40803194B2F703084008030840A840AE0
:102EC00080047030840A84007330840A840A840A7F
:102ED000800184008030840A840A80047330840A6C
:102EE00084007F30840A840A840A8001A001A10141
:102EF000A201A301A502A0302407F600A5022030FC
:102F0000A40073300310A00DA10DA20DA30DF32793
:102F10000A168A11703084000008FA00840A00083A
:102F2000FB00840A0008FC00840A0008FD00790800
:102F30007D02031DA52F78087C02031DA52F7708AD
:102F40007B02031DA52F76087A02031CC12F733064
:102F5000F3270A168A117030840076088002840AEA
:102F60007708031C770F8002840A7808031C780F07
:102F70008002840A7908031C790A800203308402E3
:102F80002014703084000310800D840A800D840AA0
:102F9000800D840A800DA40B812FA51FDC2F25082E
:102FA000803A9F3E031C4B2F0310A30CA20CA10CD4
:102FB000A00CA50FD42FEA2F2030250203184B2F89
:102FC000A5080319EA2F0310A00DA10DA20DA30D52
:102FD000A503E02F2308F3002208F2002108F100E6
:102FE0002008F000080084000008F600840A0008A9
:102FF000F700840A0008F800840A0008F9000800B5
:02400E00C2E30B
:00000001FF
