:060000000A128A110E280D
:10000800FE00030EF0000408F1000A08F2000A12CC
:100018008A11292B0A128A11A92BF801A41F1B285F
:10002800A309A409A30A0319A40AF801F80A2308D2
:10003800F3002408F4008E30F501F6007808F70084
:1000480003217308A3007408A4007508A50008001C
:100058002908AC002A08AD002B08AE0003102D0DAE
:100068002E0DB300B308031D3D28A601A701A80162
:1000780008002608AC002708AD002808AE000310C9
:100088002D0D2E0DB400B408031D4E28A601A7019E
:10009800A80108008930B001B101B2013407AC00F1
:1000A800B3022B08B4002808B4068030B405183011
:1000B800AA17AB01A717A801AF000310B00DB10D27
:1000C800B20D28082B02031D6F2827082A02031DDA
:1000D8006F2826082902031C7D282608A90227085C
:1000E800031C270FAA022808031C280AAB02301495
:1000F8000310A90DAA0DAB0DAF0B61283008F30052
:100108003108F4003208F5003308F6003408F70027
:1001180003217308A6007408A7007508A800080042
:100128003508BB003608BC003708BD0003103C0D7D
:100138003D0DBE00BE08031DA528B501B601B701D7
:1001480008003808BB003908BC003A08BD00031095
:100158003C0D3D0DC300C308031DB628B501B6010B
:10016800B701080043087B3EBE073708C3003A08BA
:10017800C3068030C3050730B617B917BA01BF01E7
:10018800C001C101C200351CD128380841210A121A
:100198008A1103183A0A031DC1070310B70CB60CDD
:1001A800B50C0310B80DB90DBA0DC20BC72809302C
:1001B800C200351CE728380841210A128A110318A1
:1001C8003A0A031DC1070310B70CB60CB50C03108F
:1001D800C10CC00CBF0CC20BDD283F08F30040085F
:1001E800F4004108F5003E08F6004308F700032133
:1001F8007308B5007408B6007508B70008007608DB
:1002080003190B29750874047304031D1429F301D9
:10021800F401F5010800F60A0310F50CF40CF30CD0
:10022800FE307505031923290F29F60AF30A031965
:10023800F40A0319F50A0310F50CF40CF30CFF305B
:10024800750503192D291929F6030310F30DF40D6B
:10025800F50DF41F2829761CF4130310F60C760804
:10026800A200A101A0012008F3042108F404220837
:10027800F5047708031DF5170800BF0739080311AF
:100288000318390A031DC0073A0803110800B30010
:100298002830AC002708A70A84000A128A116623AE
:1002A8000A128A11B400B4080319E1293408253A5E
:1002B80003196329330834220A128A114E29AD0121
:1002C8002708A70A84000A128A1166230A128A11CB
:1002D800B400003A0319E129643A031977290D3A61
:1002E800031977294E292C08840083130008AF00CE
:1002F800840A0008B000AC0AAC0AB01F8A2903308F
:10030800AD04AF09B009AF0A0319B00AB401B40AC1
:100318000310340D013E84000A128A1166230A1262
:100328008A11AA000A128A1166230A128A11AB00DE
:100338003002031DA1292A082F02031CA829B40A88
:100348003408053A031D8C292D0803390319B229ED
:10035800330884002D3083138000B30A3408AE00BC
:10036800DD290A30A300A40103102E0D013E8400EC
:100378000A128A1166230A128A11F3000A128A11D4
:1003880066230A128A11F4003008F6002F08F500D7
:10039800E6210A128A117408A6007308A500102223
:1003A8000A128A112308303EB400330834220A1294
:1003B8008A11AE032E0FB5294E2933088400831302
:1003C80080010800A101A2017408730403190B2A13
:1003D800A001A00AF41BF4290310F30DF40DED2974
:1003E8000310A10DA20D74087602031DFD297308E0
:1003F8007502031C072A7308F5027408031CF60328
:10040800F60221140310F40CF30CA00BF4292208B3
:10041800F4002108F30008002408230403192F2AF4
:10042800F701F70AA41B1C2A0310A30DA40D152A13
:1004380024082602031D222A23082502031C2B2A2E
:100448002308A5022408031CA603A6020310A40C73
:10045800A30CF70B1C2A2608A4002508A3000800F3
:100468008400340883138000B30A08008316031736
:100478008901880103130730811281110111811448
:100488000110831281008B160B118B179014901298
:10049800101210158E018F01101310140A128A11F0
:1004A800CC230A128A110A128A11BD230A128A1150
:1004B8008C1283168C160B178B1783121630B50106
:1004C800B6004430B700B430A601A7004330A800F6
:1004D8005108A4005008A3000A128A1111200A1218
:1004E8008A112308A9002408AA002508AB000A12CB
:1004F8008A112C200A128A112608B8002708B90088
:100508002808BA000A128A1194200A128A1135089A
:10051800D2003608D3003708D4005208F300530835
:10052800F4005408F5000A128A11C7220A128A1127
:100538007408D6007308D5000B30F4008030F5003D
:100548000A128A1187230A128A111930A70056083D
:10055800A9005508A8004B300A128A114B210A122B
:100568008A114B30F400F5010A128A1187230A1206
:100578008A111630F4008030F5000A128A11872398
:100588000A128A11612A22230A128A110310210DE4
:10059800220DA800A808031DD62AF301F401F501CD
:1005A800F601080022230A128A1117300310A20C40
:1005B800A10CA00CFF3E031DDA2A2008A300F417A3
:1005C800F5017308A4007408A5007508A6008E300C
:1005D800A701A802A81FFD2A2808803A8F3E031CFD
:1005E800D12A0310A70CA60CA50CA40CA80FF52A59
:1005F8000B2B183028020318D12AA80803190B2B33
:100608000310A40DA50DA60DA70DA803012B230803
:100618000319192BA409A509A609A709A40A0319EE
:10062800A50A0319A60A0319A70A2708F600260827
:10063800F5002508F4002408F30008007308A0005A
:100648007408A1007508A2000800831203138C1E09
:100658003D2B7908443E84001A0883138000F90A68
:100668000319FA0A7908053A7A04031D3D2BF901A2
:10067800FA010B1D4F2BC90A0319CA0A4908FA3A8D
:100688004A04031D4F2BC901CA010F08D1000E08E7
:10069800D0008E018F0107300B1181008C12720877
:1006A8008A0071088400700E8300FE0E7E0E090019
:1006B800FF1B662B83137F1883170008840A03190E
:1006C800FF0A080003308A000408840A82070034FD
:1006D800013400340A34003464340034E834033418
:1006E80010342734563465346C346F3463346934C9
:1006F800743479343A3420340034203420340034CB
:100708002534643400347508FF00740884000A1224
:100718008A115C230A128A11003803190800750827
:10072800FF00740884000A128A115C230A128A11D5
:10073800A3230A128A11F40A0319F50A872BF30076
:100748000C1EA42B730899000800F901FA01C401D2
:10075800C501C601C701C801C901CA01CB01CC0145
:10076800CD01CE01CF01D001D10183010A128A1136
:100778003A2A023083169A00083099001812181580
:1007880003178715831203131816181398170800F0
:10079800023083169A0008309900181218150317AA
:0E07A80087150313981618138312981708006C
:02400E00C2E30B
:00000001FF
