:060000000A128A11122809
:10000800FE00030E83120313A6000408A7000A08C3
:10001800A8007F08A9000A128A1198290A128A11D1
:10002800EE2A031388118810081108128812081381
:10003800881383120330881188100811B1008A30A0
:10004800B0005630AF00AF0B2728B00B2728B10BF4
:1000580027282E2890210A128A11D3200A128A11E1
:100068000230B1004530B000A930AF00AF0B3A28DC
:10007800B00B3A28B10B3A28412890210A128A116C
:10008800D3200A128A110230B1004530B000A930DD
:10009800AF00AF0B4D28B00B4D28B10B4D2854289D
:1000A80032309521AA000030D3200A128A11033079
:1000B800B1008A30B0005630AF00AF0B6128B00BEA
:1000C8006128B10B6128682803309521B1008A3076
:1000D800B0005630AF00AF0B6F28B00B6F28B10BD4
:1000E8006F28762803309521B1008A30B000563049
:1000F800AF00AF0B7D28B00B7D28B10B7D2884287D
:1001080062210A128A110038031D84282830AA00A7
:100118000030D3200A128A1162210A128A1100388B
:10012800031D90280830AA000030D3200A128A1133
:1001380062210A128A110038031D9C280C30AA007B
:100148000030D3200A128A1162210A128A1100385B
:10015800031DA8280030AA01AA0AD3200A128A116E
:1001680062210A128A110038031DB4280430AA003B
:100178000030D3200A128A1162210A128A1100382B
:10018800031DC0280030AA01AA0AD3200A128A1126
:1001980062210A128A11003803190800CC28AD0020
:1001A80083160812881208138813831288102D08E2
:1001B800031D88142130AB00AB0BE02895212130BA
:1001C8000811AB00AB0BE628952188112A08AE0070
:1001D8002E0E0139AB002B0C031CF52895210816AF
:1001E800F728952108122E0EAB002B0C0139AC0014
:1001F8002C0C031C022995218816042995218812A4
:100208002E0E89210A128A11031C0D29952108171F
:100218000F29952108132E0D2E0D0139AB002B0C3B
:10022800031C1929952188171B299521881321302A
:10023800AB00AB0B1D29952121308815AB00AB0B0A
:100248002329952188112E080139AB002B0C031C9A
:100258003029952108163229952108122E0C0139CA
:10026800AB002B0C031C3B29952188163D299521B1
:1002780088122E0CAB002B0C0139AC002C0C031C83
:100288004829952108174A29952108132E0C8921F8
:100298000A128A11031C532995218817552995217B
:1002A80088132130AB00AB0B5729952121308815D5
:1002B800AB00AB0B5D299521881108008316031349
:1002C8000816881608178817831221300815881011
:1002D800AA00AA0B6D29952121308815AA00AA0B1E
:1002E800732900309521881B0130AB00213088111B
:1002F800AA00AA0B7D29952121308815AA00AA0BEE
:100308008329952188112B080800AB00AB0C2B0C16
:100318000139AC002C0C0800303083120313AA00FA
:1003280000348312031308000B1DC9298030F8011B
:10033800F9003F30FA003208FB003308FC003408AB
:10034800FD00D7210A128A117808B2007908B30093
:100358007A08B400423A031DB72948303306031D12
:10036800B729003032060319091043303406031D3B
:10037800C3297A303306031DC32900303206031D12
:10038800C9290914B201B301B401063081000B1167
:100398002908FF0028088A0027088400260E830001
:1003A800FE0E7E0E09007808A0007908A1007A08E0
:1003B800A2000310210D220DA5007B08A0007C08D7
:1003C800A1007D08A2000310210D220DA40025081C
:1003D8000319FA292408250224080318022AA00070
:1003E8002508A00219302002031C012A7B08F80006
:1003F8007C08F9007D08FA000800240803190800A1
:10040800250824020318102A2508A0002408A002A1
:1004180019302002031808000630A300FA1BA3179E
:10042800FD1B2317F917FA01FC17FD012408250203
:100438000318372A0310FB0DFC0DFD0DA403240837
:1004480025060319322AA303230807390319322A78
:100458001E2A0310FA0CF90CF80CA50A2508240624
:100468000319532A2D2A250824020318532A031096
:10047800F80DF90DFA0DA5032408250603194F2ACE
:10048800A3032308073903194F2A3B2A0310FD0C3D
:10049800FC0CFB0CA40A25082406031D4A2AA31FEA
:1004A8005E2AFF30F806F906FA06F80A0319F90A6F
:1004B8000319FA0A231F692AFF30FB06FC06FD060A
:1004C800FB0A0319FC0A0319FD0AA3017808FB07B4
:1004D800790803110318790A031DFC077A08031128
:1004E80003187A0A031DFD07FD1F852AFF30FB0646
:1004F800FC06FD06FB0A0319FC0A0319FD0AA30101
:10050800A30A7B08F0007C08F1007D08F2002508AA
:10051800F3002308F40097227008F8007108F90026
:100528007208FA000800730803199F2A72087104F8
:100538007004031DA82AF001F101F2010800F30A72
:100548000310F20CF10CF00CFE3072050319B72AF7
:10055800A32AF30AF00A0319F10A0319F20A03108D
:10056800F20CF10CF00CFF3072050319C12AAD2A08
:10057800F3030310F00DF10DF20DF11FBC2A731CEB
:10058800F1130310F30C7308F700F601F501750871
:10059800F0047608F1047708F2047408031DF217D2
:1005A800080083160317890188010A128A11152089
:1005B8000A128A118316051688010630091081125D
:1005C8008111011181100114831281008B160B1106
:1005D8008B17ED2AB201B301B40183010A128A1103
:0205E800D52A12
:02400E00C2E30B
:00000001FF
