:060000000A128A11122809
:10000800FE00030E83120313A6000408A7000A08C3
:10001800A8007F08A9000A128A11D52B0A128A1192
:100028003D2E0030AF01AF0AAE230A128A114C08E8
:10003800B7004B08B60032300F210A128A1103307C
:10004800AF01AF0AAE230A128A114E08B7004D0855
:10005800B60024300F210A128A110730AF01AF0A07
:10006800AE230A128A115208B7005108B6002B3085
:100078000F210A128A110B30AF01AF0AAE230A1200
:100088008A115008B7004F08B6001C300F210A1219
:100098008A110130AA01AA0AE62A031388118810D6
:1000A8000811081288120813881383120330881164
:1000B80088100811B1008A30B0005630AF00AF0B7D
:1000C8006328B00B6328B10B63286A28CD230A1272
:1000D8008A11E6220A128A110230B1004530B000B6
:1000E800A930AF00AF0B7628B00B7628B10B762875
:1000F8007D28CD230A128A11E6220A128A110230BB
:10010800B1004530B000A930AF00AF0B8928B00B63
:100118008928B10B892890283230D223AA000030D0
:10012800E6220A128A110330B1008A30B000563034
:10013800AF00AF0B9D28B00B9D28B10B9D28A428BC
:100148000330D223B1008A30B0005630AF00AF0B75
:10015800AB28B00BAB28B10BAB28B2280330D223A5
:10016800B1008A30B0005630AF00AF0BB928B00BE1
:10017800B928B10BB928C02875230A128A1100388A
:10018800031DC0282830AA000030E6220A128A116E
:1001980075230A128A110038031DCC280830AA00DA
:1001A8000030E6220A128A1175230A128A110038D1
:1001B800031DD8280C30AA000030E6220A128A1142
:1001C80075230A128A110038031DE4280030AA0199
:1001D800AA0AE6220A128A1175230A128A1100381D
:1001E800031DF0280430AA000030E6220A128A1102
:1001F80075230A128A110038031DFC280030AA0151
:10020800AA0AE6220A128A1175230A128A110038EC
:10021800031908000829C2003630BB004208C20A88
:1002280084000A128A1100260A128A11C500C5081C
:1002380003190800253A03192629450840220A12FD
:100248008A111229C301C401C1012C294115C20A0E
:10025800420884000A128A1100260A128A11303ACA
:1002680003192A293729420884000A128A1100260C
:100278000A128A1142220A128A11031C7029C30128
:10028800C4014408AB004308AA000A30AC00AD0121
:100298005022420884000A128A1100260A128A1182
:1002A8002A07B8000030031801302B07B9003808B6
:1002B800D03EC30039080318013EFF3EC400C20AFD
:1002C800420884000A128A1100260A128A11422260
:1002D8000A128A11031845294208C20A84000A1220
:1002E8008A1100260A128A11C500003A03193F2A0A
:1002F800643A031983290D3A0319832912293B0803
:10030800840083130008BD00840A0008BE00BB0AED
:10031800BB0ABE1F96290330C104BD09BE09BD0A28
:100328000319BE0AC501C50A0310450D013E840024
:100338000A128A1100260A128A11B8000A128A11B2
:1003480000260A128A11B9003E02031DAD29380899
:100358003D02031CB429C50A4508053A031D98291E
:10036800440843040319C029410803390319C02963
:10037800FF30C307031CC4034508B800B901B81B04
:10038800B9033908803ABA004408803A3A02031D92
:10039800CF29430838020318DE29831203134508BE
:1003A800B800B901B81BB903C3023908031CC40358
:1003B800C402E22983120313C301C401411DF929B0
:1003C800410803390319EC292D3040220A128A11F9
:1003D800440843040319112A303040220A128A11B2
:1003E800FF30C307031CC403EC2944084304031962
:1003F800092A203040220A128A11FF30C307031C41
:10040800C40344084304031DFD29410803390319A3
:10041800112A2D3040220A128A114508BC003B2AB5
:100428000A30B100B20103103C0D013E84000A12EB
:100438008A1100260A128A11AA000A128A110026B5
:100448000A128A11AB003E08AD003D08AC006922D3
:100458000A128A112B08B4002A08B30093220A1240
:100468008A113108303EC50040220A128A11BC03A5
:100478003C0F142A12290800B300B72AAB003A30FF
:10048800AA012B0203184E2A30302B02031C4E2AD5
:10049800AA01AA0A2A0C0800AE01AF012A1C5A2A8E
:1004A8002C08AE070318AF0A2D08AF070310AC0DD0
:1004B800AD0D0310AB0CAA0C2B082A04031D522AFD
:1004C8002F08AB002E08AA000800AE01AF012B08C8
:1004D8002A0403198E2AB001B00AAB1B772A03102D
:1004E800AA0DAB0D702A0310AE0DAF0D2B082D020F
:1004F800031D802A2A082C02031C8A2A2A08AC0217
:100508002B08031CAD03AD022E140310AB0CAA0C70
:10051800B00B772A2F08AB002E08AA000800320873
:1005280031040319B22AB501B50AB21B9F2A031078
:10053800B10DB20D982A32083402031DA52A3108DC
:100548003302031CAE2A3108B3023208031CB40379
:10055800B4020310B20CB10CB50B9F2A3408B200D8
:100568003308B1000800B200DD2A0030AA01AA0A47
:10057800E6220A128A1175230A128A110038031911
:100588000800BF2A0030AF01AF0AAE2B3208A02303
:100598000A128A11031C08003208AA000130E62258
:1005A8000A128A1175230A128A11003803190800E1
:1005B800D62A32080A3A0319C62A063A0319B92A6A
:1005C800CA2A0800AD008316081288120813881377
:1005D800831288102D08031D88142130AB00AB0B43
:1005E800F32AD22321300811AB00AB0BF92AD2230E
:1005F80088112A08AE002E0E0139AB002B0C031C03
:10060800082BD22308160A2BD22308122E0EAB0071
:100618002B0C0139AC002C0C031C152BD22388168B
:10062800172BD22388122E0EC6230A128A11031CF6
:10063800202BD2230817222BD22308132E0D2E0D80
:100648000139AB002B0C031C2C2BD22388172E2B23
:10065800D22388132130AB00AB0B302BD2232130AF
:100668008815AB00AB0B362BD22388112E08013925
:10067800AB002B0C031C432BD2230816452BD2238B
:1006880008122E0C0139AB002B0C031C4E2BD22365
:100698008816502BD22388122E0CAB002B0C013954
:1006A800AC002C0C031C5B2BD22308175D2BD22328
:1006B80008132E0CC6230A128A11031C662BD22398
:1006C8008817682BD22388132130AB00AB0B6A2B19
:1006D800D22321308815AB00AB0B702BD2238811A5
:1006E800080083160313081688160817881783123C
:1006F800213008158810AA00AA0B802B8312031337
:1007080021308815AA00AA0B872B00308312031307
:10071800881B0130AB0021308811AA00AA0B922B4C
:100728008312031321308815AA00AA0B992B831270
:10073800031388112B080800AB007F30AA012B0295
:100748000318AC2B20302B02031CAC2BAA01AA0ADD
:100758002A0C0800B0002F080319B52B4030B1004F
:10076800B62BB1013008B10731088038AA00003033
:10077800E6220A128A1175230A128A11003803190F
:100788000800BF2BAB00AB0C2B0C0139AC002C0CB8
:100798000800303083120313AA00003483120313B5
:1007A80008000B100618DE2B061CD82B061CDE2BA7
:1007B800D301D30A8618E62B861CE02B861CE62B71
:1007C8000230D300F6308F003C308E000C1C122C07
:1007D8008030F801F9003F30FA004808FB0049086A
:1007E800FC004A08FD001D240A128A117808C80076
:1007F8007908C9007A08CA00403A031D092C00305C
:100808004906031D092C00304806031D112CC80198
:10081800C901CA01CF0A0319D00A0C102908FF0020
:1008280028088A0027088400260E8300FE0E7E0E04
:1008380009007808A0007908A1007A08A20003102E
:10084800210D220DA5007B08A0007C08A1007D08D1
:10085800A2000310210D220DA40025080319402C25
:100868002408250224080318482CA0002508A00203
:1008780019302002031C472C7B08F8007C08F9007B
:100888007D08FA0008002408031908002508240236
:100898000318562C2508A0002408A00219302002AD
:1008A800031808000630A300FA1BA317FD1B231723
:1008B800F917FA01FC17FD012408250203187D2CFD
:1008C8000310FB0DFC0DFD0DA403240825060319D8
:1008D800782CA303230807390319782C642C0310F8
:1008E800FA0CF90CF80CA50A250824060319992C0A
:1008F800732C250824020318992C0310F80DF90D00
:10090800FA0DA503240825060319952CA30323082B
:1009180007390319952C812C0310FD0CFC0CFB0CDA
:10092800A40A25082406031D902CA31FA42CFF301D
:10093800F806F906FA06F80A0319F90A0319FA0A71
:10094800231FAF2CFF30FB06FC06FD06FB0A03192C
:10095800FC0A0319FD0AA3017808FB0779080311AB
:100968000318790A031DFC077A08031103187A0A89
:10097800031DFD07FD1FCB2CFF30FB06FC06FD0603
:10098800FB0A0319FC0A0319FD0AA301A30A7B0841
:10099800F0007C08F1007D08F2002508F300230828
:1009A800F400DD247008F8007108F9007208FA00F4
:1009B800080073080319E52C720871047004031DFC
:1009C800EE2CF001F101F2010800F30A0310F20C19
:1009D800F10CF00CFE3072050319FD2CE92CF30A1A
:1009E800F00A0319F10A0319F20A0310F20CF10CC8
:1009F800F00CFF3072050319072DF32CF3030310D5
:100A0800F00DF10DF20DF11F022D731CF1130310FF
:100A1800F30C7308F700F601F5017508F004760881
:100A2800F1047708F2047408031DF217080083160E
:100A38000317890188010A128A1151200A128A11A2
:100A480083160516880109100614051403170814DF
:100A5800831203139F171F1383169F121F128312EB
:100A68009F121F129F111F1183169F1783120330A5
:100A78001F1483169500413081138B178B150B10AB
:100A88008312C700EE30C600C60B482DC70B482D91
:100A9800640083120313F63010139010101590128F
:100AA800101210148F003C308E0083160C14831221
:100AB80000300C100B178B17AF010A128A11AE23E6
:100AC8000A128A110B300A128A110F210A128A118E
:100AD800530B712D530303196E2D5308023A031D4E
:100AE800D308031D6C2D0A128A1115200A128A11C7
:100AF8005008803AFF0083307F02031D852DE830BF
:100B08004F02031CDB2D83120313CF01D001D10A3E
:100B18000319D20A0A128A1115200A128A115208D8
:100B2800803AFF0080307F02031D9C2D3C3051022B
:100B3800031CDB2D83120313D101D201CD0A031943
:100B4800CE0A0A128A1115200A128A114E08803A12
:100B5800FF0080307F02031DB32D3C304D02031C83
:100B6800DB2D83120313CD01CE01CB0A0319CC0A66
:100B78000A128A1115200A128A114C08803AFF00BD
:100B880080307F02031DCA2D3C304B02031CDB2D35
:100B980083120313CF01D001D101D201CD01CE01BF
:100BA800CB01CC010A128A1115200A128A1183126C
:100BB80003130130AA01AA0A0A128A11E6220A12AC
:040BC8008A116C2DF5
:100C000006308A000408840A820700340134003464
:100C10000A34003464340034E834033410342734A4
:100C20004E3467347534793465346E34203450343E
:100C30006834753463342034443475346E34673426
:100C400000343A3425343034333464346D347334FE
:100C500000343A3425343034323464346D34003462
:100C60003A34253430343234643473340034253427
:100C700030343234643468340034C801C901CA01E4
:100C8000CB01CC01CD01CE01CF01D001D101D201E8
:0A0C9000D30183010A128A111B2D03
:02400E00C2E30B
:00000001FF
