:060000000A128A110E280D
:10000800FE00030E83120313A6000A08A7000A16AF
:100018008A11D42C0A168A119A2A8030E0066108BF
:10002800D2006208D3006308D4005E08D5005F08D8
:10003800D6006008D70027205208DE005308DF00EA
:100048005408E00008005208D8005308D9005408A2
:10005800DA000310590D5A0DDD005508D80056086E
:10006800D9005708DA000310590D5A0DDC005D0855
:1000780003194A285C085D025C0803185228D80056
:100088005D08D80219305802031C51285508D200BF
:100098005608D3005708D40008005C080319080064
:1000A8005D085C02031860285D08D8005C08D80267
:1000B80019305802031808000630DB00D41BDB1780
:1000C800D71B5B17D317D401D617D7015C085D027D
:1000D800031887280310D50DD60DD70DDC035C084F
:1000E8005D0603198228DB035B0807390319822898
:1000F8006E280310D40CD30CD20CDD0A5D085C0604
:100108000319A3287D285D085C020318A32803109F
:10011800D20DD30DD40DDD035C085D0603199F28AD
:10012800DB035B08073903199F288B280310D70CBA
:10013800D60CD50CDC0A5D085C06031D9A28DB1F6B
:10014800AE28FF30D206D306D406D20A0319D30A42
:100158000319D40A5B1FB928FF30D506D606D7067F
:10016800D50A0319D60A0319D70ADB015208D5079D
:10017800530803110318530A031DD6075408031123
:100188000318540A031DD707D71FD528FF30D506F3
:10019800D606D706D50A0319D60A0319D70ADB01EA
:1001A800DB0A5508A8005608A9005708AA005D08E8
:1001B800AB005B08AC000A128A15EB232808D200B2
:1001C8002908D3002A08D400080083161812181525
:1001D80003170230871503139A0008309900831219
:1001E80018161813981783168C1683128C120B176F
:0401F8008B17080059
:10020000FF0001308A007F08820705290A168A113B
:100210000C2EC500831603132708A70A84000A16AC
:100220008A1100200A128A11C400C4080319212E61
:100230004408253A03193B294508013E84008313ED
:1002400080080319312944088312BE00831645082B
:10025000013E840000080A128A1100210A128A1144
:100260000A294508840000088400440880004508E5
:100270008400800A0A29BD01BE01B901BA014229E0
:100280003915A70A270884000A168A1100200A12C5
:100290008A11303A031940294D29270884000A168B
:1002A0008A1100200A128A110A168A11B7220A122C
:1002B0008A11031C98298316BD01BE0183163E08CE
:1002C0008312A90083163D088312A8000A30AA00F1
:1002D000AB010A168A11D8220A128A11831627083E
:1002E00084000A168A1100200A128A118312280734
:1002F0008316A900003003180130831229078316E2
:10030000AA002908D03EBD002A080318013EFF3E7E
:10031000BE00A70A270884000A168A1100200A12C4
:100320008A110A168A11B7220A128A1103185E2945
:100330008316270884000A168A1100200A128A11DF
:100340002E3A031DE2293A17A70AC201C301270862
:1003500084000A168A1100200A128A110A168A11CC
:10036000B7220A128A11031CEB2983164308831251
:10037000A900831642088312A8000A30AA00AB0124
:100380000A168A11D8220A128A11831627088400B5
:100390000A168A1100200A128A118312280783166E
:1003A000A900003003180130831229078316AA0020
:1003B0002908D03EC2002A080318013EFF3EC300B0
:1003C000A70AA729C201C3013A16EB293A15FF294A
:1003D000C030B904FF2983162708A70A84000A162B
:1003E0008A1100200A128A11C400003A0319212E32
:1003F000663A0319E629133A0319E8290A2907304E
:10040000A9013A05AA0029040319242E3A1E0B2A31
:100410000630C200C3012808840083130008A90025
:1004200003308007290884000008BF00840A000800
:10043000C000840A0008C1003F088312A800831688
:1004400040088312A900831641088312AA00AB0159
:10045000AC01AD010A128A1502200A128A11031892
:100460004F2A83163F088312A80083164008831280
:10047000A900831641088312AA000A168A117C2259
:100480000A128A1128088316BF00831229088316CE
:10049000C00083122A088316C1000330B9048316F2
:1004A000BB01BC01410840043F040319222BBF30AB
:1004B00084000008A900840A0008AA00840A000831
:1004C000AB00840A0008AC000F300310AC0CAB0C7E
:1004D000AA0CA90CFF3E031D652A2A08BC002908A6
:1004E000BB008230BC01BB07031CBC03FF30BB0751
:1004F000031CBC0303308312A800A90183163C0827
:100500008312AB0083163B088312AA000A168A11D5
:10051000D8220A128A1129088316BC0083122808DF
:100520008316BB000A308312AE00AF0183163C086D
:100530008312B10083163B088312B0000A128A1599
:10054000DF220A128A112F088316BC0083122E089C
:100550008316BB00BC1FB02AFF30BB07031CBC03C3
:100560003B03FF3A0A128A154D210A128A115208DA
:100570008316B200831253088316B3008312540803
:100580008316B4003F088312C30083164008831209
:10059000C400831641088312C500831632088312F3
:1005A000C600831633088312C700831634088312EB
:1005B000C8000A128A1561230A128A114308831699
:1005C000B200831244088316B300831245088316D1
:1005D000B40032088312A800831633088312A900DE
:1005E000831634088312AA008030AB01AC003F3080
:1005F000AD000A128A1502200A128A110318062B6E
:10060000FF308316BB07031CBC03222B8316320862
:100610008312A800831633088312A90083163408B6
:100620008312AA002030AB01AC004130AD000A12A9
:100630008A1502200A128A11031C222B8316BB0A78
:100640000319BC0A83164308803AFF0080307F02FA
:10065000031D2C2B0D3042020318582B8316031355
:1006600042080A128A112A260A128A115E08D2004A
:100670005F08D3006008D40083163F088312D500BA
:10068000831640088312D600831641088312D700D0
:100690000A128A1127200A128A1152088316BF00F3
:1006A000831253088316C000831254088316C100B6
:1006B000831603133C08803AFF0080307F02031D3D
:1006C000632B0A303B0203188E2B83160313410859
:1006D00040043F040319F72B3F088312B60083162A
:1006E00040088312B700831641088312B8000A1627
:1006F0008A112F230A128A11390838043704360464
:10070000031DF72B83163C08803AFF0080307F02E0
:10071000031D8C2B02303B02031CF72B83160313A3
:1007200032088312A800831633088312A9008316A7
:1007300034088312AA007030AB008930AC0040301E
:10074000AD000A128A1502200A128A110318AA2B78
:10075000F730AB2BF8308316BB07031CBC033B08F8
:100760000A128A154D210A128A1152088316B20004
:10077000831253088316B300831254088316B400FF
:100780003F088312A800831640088312A90083162D
:1007900041088312AA00831632088312AB00831625
:1007A00033088312AC00831634088312AD000A1696
:1007B0008A1191230A128A112B088316B100831221
:1007C0002A088316B000831229088316AF0083120B
:1007D00028088316AE003108B8003008B7002F088B
:1007E000B6002E08B500BF01C001C101502C831610
:1007F00003133F088312B600831640088312B70024
:10080000831641088312B8000A168A112F230A1290
:100810008A1139088316B800831238088316B70086
:10082000831237088316B600831236088316B50084
:1008300038088312B300831637088312B200831678
:1008400036088312B100831635088312B0000A12ED
:100850008A1500210A128A113008DE003108DF00F3
:100860003208E00083163F088312E1008316400837
:100870008312E200831641088312E3000A128A11F0
:1008800011200A128A115E088316BF0083125F08C6
:100890008316C000831260088316C100BB01BC012F
:1008A000C401C40A4408A9000310A90D0310290DAE
:1008B0004F3E84000A168A1100200A128A11AA00EB
:1008C0000A168A1100200A128A11AB000A168A1130
:1008D00000200A128A11AC000A168A1100200A129E
:1008E0008A11AD002D083802031D802C2C08370218
:1008F000031D802C2B083602031D802C2A0835028C
:10090000031C872CC40A44080A3A031D522C4208CF
:100910004407A90043080318430AC41BFF3EAA006A
:100920003B082907AB003C0803183C0A2A07AC0027
:100930002B08BD022C08031CBE03BE024308420460
:100940000319A62CFF30BD07031CBE033908033969
:100950000319AE2CFF30BD07031CBE033919D72C79
:10096000092D831603134508013E84008313800874
:100970000319C82C30308312BE0083164508013E8F
:10098000840000080A128A1100210A128A11D12C4F
:100990004508840000088400303080004508840049
:1009A000800AFF3083160313BD07031CBE033E08F5
:1009B000803AFF0080307F02031DE02C01303D02B1
:1009C000031CEA2DB12C831603134508013E840055
:1009D000831380080319FA2C20308312BE0083167B
:1009E0004508013E840000080A128A1100210A12FB
:1009F0008A11032D450884000008840020308000FF
:100A000045088400800AFF3083160313BD07031CCA
:100A1000BE033E08803AFF0080307F02031D122D86
:100A200001303D020318E32C831603133908033900
:100A30000319EA2D4508013E840083138008031939
:100A40002F2D2D308312BE0083164508013E8400F1
:100A500000080A128A1100210A128A11EA2D45089B
:100A60008400000884002D30E62D4508013E8400F6
:100A70000A30831380080319942D8312B500B60140
:100A8000B701B80183164408A9000310A90D03108B
:100A9000290D4F3E84000A168A1100200A128A117D
:100AA0008312A8000A168A1100200A128A11A900CE
:100AB0000A168A1100200A128A11AA000A168A113F
:100AC00000200A128A11AB00831638088312AF0087
:100AD000831637088312AE00831636088312AD00E2
:100AE000831635088312AC000A128A11A0270A1255
:100AF0008A112B08BC002A08BB002908BA00280864
:100B0000B9000A168A11F1220A128A113508303EFC
:100B1000BE0083164508013E840000080A128A11AF
:100B200000210A128A11EA2D8312B500B601B7011D
:100B3000B80183164408A9000310A90D0310290D5C
:100B40004F3E84000A168A1100200A128A1183126D
:100B5000A8000A168A1100200A128A11A9000A1692
:100B60008A1100200A128A11AA000A168A1100208E
:100B70000A128A11AB00831638088312AF0083165D
:100B800037088312AE00831636088312AD00831631
:100B900035088312AC000A128A11A0270A128A11A2
:100BA0002B08BC002A08BB002908BA002808B90095
:100BB0000A168A11F1220A128A113508303E83166C
:100BC000AA0045088400000884002A08800045081F
:100BD0008400800A83160313C403440F352D3C0898
:100BE000803AFF0080307F02031DF82D01303B0268
:100BF000031C272E831603134508013E840083132C
:100C000080080319112E30308312BE008316450868
:100C1000013E840000080A128A1100210A128A117A
:100C20001A2E4508840000088400303080004508F2
:100C30008400800AFF3083160313BB07031CBC0328
:100C4000EF2D0A128A15FA2F0A128A15172E0A1288
:100C50008A15782CA6006E302602031CC22E0330A3
:100C60008312B1000A30AD006430A8008316260854
:100C70005B270A128A113F270A128A15DC230A12FF
:100C80008A111C3E84000A168A1100200A128A1159
:100C9000C3000A168A1100200A128A11C4000A161B
:100CA0008A1100200A128A11C5000330B100643095
:100CB000AD00831626083F270A128A15DC230A1284
:100CC0008A11373E84000A168A1100200A128A11FE
:100CD000C6000A168A1100200A128A11C7000A16D5
:100CE0008A1100200A128A11C8000A128A1561238B
:100CF0000A128A1186270A128A11033099270A12CA
:100D00008A115B270A128A15DC230A128A11013E16
:100D100084000A168A1100200A128A11C3000A16DA
:100D20008A1100200A128A11C4000A168A110020B2
:100D30000A128A1178270A128A1561230A128A1167
:100D400043088316A000831244088316A10083126F
:100D500045088316A20083123F30C301C401C500B9
:100D6000831620088312C600831621088312C70049
:100D7000831622088312C8000A128A1561230A12F8
:100D80008A11922F0B302602031C172F033099274C
:100D90000A128A115B270A128A15DC230A128A11A9
:100DA000013E84000A168A1100200A128A11C3002B
:100DB0000A168A1100200A128A11C4000A168A1122
:100DC00000200A128A11C5000330B1000A30AD00BC
:100DD000831626083F270A128A15DC230A128A1175
:100DE0001C3E84000A168A1100200A128A11C600CD
:100DF0000A168A1100200A128A11C7000A168A11DF
:100E000000200A128A11C8000A128A1561230A12E8
:100E10008A1186270A128A1183123F30C301C40146
:100E200078270A128A1561230A128A11922F8312D7
:100E30003F30C301C401C5000330B100831626084A
:100E40000A128A15DC230A128A11013E84000A164E
:100E50008A1100200A128A11C6000A168A1100207F
:100E60000A128A11C7000A168A1100200A128A1172
:100E7000C8000A128A1561230A128A11922F83125E
:100E8000AE00B0012D080319592FAF01AF0AAD1BF9
:100E90004C2F0310AD0D462F0310B00D2D082E0260
:100EA000031C562F2D08AE0230140310AD0CAF0BEF
:100EB0004C2F300808008312AA000830AB00AC01A8
:100EC0002A08A90007300310A90CFF3E0310031DD8
:100ED000642F2C0D2904AC000310AA0D28082C0245
:100EE000031C742F2808AC02AB0B602F2C080800E1
:100EF000C500831623088312C600831624088312B4
:100F0000C700831625088312C8000800430883160B
:100F1000A300831244088316A40083124508831695
:100F2000A50008004308DE004408DF004508E00093
:100F300008008312B1000A30A800831626080800B2
:100F4000B001B101B201B3012B082A04290428041D
:100F50000319DF2FB401B40AAB1BB42F0310A80D83
:100F6000A90DAA0DAB0DAB2F0310B00DB10DB20D35
:100F7000B30D2B082F02031DC72F2A082E02031DB5
:100F8000C72F29082D02031DC72F28082C02031C78
:100F9000D92F2808AC022908031C290FAD022A0802
:100FA000031C2A0FAE022B08031C2B0FAF023014B8
:100FB0000310AB0CAA0CA90CA80CB40BB42F33086B
:100FC000AB003208AA003108A9003008A8000800C8
:100FD0008312A90029088400800803190800290841
:100FE00084000008F7270A128A11A90AEA2FA8002C
:0A0FF0000C1EF82F280899000800D5
:10100400AA1F11282808003CA8002908031C290F3E
:10101400003CA9002A08031C2A0F803CAA00AD1F2B
:1010240020282B08003CAB002C08031C2C0F003C90
:10103400AC002D08031C2D0F803CAD008030AA06A7
:10104400AD062D082A02031D08002C082902031DE1
:1010540008002B0828020800831603178901880159
:101064000A168A1156260A128A158316051688014D
:10107400091007118312921012109101F93083168E
:10108400920083120C30121597007D309500831660
:101094000730811281110111811401108312810022
:1010A4008B160B118B17101390141015901210122D
:1010B40010148F018E010A168A11A8220A128A15A9
:1010C4000A128A11E9200A128A158316510883121A
:1010D400B300831650088312B20083164F0883129C
:1010E400B10083164E088312B0000A128A151E211D
:1010F4000A128A153008C6003108C7003208C80031
:101104000930C3007930C4003B30C5000A128A1587
:1011140061230A128A154308DE004408DF004508EB
:10112400E000831651088312B3008316500883121B
:10113400B20083164F088312B10083164E0883123F
:10114400B0000A128A151E210A128A153008E1001D
:101154003108E2003208E3000A128A1111200A124F
:101164008A155E088316D20083125F088316D300A3
:10117400831260088316D40083120030AD010A166E
:101184008A110F260A128A1583165108C9005008BD
:10119400C8004F08C7004E08C60077300A168A11E7
:1011A4008C220A128A1583120030AD01AD0A0A1688
:1011B4008A110F260A128A1583165208C60053088C
:1011C400C7005408C8008C300A168A118C220A12EF
:1011D4008A158230C6005208C7005308C800540854
:1011E400C900D5300A168A11C6220A128A15D530CA
:1011F4000A128A11E8270A128A1567288E30B40069
:10120400FF30330503190D290310B30CB20CB10CD4
:10121400B00CB40A02293008A8003108A900320829
:10122400AA003408AB00AC01EB232808B00029085D
:10123400B1002A08B20008008E30B501B400B31F13
:101244003029B009B109B209B309B00A0319B10AC6
:101254000319B20A0319B30AB501B50AFF303305FD
:1012640003193B290310B30CB20CB10CB00CB40A33
:1012740030293008A8003108A9003208AA0034082F
:10128400AB003508AC00EB232808B0002908B100F6
:101294002A08B20008008312DC00DC1F192ADC09CA
:1012A400DC0A5C08803A123E031CBD290A304D2436
:1012B4000A128A1524230A128A152908B10028085B
:1012C400B000DF220A128A1558241C3E84000A1634
:1012D4008A1100200A128A15C3000A168A110020F6
:1012E4000A128A15C4000A168A1100200A128A15E5
:1012F40060240A128A15B01BB103DF220A128A1570
:101304003124373E84000A168A1100200A128A15F5
:10131400C6000A168A1100200A128A15C7000A1686
:101324008A1100200A128A15C80061230A128A153C
:1013340040240A128A15AA1BAB0324230A128A1515
:101344002924013E84000A168A1100200A128A15F3
:10135400C3000A168A1100200A128A15C4000A164C
:101364008A1100200A128A1568240A128A15612338
:101374000A128A15392C5C08803A753E031C022A2D
:101384000A30A800A9015C08AA00AB01AA1BAB03A0
:1013940024230A128A152924013E84000A168A117C
:1013A40000200A128A15C3000A168A1100200A12A4
:1013B4008A15C4000A168A1100200A128A1570249C
:1013C4000A128A15B01BB103DF220A128A153124CE
:1013D4001C3E84000A168A1100200A128A15C600CF
:1013E4000A168A1100200A128A15C7000A168A11E1
:1013F40000200A128A15C80061230A128A15392CA2
:101404000330B1005C08DC23013E84000A168A1113
:1014140000200A128A15D2000A168A1100200A1224
:101424008A15D3000A168A110020D40008005C082B
:10143400803A123E031C832A0A304D240A128A156C
:1014440024230A128A152908B1002808B000DF22D3
:101454000A128A155824433E84000A168A11002071
:101464000A128A15C3000A168A1100200A128A1564
:10147400C4000A168A1100200A128A1560240A126E
:101484008A15B01BB103DF220A128A1531245E3E8D
:1014940084000A168A1100200A128A15C6000A1648
:1014A4008A1100200A128A15C7000A168A11002020
:1014B4000A128A15C80061230A128A1540240A12E6
:1014C4008A15AA1BAB0324230A128A152924283E51
:1014D40084000A168A1100200A128A15C3000A160B
:1014E4008A1100200A128A15C4000A168A110020E3
:1014F4000A128A1568240A128A1561230A128A15A7
:10150400392C5C08803A753E031CC82A0A30A800AE
:10151400A9015C08AA00AB01AA1BAB0324230A128D
:101524008A152924283E84000A168A1100200A12EA
:101534008A15C3000A168A1100200A128A15C400EB
:101544000A168A1100200A128A1570240A128A15B2
:10155400B01BB103DF220A128A153124433E8400F2
:101564000A168A1100200A128A15C6000A168A1160
:1015740000200A128A15C7000A168A1100200A12CE
:101584008A15C80061230A128A15392C0330B10068
:101594005C08DC23283E84000A168A1100200A1203
:1015A4008A15D2000A168A1100200A128A15D3005D
:1015B4000A168A110020D4000800B301AF1FE92ADB
:1015C400AE09AF09AE0A0319AF0AB301B30AB11FDA
:1015D400F22AB009B109B00A0319B10A0130B306FD
:1015E400B401B5012F082E040319172BB201B20A56
:1015F400AF1B002B0310AE0DAF0DF92A0310B40D71
:10160400B50D2F083102031D092B2E083002031CCF
:10161400132B2E08B0022F08031CB103B10234149B
:101624000310AF0CAE0CB20B002B330803191F2BA5
:10163400B409B509B40A0319B50A3508AF0034086A
:10164400AE000800AD01AB1F2E2BAA09AB09AA0AF4
:101654000319AB0AAD01AD0AA91F352BA809A909C5
:10166400A80A0319A90A290828040319542BAC0150
:10167400AC0AA91B412B0310A80DA90D3A2B29086C
:101684002B02031D472B28082A02031C502B280871
:10169400AA022908031CAB03AB020310A90CA80C73
:1016A400AC0B412B2D0803195C2BAA09AB09AA0A20
:1016B4000319AB0A2B08A9002A08A800080043084C
:1016C400C9004408CA004508CB0003104A0D4B0D5D
:1016D400CC00CC08031D722BC301C401C501080052
:1016E4004608C9004708CA004808CB0003104A0D41
:1016F4004B0DD100D108031D832BC301C401C501C7
:10170400080051087B3ECC074508D1004808D106A3
:101714008030D1050730C417C717C801CD01CE01E9
:10172400CF01D000431CA42B4608CD074708031162
:101734000318470A031DCE07480803110318480A73
:10174400031DCF070310C50CC40CC30C0310C60D36
:10175400C70DC80DD00B942B0930D000431CC02BEF
:101764004608CD07470803110318470A031DCE078F
:10177400480803110318480A031DCF070310C50CBA
:10178400C40CC30C0310CF0CCE0CCD0CD00BB02B5F
:101794004D08A8004E08A9004F08AA004C08AB0049
:1017A4005108AC00EB232808C3002908C4002A0808
:1017B400C50008008312B300B20131083318B20720
:1017C4000310B10D0310B30CB308031DDF2B320853
:1017D40008002B080319F32B2A0829042804031DE5
:1017E400FC2BA801A901AA010800AB0A0310AA0C4A
:1017F400A90CA80CFE302A0503190B2CF72BAB0AF5
:10180400A80A0319A90A0319AA0A0310AA0CA90C05
:10181400A80CFF302A050319152C012CAB03031067
:10182400A80DA90DAA0DA91F102C2B1CA913031078
:10183400AB0C2B08AF00AE01AD012D08A8042E0897
:10184400A9042F08AA042C08031DAA1708002808B5
:10185400D5002908D60055085507550708002E0855
:10186400D7002F08D8005708570757070800430820
:10187400D2004408D3004508D40008004308D90026
:101884004408DA004508DB000A30A800A9015C0816
:10189400AA00AB010800AE00AF015C08AA00AB01CE
:1018A400AA1BAB036430A800A90108002E08D500C8
:1018B4002F08D6005508550755070800C5006430A1
:1018C400AE00AF015C08B000B1010800C5005908C2
:1018D400C6005A08C7005B08C8000800C5000A30E3
:1018E400AE00AF015C08B000B10108008316031319
:1018F4004308803AFF0080307F02031D832C0930A7
:101904004202031C892C0830831603138C2C831683
:1019140003134208C400A900AA01A91BAA03C20216
:101924002A08031CC303C30244080319B72C45083F
:10193400013E8400831380080319AE2C2E308312D9
:10194400BE0083164508013E840000080A128A116D
:1019540000210A128A15B72C450884000008840067
:101964002E30800045088400800A8316031344083F
:101974000A128A154D210A128A155208C600530804
:10198400C7005408C80083163F088312C300831697
:1019940040088312C400831641088312C5000A124A
:1019A4008A1561230A128A154308B6004408B70051
:1019B4004508B8000A168A112F230A128A15390815
:1019C4008316B800831238088316B70083123708C9
:1019D4008316B60083123608E92D4508013E8400BB
:1019E4000A308313800803194E2D8312B500B60103
:1019F400B701B80183164408A9000310A90D031008
:101A0400290D4F3E84000A168A1100200A128A15F5
:101A14008312A8000A168A1100200A128A15A90046
:101A24000A168A1100200A128A15AA000A168A11B7
:101A340000200A128A15AB00831638088312AF00FF
:101A4400831637088312AE00831636088312AD005E
:101A5400831635088312AC000A128A11A0270A12D1
:101A64008A152B08BC002A08BB002908BA002808DC
:101A7400B9000A168A11F1220A128A153508303E75
:101A8400BE0083164508013E840000080A128A112C
:101A940000210A128A15A42D8312B500B601B701DC
:101AA400B80183164408A9000310A90D0310290DD9
:101AB4004F3E84000A168A1100200A128A158312E6
:101AC400A8000A168A1100200A128A15A9000A160B
:101AD4008A1100200A128A15AA000A168A11002007
:101AE4000A128A15AB00831638088312AF008316D6
:101AF40037088312AE00831636088312AD008316AE
:101B040035088312AC000A128A11A0270A128A151A
:101B14002B08BC002A08BB002908BA002808B90011
:101B24000A168A11F1220A128A153508303E8316E4
:101B3400AA0045088400000884002A08800045089B
:101B44008400800A831603134408A9000310A90D16
:101B54000310290D4F3E84000A168A1100200A1230
:101B64008A158312B5000A168A1100200A128A15F2
:101B7400B6000A168A1100200A128A15B7000A163E
:101B84008A1100200A128A15B800831638088312B5
:101B9400BC00831637088312BB00831636088312F1
:101BA400BA00831635088312B9000A168A11F12285
:101BB4000A128A1538088316B80083123708831668
:101BC400B700831236088316B600831235088316CD
:101BD400B500C403440FEF2C430842040319FD2F3E
:101BE4004508013E8400831380080319072E303012
:101BF4008312BE0083164508013E840000080A12C1
:101C04008A1100210A128A15102E45088400000842
:101C140084003030800045088400800AFF30831639
:101C24000313C207031CC303EE2D28088400831387
:101C34000008A90002308007290884000008AA00CF
:101C4400840A0008AB002A08B5002B08B600B701C7
:101C5400B80143084204031D372E380837043604FC
:101C640035040319C20A0319C30AC401C40A440887
:101C7400A9000310A90D0310290D4F3E84000A1674
:101C84008A1100200A128A15AA000A168A11002055
:101C94000A128A15AB000A168A1100200A128A1544
:101CA400AC000A168A1100200A128A15AD002D080C
:101CB4003802031D672E2C083702031D672E2B08DC
:101CC4003602031D672E2A083502031C6E2EC40A31
:101CD40044080A3A031D392E4408A900AA01A91B85
:101CE400AA032A08803AAB004308803A2B02031D5A
:101CF4007D2E420829020318842E831603134208FA
:101D0400C4009E2E831603134408A900AA01A91B2C
:101D1400AA034308803AAB002A08803A2B02031D29
:101D2400952E2908420203189E2E83160313440895
:101D3400C200C301C21BC303831603133E083D0440
:101D44000319AC2E390803390319AC2EFF30BD0733
:101D5400031CBE033A1FC72E4308803AA9003E085D
:101D6400803A2902031DB82E3D0842020318C32EEF
:101D7400831603134208BD024308031CBE03BE02BC
:101D8400C72E83160313BD01BE014408A900AA018E
:101D9400A91BAA032A08803AAB003E08803A2B020A
:101DA400031DD62E3D0829020318E52E83160313BE
:101DB4004408A900AA01A91BAA03BD022A08031CFE
:101DC400BE03BE02E92E83160313BD01BE01391DF5
:101DD400382F3908033903190D2F4508013E8400B3
:101DE400831380080319042F2D308312BE00831639
:101DF4004508013E840000080A128A1100210A12D3
:101E04008A150D2F45088400000884002D308000B9
:101E140045088400800A831603133E083D04031911
:101E2400862F4508013E8400831380080319282F58
:101E340030308312BE0083164508013E840000083A
:101E44000A128A1100210A128A15312F45088400CA
:101E5400000884003030800045088400800AFF3088
:101E640083160313BD07031CBE030F2F3E083D0456
:101E74000319642F4508013E840083138008031965
:101E8400512F20308312BE0083164508013E840082
:101E940000080A128A1100210A128A155A2F4508CD
:101EA4008400000884002030800045088400800AF3
:101EB400FF3083160313BD07031CBE033E083D0415
:101EC400031D3C2F390803390319862F4508013EA9
:101ED40084008313800803197D2F2D308312BE00E4
:101EE40083164508013E840000080A128A11002165
:101EF4000A128A15862F45088400000884002D30B4
:101F0400800045088400800AFF3083160313C2074B
:101F1400031CC303420A0319430A0319FD2F0A30A1
:101F24008312B500B601B701B80183164208A900AF
:101F34000310A90D0310290D4F3E84000A168A11BF
:101F440000200A128A158312A8000A168A1100209A
:101F54000A128A15A9000A168A1100200A128A1583
:101F6400AA000A168A1100200A128A15AB008316E9
:101F740038088312AF00831637088312AE00831625
:101F840036088312AD00831635088312AC000A129A
:101F94008A11A0270A128A152B08BC002A08BB0044
:101FA4002908BA002808B9000A168A11F1220A126F
:101FB4008A153508303E8316C4004508013E840066
:101FC400831380080319F42F44088312BE00831678
:101FD4004508013E840000080A128A1100210A12F1
:101FE4008A15862F45088400000884004408822F3F
:101FF400A701A80108000A128A110A2910308A00D0
:102004000408840A82070034003480343F34CD3419
:10201400CC343D34D73423343C34123483343A340E
:10202400B734D1343834C63427343734383486346A
:102034003534C034D6343334CC342B343234703465
:1020440089343034E734DB342E34E5343C341E3404
:102054004234A2340D34003480343F34003420340C
:1020640041340034C834423400347A344434403483
:102074001C3446345034C33447342434743449341F
:10208400973418344B34BC34BE344C346B346E3413
:102094004E340334153450347934AD346034F3346D
:1020A4004934713401340034003400340A340034C7
:1020B400003400346434003400340034E83403342D
:1020C400003400341034273400340034A03486340F
:1020D40001340034403442340F34003480349634B4
:1020E400983400340034E134F53405340034CA340F
:1020F4009A343B34783475346E3467343A3420344B
:102104002534303438347534003466343A34253464
:1021140033342E343234663420342034003466347C
:102124003A342034253433342E3432346634003493
:1024F8002A0829042804031908008030AA060800BD
:1025080064008001840A0406031900340406852A3D
:10251800CA000130CC01CD00C630CB004A08A70064
:10252800CB30A800CC300A128A110929CE30E40138
:10253800E501E60183138400DF300A168A1184223C
:1025480083010A128A152E288316181218150317E4
:102558000230871503139A0008309900981618134B
:102568008312981708008312A9003A30A80129029B
:102578000318C42A30302902031CC42AA801A80A57
:10258800280C0800CA00CC00C730CD01CB00460893
:10259800A700CB30A800CC300A128A1109214C08B8
:1025A8008400831380010800AC01AD01281CE22AD5
:1025B8002A08AC070318AD0A2B08AD070310AA0DAB
:1025C800AB0D0310A90CA80C29082804031DDA2A4E
:1025D8002D08A9002C08A80008003808370436047C
:1025E80035040319262BBD01BD0AB81B012B0310A6
:1025F800B50DB60DB70DB80DF82A38083C02031D05
:102608000F2B37083B02031D0F2B36083A02031D18
:102618000F2B35083902031C202B3508B902360860
:10262800031C360FBA023708031C370FBB023808E1
:10263800031C380FBC020310B80CB70CB60CB50C51
:10264800BD0B012B3C08B8003B08B7003A08B600A0
:102658003908B50008008A230A168A1103103B0DB1
:102668003C0DC200C208031D3E2BB601B701B801DC
:10267800B90108008A230A168A1117300310BC0C06
:10268800BB0CBA0CFF3E031D422B3A08BD00B7171E
:10269800B8013608BE003708BF003808C0008E30C1
:1026A800C101C202C21F652B4208803A8F3E031C3B
:1026B800392B0310C10CC00CBF0CBE0CC20F5D2B14
:1026C800732B183042020318392BC2080319732BD5
:1026D8000310BE0DBF0DC00DC10DC203692B3D080F
:1026E8000319812BBE09BF09C009C109BE0A031914
:1026F800BF0A0319C00A0319C10A4108B9004008F2
:10270800B8003F08B7003E08B60008003608BA000F
:102718003708BB003808BC0008002808AE002908A4
:10272800AF002A08B00003102F0D300DB600B60810
:10273800031DA32BA801A901AA01AB0108002B08BE
:10274800AE002C08AF002D08B00003102F0D300D7F
:10275800B500B50803199E2B7F30A917AA01AC173D
:10276800AD01B101B201B301B401B6029830350729
:10277800AE00B6021830B5000310B10DB20DB30D9E
:10278800B40D2D082A02031DCF2B2C082902031D86
:10279800CF2B2B082802031CDD2B2B08A8022C08A2
:1027A800031C2C0FA9022D08031C2D0AAA023114A0
:1027B8000310A80DA90DAA0DB50BC02BB61FF12B40
:1027C8003608803A973E031C9E2B0310B40CB30CBA
:1027D800B20CB10CB60FE92BFF2B183036020318D8
:1027E8009E2BB6080319FF2B0310B10DB20DB30DC4
:1027F800B40DB603F52B3408AB003308AA00320831
:10280800A9003108A80008002830840083130008B4
:1028180083120313AE00840A0008AF00840A00087C
:10282800B000840A0008B1000310300D310DBB0060
:10283800BB08031D242CA801A901AA01AB010800AB
:102848002B30C7240A168A110310300D310DBA0037
:10285800BA0803191F2C283084008030840A840A9F
:1028680080042830840A84002B30840A840A840A6D
:10287800800184008030840A840A80042B30840A12
:1028880084007F30840A840A840A8001B601B70173
:10289800B801B901BB02A0303A07AE00BB02203034
:1028A800BA002B300310B60DB70DB80DB90DC724FB
:1028B8000A168A11283084000008B200840A000829
:1028C800B300840A0008B400840A0008B50031087F
:1028D8003502031D792C30083402031D792C2F088A
:1028E8003302031D792C2E083202031C952C2B3041
:1028F800C7240A168A11283084002E088002840A08
:102908002F08031C2F0F8002840A3008031C300F85
:102918008002840A3108031C310A800203308402D1
:102928003614283084000310800D840A800D840A30
:10293800800D840A800DBA0B552CBB1FB02C3B08A8
:10294800803A9F3E031C1F2C0310B90CB80CB70C1F
:10295800B60CBB0FA82CBE2C20303B0203181F2C32
:10296800BB080319BE2C0310B60DB70DB80DB90D71
:10297800BB03B42C3908AB003808AA003708A900F3
:102988003608A800080084000008AE00840A000881
:10299800AF00840A0008B000840A0008B1000800EB
:1029A800073081000B1D072D8030F801F9003F30FA
:1029B800FA006408FB006508FC006608FD000E25A7
:1029C8000A168A117808E4007908E5007A08E60012
:1029D800453A031DF52C1C306506031DF52C4030C7
:1029E8006406031D062DE401E501E6010E088316C1
:1029F800CE0083120F088316CF00D001D1018312B5
:102A08008F018E010B1127088A00260E8300FE0E07
:102A18007E0E09007808A0007908A1007A08A200B3
:102A28000310210D220DA5007B08A0007C08A10041
:102A38007D08A2000310210D220DA400250803190A
:102A4800312D2408250224080318392DA000250853
:102A5800A00219302002031C382D7B08F8007C08DE
:102A6800F9007D08FA000800240803190800250861
:102A780024020318472D2508A0002408A0021930B5
:102A88002002031808000630A300FA1BA317FD1B39
:102A98002317F917FA01FC17FD012408250203186A
:102AA8006E2D0310FB0DFC0DFD0DA4032408250657
:102AB8000319692DA303230807390319692D552D17
:102AC8000310FA0CF90CF80CA50A250824060319BA
:102AD8008A2D642D2508240203188A2D0310F80D69
:102AE800F90DFA0DA503240825060319862DA3035D
:102AF800230807390319862D722D0310FD0CFC0CD1
:102B0800FB0CA40A25082406031D812DA31F952D5F
:102B1800FF30F806F906FA06F80A0319F90A031944
:102B2800FA0A231FA02DFF30FB06FC06FD06FB0A50
:102B38000319FC0A0319FD0AA3017808FB077908A1
:102B480003110318790A031DFC077A0803110318F7
:102B58007A0A031DFD07FD1FBC2DFF30FB06FC068E
:102B6800FD06FB0A0319FC0A0319FD0AA301A30ABF
:102B78007B08F0007C08F1007D08F2002508F300CE
:102B88002308F400CE257008F8007108F9007208CF
:102B9800FA00080073080319D62D7208710470042E
:102BA800031DDF2DF001F101F2010800F30A031003
:102BB800F20CF10CF00CFE3072050319EE2DDA2D33
:102BC800F30AF00A0319F10A0319F20A0310F20CC6
:102BD800F10CF00CFF3072050319F82DE42DF30306
:102BE8000310F00DF10DF20DF11FF32D731CF1130D
:102BF8000310F30C7308F700F601F5017508F004EB
:102C08007608F1047708F2047408031DF217080027
:102C180083123E08272EAE002D080319162E4030C9
:102C2800AF00172EAF012E08AF072F088038A80075
:102C3800003017270A168A11C2270A168A11003887
:102C480003190800202EB0004D2E0030A801A80A54
:102C580017270A168A11C2270A168A11003803197B
:102C680008002F2E0030AD01AD0A0F2E3008ED27D9
:102C78000A168A11031C08003008A800013017271B
:102C88000A168A11C2270A168A1100380319080081
:102C9800462E30080A3A0319362E063A0319292E09
:102CA8003A2E080003138811881008110812881298
:102CB8000813881383120330881188100811AF0095
:102CC8008A30AE005630AD00AD0B682EAE0B682EC4
:102CD800AF0B682E6F2EFB270A168A1117270A16C4
:102CE8008A110230AF004530AE00A930AD00AD0BFF
:102CF8007B2EAE0B7B2EAF0B7B2E822EFB270A166C
:102D08008A1117270A168A110230AF004530AE0023
:102D1800A930AD00AD0B8E2EAE0B8E2EAF0B8E2EC6
:102D2800952E323083120313A800003017270A1695
:102D38008A110330AF008A30AE005630AD00AD0BBB
:102D4800A32EAE0BA32EAF0BA32EAA2E03308312F5
:102D58000313AF008A30AE005630AD00AD0BB22E73
:102D6800AE0BB22EAF0BB22EB92E03308312031363
:102D7800AF008A30AE005630AD00AD0BC12EAE0BA1
:102D8800C12EAF0BC12EC82EC2270A168A110038D1
:102D9800031DC82E2830A800003017270A168A11EC
:102DA800C2270A168A110038031DD42E0830A8003D
:102DB800003017270A168A11C2270A168A11003806
:102DC800031DE02E0C30A800003017270A168A11C0
:102DD800C2270A168A110038031DEC2E0030A801FC
:102DE800A80A17270A168A11C2270A168A11003854
:102DF800031DF82E0430A800003017270A168A1180
:102E0800C2270A168A110038031D042F0030A801B2
:102E1800A80A17270A168A11C2270A168A11003823
:102E280003190800102FAB00831608128812081324
:102E38008813831288102B08031D88142130A900D9
:102E4800A90B242F8312031321300811A900A90B01
:102E58002B2F8312031388112808AC002C0E01397C
:102E6800A900290C031C3C2F8312031308163F2FBB
:102E78008312031308122C0EA900290C0139AA0089
:102E88002A0C031C4B2F8312031388164E2F831210
:102E9800031388122C0EA900A90C290C0139AA00C9
:102EA8002A0C031C5B2F8312031308175E2F83124F
:102EB800031308132C0D2C0D0139A900290C031C30
:102EC800692F8312031388176C2F83120313881337
:102ED8002130A900A90B6E2F831203132130881506
:102EE800A900A90B752F8312031388112C08013927
:102EF800A900290C031C842F831203130816872F9B
:102F08008312031308122C0C0139A900290C031C85
:102F1800912F831203138816942F83120313881298
:102F28002C0CA900290C0139AA002A0C031CA02F7B
:102F3800831203130817A32F8312031308132C0CEF
:102F4800A900A90C290C0139AA002A0C031CB02FCE
:102F5800831203138817B32F8312031388132130A6
:102F6800A900A90BB52F8312031321308815A900D6
:102F7800A90BBC2F831203138811080083160313AF
:102F88000816881608178817831221300815881024
:102F9800A800A80BCD2F8312031321308815A80091
:102FA800A80BD42F003083120313881B0130A9000B
:102FB80021308811A800A80BDF2F831203132130BA
:102FC8008815A800A80BE62F831203138811290877
:102FD8000800A9007F30A80129020318F92F203022
:102FE8002902031CF92FA801A80A280C0800303070
:082FF80083120313A80000344A
:02400E00C2E30B
:00000001FF
