:060000000A128A110C280F
:10000800FE00030EF0000A08F1000A128A117C288B
:100018000A128A11C62883160317890188017830C5
:10002800031386008801831288018B178B150B1028
:10003800831696008312061086100615061086147D
:100048000611061486100611F208031D2D28200833
:100058008800720803191E28F208031D3528200895
:100068008800720B3928210888007208023A031D9B
:100078003F28240888007208033A031D45282708EA
:1000880088007208043A031D4B282A088800720861
:10009800053A031D5128220888007208063A031DF4
:1000A8005728250888007208073A031D5D28280884
:1000B80088007208083A031D63282008880072081F
:1000C800093A031D69282308880072080A3A031DA3
:1000D8006F282608880072080B3A031D752829081E
:1000E800880072080C3A031D1E282B0888001E2859
:1000F8000B1083120313861D8F2886198128061C6E
:100108008728F201F20A861C8B280530F200061DAA
:100118008F280930F200061E9F28061A9128061C0F
:1001280097280230F200861C9B280630F200061D34
:100138009F280A30F200861EAF28861AA128061CBE
:10014800A7280330F200861CAB280730F200061DF2
:10015800AF280B30F200061FBF28061BB128061C6B
:10016800B7280430F200861CBB280830F200061DB0
:10017800BF280C30F20071088A00700E8300FE0E52
:100188007E0E0900C030F201A000F930A100A430B1
:10019800A200B030A3009930A4009230A5008230AC
:1001A800A600F830A7008030A8009030A900C6301B
:0E01B800AA008630AB0083010A128A110F28BC
:02400E00C2E30B
:00000001FF
