:060000000A128A110E280D
:10000800FE00030EF0000408F1000A08F2000A12CC
:100018008A1178280A128A11062983160F178F1653
:100028000F120F1403178901880103138511051294
:10003800071387178C1683128C120B178B179210C5
:10004800121412179212121292159101FA30831695
:1000580092008312121583168C1483128C100B17BE
:100068008B170A128A1126210A128A110A128A117A
:1000780018210A128A115A28831203130F30851186
:100088004E2883120313173085155428831203133F
:100098001F30851505125528831203132730851143
:1000A80005160A128A11E7200A128A117708203EDB
:1000B80084000008313A031940287708203E84005C
:1000C8000008323A031945287708203E84000008C2
:1000D800333A03194A287708203E84000008343A46
:1000E8000319502801305528831203138C1E8C28BD
:1000F8007708203E84001A0883138000F70A031942
:10010800F80A77037804031D8B28F701F8018C128D
:100118008C1CAA28F50A0319F60A7508323A7604DF
:10012800031D9828051285117508643A7604031D85
:10013800A9280516051EA428831203138515A728C8
:10014800831203138511F501F6018C1072088A00D9
:1001580071088400700E8300FE0E7E0E09000030C8
:100168008A000408840A820700344F3474346834DF
:100178006534723420346E3475346D3462346534C9
:100188007234733400344E3475346D3462346534EB
:100198007234313400344E3475346D34623465341D
:1001A8007234323400344E3475346D34623465340C
:1001B8007234333400344E3475346D3462346534FB
:1001C800723434340034F400740884000A128A113A
:1001D800B3200A128A110038031908007408840031
:1001E8000A128A11B3200A128A11FE200A128A11F1
:1001F800F40AE828F300831203130C1EFF2873087F
:1002080099000800F501F601F701F801A001A10124
:10021800A201A301A401A501A601A701A801A901A2
:1002280083010A128A11112883169A014530990010
:1002380018121815031787158312031318161813A5
:100248009817080083169A01453099001812181556
:1002580003178715031398161813831298170800A5
:02400E00C4E309
:00000001FF
