:060000000A128A11122809
:10000800FE00030E83120313A6000408A7000A08C3
:10001800A8007F08A9000A128A1115280A128A1155
:1000280063293C308F00B0308E000C1C4028803093
:10003800F801F9003F30FA002A08FB002B08FC0001
:100048002C08FD004B200A128A117808AA007908AA
:10005800AB007A08AC00413A031D382800302B0663
:10006800031D382800302A06031D3F280130AA0145
:10007800AB01AC0189060C102908FF0028088A008A
:1000880027088400260E8300FE0E7E0E09007808DD
:10009800A0007908A1007A08A2000310210D220D02
:1000A800A5007B08A0007C08A1007D08A200031021
:1000B800210D220DA400250803196E282408250205
:1000C800240803187628A0002508A0021930200269
:1000D800031C75287B08F8007C08F9007D08FA00E5
:1000E8000800240803190800250824020318842896
:1000F8002508A0002408A0021930200203180800CF
:100108000630A300FA1BA317FD1B2317F917FA01E2
:10011800FC17FD01240825020318AB280310FB0D6A
:10012800FC0DFD0DA403240825060319A628A30326
:10013800230807390319A62892280310FA0CF90C8A
:10014800F80CA50A250824060319C728A12825089C
:1001580024020318C7280310F80DF90DFA0DA5039A
:10016800240825060319C328A303230807390319FC
:10017800C328AF280310FD0CFC0CFB0CA40A2508AF
:100188002406031DBE28A31FD228FF30F806F9064F
:10019800FA06F80A0319F90A0319FA0A231FDD28CF
:1001A800FF30FB06FC06FD06FB0A0319FC0A0319CF
:1001B800FD0AA3017808FB07790803110318790AD7
:1001C800031DFC077A08031103187A0A031DFD07AB
:1001D800FD1FF928FF30FB06FC06FD06FB0A031984
:1001E800FC0A0319FD0AA301A30A7B08F0007C0896
:1001F800F1007D08F2002508F3002308F4000B2124
:100208007008F8007108F9007208FA00080073080D
:1002180003191329720871047004031D1C29F001C5
:10022800F101F2010800F30A0310F20CF10CF00CD2
:10023800FE30720503192B291729F30AF00A03194E
:10024800F10A0319F20A0310F20CF10CF00CFF305A
:100258007205031935292129F3030310F00DF10D57
:10026800F20DF11F3029731CF1130310F30C7308FE
:10027800F700F601F5017508F0047608F10477082F
:10028800F2047408031DF217080083160317890186
:100298008801031305168801091083123C301013D6
:1002A800901010159012101210148F00B0308E009C
:1002B80083160C1483120C100B178B176229AA01D2
:0C02C800AB01AC0183010A128A11492924
:02400E00C2E30B
:00000001FF
