:060000000A128A110E280D
:10000800FE00030E83120313A6000A08A7000A16AF
:100018008A11C82E0A128A11C62FBC00A730B40054
:1000280083163C08BC0A84000A168A1100200A12AA
:100038008A11C800C80803190800253A0319292895
:1000480048085D250A128A111428C101C201BD01A0
:10005800BE0130283D15BC0A3C0884000A168A11E6
:1000680000200A128A11303A03192E283B283C082E
:1000780084000A168A1100200A128A11CD250A1254
:100088008A11031C70288316C101C2018316420815
:100098008312A9008316410895270A128A11DC25C4
:1000A80083163C0884000A168A1100200A128A1155
:1000B8003E27C1002C080318013EFF3EC200BC0ABF
:1000C8003C0884000A168A1100200A128A11CD25DC
:1000D8000A128A1103184A2883163C0884000A1653
:1000E8008A1100200A128A112E3A031DA8283E17E9
:1000F800BC0AC601C7013C0884000A168A11002000
:100108000A128A11CD250A128A11031CB1288316F6
:1001180047088312A9008316460895270A128A11F0
:10012800DC2583163C0884000A168A1100200A126E
:100138008A113E270A128A11C6002C080318013EAC
:10014800FF3EC700BC0A7F28C601C7013E16B1287A
:100158003E15C528C030BD04C52883163C08BC0A16
:1001680084000A168A1100200A128A11C800003A6F
:1001780003195C2D663A0319AC28133A0319AE2803
:1001880014280730AB013E05AC002B040319312CB1
:100198003E1ED1280630C600C701340884008313E8
:1001A8000008C300840A0008C400840A0008C500C7
:1001B8000330B40743088312A80083164408831247
:1001C800A900831645088312AA00AB01AC01AD0152
:1001D800A1250A128A1103180D29831643088312D0
:1001E800A800831644088312A900831645088312C1
:1001F800AA009E270A128A1128088316C3008312B0
:1002080029088316C40083122A088316C500033000
:10021800BD048316BF01C001450844044304031903
:10022800B629C33084000008AB00840A0008AC007B
:10023800840A0008AD00840A0008AE000F300310DD
:10024800AE0CAD0CAC0CAB0CFF3E031D23292C08E7
:10025800C0002B08BF008230C001BF07031CC003C9
:10026800FF30BF07031CC00303308312A800A90195
:10027800831640088312AB0083163F088312AA0036
:10028800DC2529088316C000831228088316BF00BE
:100298000A308312AE00AF01831640088312B10002
:1002A80083163F088312B0000A128A1569260A12BB
:1002B8008A112F088316C00083122E088316BF00E8
:1002C800C01F6A29FF30BF07031CC0033F03FF3A62
:1002D8000A128A15D7240A128A114C270A128A117F
:1002E8007C27831635088312C800831636088312C4
:1002F800C900831637088312CA000A128A15EB262A
:100308000A128A1145088316B50083124608831617
:10031800B600831247088316B7002A270A128A11E3
:100328008030AB01AC003F30AD00A1250A128A1124
:100338000318A429FF308316BF07031CC003B6297E
:1003480083162A270A128A112030AB01AC004130EB
:10035800AD00A1250A128A11031CB6298316BF0A0B
:100368000319C00A83164708803AFF0080307F02CD
:10037800031DC0290D3046020318EB299B274608A8
:100388000A128A15D9200A128A116008D400610855
:10039800D5006208D600831643088312D700831657
:1003A80044088312D800831645088312D9000A1618
:1003B8008A1106260A128A1154088316C30083126A
:1003C80055088316C400831256088316C5009B2758
:1003D8004008803AFF0080307F02031DF5290A306B
:1003E8003F020318162A9B274508440443040319AF
:1003F800682A430871270A128A11F5250A128A11F8
:100408003908380437043604031D682A831640085F
:10041800803AFF0080307F02031D142A02303F0219
:10042800031C682A9B272A270A128A117030AB00FE
:100438008930AC004030AD00A1250A128A1103189A
:10044800272AF730282AF8308316BF07031CC00371
:100458003F080A128A15D7240A128A114C270A1251
:100468008A11A800831644088312A9008316450838
:100478008312AA00831635088312AB008316360848
:100488008312AC00831637088312AD0098260A122F
:100498008A112B088316B30083122A088316B20028
:1004A800831229088316B100831228088316B00026
:1004B8003308BB003208BA003108B9003008B80068
:1004C800C301C401C501A32A9B27430871270A1247
:1004D8008A11F5250A128A115A270A128A118316D7
:1004E800B8003B088312B30083163A088312B2009F
:1004F800831639088312B100831638088312B000B6
:10050800A62730088316A000831231088316A1009D
:10051800831232088316A2004308A3004408A400EB
:100528004508A5000A168A11E0250A128A11200832
:10053800C3002108C4002208C500BF01C001C801CA
:10054800C80A21270A168A1100200A128A11AC004B
:100558000A168A1100200A128A11AD000A168A1199
:1005680000200A128A11AE000A168A1100200A1207
:100578008A11AF002F083B02031DCC2A2E083A022D
:10058800031DCC2A2D083902031DCC2A2C08380259
:10059800031CD32AC80A48080A3A031DA52A460894
:1005A8004807AB0047080318470AC81BFF3EAC00C2
:1005B8003F082B07AD0040080318400A2C07AE007F
:1005C8002D08C1022E08031CC203C20247084604B4
:1005D8000319F22AFF30C107031CC2033D0803397F
:1005E8000319FA2AFF30C107031CC2033D19062B61
:1005F8001B2B30305D250A128A11FF308316C10784
:10060800031CC2034208803AFF0080307F02031DAA
:100618000F2B01304102031C5A2BFD2A20305D2587
:100628000A128A11FF308316C107031CC20342084D
:10063800803AFF0080307F02031D242B01304102E5
:100648000318122B9B273D08033903195A2B2D3009
:10065800572B36270A128A1121270A168A110020D9
:100668000A128A118312A8000A168A1100200A1297
:100678008A11A9000A168A1100200A128A11AA00F2
:100688000A168A1100200A128A110F270A128A11E3
:1006980050260A128A1168270A128A1163250A123B
:1006A8008A113508303E5D250A128A119B27C80336
:1006B800480F2D2B4008803AFF0080307F02031D31
:1006C800672B01303F02031C732B30305D250A1263
:1006D8008A11FF308316BF07031CC0035E2B9B27BC
:1006E8004708803AFF0080307F02031D7D2B0930C8
:1006F8004602031C822B08309B27842B9B27460825
:10070800C800AB00AC01AB1BAC03C6022C08031C31
:10071800C703C70248080319932B2E305D2583169B
:1007280048080A128A15D7240A128A115408C800E0
:100738005508C9005608CA008316430883127C2747
:100748000A128A15EB260A128A114508B6004608CD
:10075800B7004708B800F5250A128A115A270A1265
:100768008A111E2C36270A128A1121270A168A1185
:1007780000200A128A118312A8000A168A11002082
:100788000A128A11A9000A168A1100200A128A116F
:10079800AA000A168A1100200A128A110F270A12C3
:1007A8008A1150260A128A1168270A128A116325AB
:1007B8000A128A113508303E5D250A128A118316FD
:1007C80021270A168A1100200A128A118312B500FD
:1007D8000A168A1100200A128A11B6000A168A110E
:1007E80000200A128A11B7000A168A1100200A127C
:1007F8008A11B80083163B088312BC0083163A0896
:100808008312BB00831639088312BA00831638088E
:100818008312B90063250A128A1138088316BB00AF
:10082800831237088316BA00831236088316B90074
:10083800831235088316B800C803480FB62B47083B
:1008480046040319142830305D250A128A11FF3036
:100858008316C607031CC703232C3408840083139C
:100868000008AB00840A0008AC002B08B8002C086C
:10087800B900BA01BB01B40AB40A47084604031D0B
:100888004D2C3B083A04390438040319C60A0319E5
:10089800C70AC801C80A21270A168A1100200A12A5
:1008A8008A11AC000A168A1100200A128A11AD00BA
:1008B8000A168A1100200A128A11AE000A168A1135
:1008C80000200A128A11AF002F083B02031D762C64
:1008D8002E083A02031D762C2D083902031D762CAA
:1008E8002C083802031C7D2CC80A48080A3A031D44
:1008F8004F2C480886270A128A114708803A2D0289
:10090800031D882C46082B0203188E2C9B274608AB
:10091800C800A62C9B274808AB00AC01AB1BAC0356
:100928004708803AAD002C08803A2D02031D9E2C02
:100938002B0846020318A62C9B274808C600C701A7
:10094800C61BC7039B27420841040319B32C3D0863
:1009580003390319B32CFF30C107031CC2033E1F20
:10096800CC2C4708803AAB004208803A2B02031D82
:10097800BF2C410846020318C92C9B274608C10210
:100988004708031CC203C202CC2C9B27C101C20129
:10099800480886270A128A114208803A2D02031D48
:1009A800D72C41082B020318E52C9B274808AB00DD
:1009B800AC01AB1BAC03C1022C08031CC203C2026E
:1009C800E82C9B27C101C2013D1D012D3D080339BB
:1009D8000319F22C2D305D250A128A11831642085C
:1009E800410403191A2D30305D250A128A11FF308F
:1009F8008316C107031CC203F32C420841040319E0
:100A0800122D20305D250A128A11FF308316C10786
:100A1800031CC20342084104031D052D3D08033988
:100A280003191A2D2D305D250A128A11FF308316FD
:100A3800C607031CC703460A0319470A03191428E3
:100A48000A308312B500B601B701B801831646080B
:100A5800AB000310AB0D03102B0D4F3E84000A169C
:100A68008A1100200A128A118312A8000A168A1114
:100A780000200A128A11A9000A168A1100200A12F7
:100A88008A11AA000A168A1100200A128A110F2751
:100A98000A128A1150260A128A1168270A128A1124
:100AA80063250A128A113508303E8316C800172DAF
:100AB800080083120313B1000A128A15672A38083E
:100AC8003704360435040319982DBD01BD0AB81B37
:100AD800732D0310B50DB60DB70DB80D6A2D380876
:100AE8003C02031D812D37083B02031D812D36086A
:100AF8003A02031D812D35083902031C922D350851
:100B0800B9023608031C360FBA023708031C370F20
:100B1800BB023808031C380FBC020310B80CB70C12
:100B2800B60CB50CBD0B732D3C08B8003B08B700DC
:100B38003A08B6003908B5000800AA1FB02D2808E1
:100B4800003CA8002908031C290F003CA9002A081A
:100B5800031C2A0F803CAA00AD1FBF2D2B08003CA8
:100B6800AB002C08031C2C0F003CAC002D08031C08
:100B78002D0F803CAD008030AA06AD062D082A0254
:100B8800031D08002C082902031D08002B08280251
:100B980008008312A9003A30A80129020318DA2DA7
:100BA80030302902031CDA2DA801A80A280C0800F5
:100BB800AC01AD01281CE62D2A08AC070318AD0AC4
:100BC8002B08AD070310AA0DAB0D0310A90CA80C38
:100BD80029082804031DDE2D2D08A9002C08A800CB
:100BE80008008E270A128A1103103B0D3C0DC20023
:100BF800C208031D042EB601B701B801B9010800E7
:100C08008E270A128A1117300310BC0CBB0CBA0CC1
:100C1800FF3E031D082E3A08BD00B717B801360875
:100C2800BE003708BF003808C0008E30C101C202BC
:100C3800C21F2B2E4208803A8F3E031CFF2D031043
:100C4800C10CC00CBF0CBE0CC20F232E392E18309D
:100C580042020318FF2DC2080319392E0310BE0DD6
:100C6800BF0DC00DC10DC2032F2E3D080319472E1D
:100C7800BE09BF09C009C109BE0A0319BF0A031981
:100C8800C00A0319C10A4108B9004008B8003F0862
:100C9800B7003E08B6000800B001B101B201B301C7
:100CA8002B082A042904280403198F2EB401B40A36
:100CB800AB1B642E0310A80DA90DAA0DAB0D5B2E5E
:100CC8000310B00DB10DB20DB30D2B082F02031D8B
:100CD800772E2A082E02031D772E29082D02031DC0
:100CE800772E28082C02031C892E2808AC02290814
:100CF800031C290FAD022A08031C2A0FAE022B0879
:100D0800031C2B0FAF0230140310AB0CAA0CA90C58
:100D1800A80CB40B642E3308AB003208AA003108C3
:100D2800A9003008A80008002808AE002908AF006C
:100D38002A08B00003102F0D300DB600B608031DA9
:100D4800AA2EA801A901AA01AB0108002B08AE0030
:100D58002C08AF002D08B00003102F0D300DB50082
:100D6800B5080319A52E7F30A917AA01AC17AD0144
:100D7800B101B201B301B401B60298303507AE0033
:100D8800B6021830B5000310B10DB20DB30DB40D95
:100D98002D082A02031DD62E2C082902031DD62E43
:100DA8002B082802031CE42E2B08A8022C08031C7D
:100DB8002C0FA9022D08031C2D0AAA0231140310B6
:100DC800A80DA90DAA0DB50BC72EB61FF82E36080B
:100DD800803A973E031CA52E0310B40CB30CB20C3A
:100DE800B10CB60FF02E062F183036020318A52EB8
:100DF800B6080319062F0310B10DB20DB30DB40DCB
:100E0800B603FC2E3408AB003308AA003208A90048
:100E18003108A8000800AB0083163B088312AF0016
:100E280083163A088312AE00831639088312AD0080
:100E3800831638088312AC0008004808AB0003107A
:100E4800AB0D03102B0D4F3E8400080035088312AC
:100E5800A800831636088312A90083163708831260
:100E6800AA0008000A308312B500B601B701B8011C
:100E780083160800831228078316AB000030031876
:100E88000130831229078316AC002B08D03E0800D6
:100E980054088316B500831255088316B6008312CA
:100EA80056088316B70043088312080039088316CA
:100EB800BB00831238088316BA00831237088316DA
:100EC800B9008312360808002B08BC002A08BB00AA
:100ED8002908BA002808B90008008312B60083164A
:100EE80044088312B700831645088312B800080027
:100EF800C500831644088312C6008316450883126A
:100F0800C7000800AB00AC01AB1BAC032C08803A4F
:100F1800AD0008003608BA003708BB003808BC0026
:100F280008008312A8000A30AA00AB010800831643
:100F3800031308002A08290428040319080080302C
:100F4800AA0608008E30B400FF3033050319B32F0A
:100F58000310B30CB20CB10CB00CB40AA82F3008B3
:100F6800A8003108A9003208AA003408AB00AC0177
:100F78000A128A1569272808B0002908B1002A082A
:100F8800B2000800E301E401E5018316C901CA01C2
:100F9800CB01CC01CD01CE01CF0183010A168A1104
:020FA800512DC9
:10101A00283084008313000883120313AE00840A65
:10102A000008AF00840A0008B000840A0008B10072
:10103A000310300D310DBB00BB08031D2928A80180
:10104A00A901AA01AB0108002B30CC200A128A158B
:10105A000310300D310DBA00BA08031924282830BC
:10106A0084008030840A840A80042830840A840038
:10107A002B30840A840A840A800184008030840A1E
:10108A00840A80042B30840A84007F30840A840A0C
:10109A00840A8001B601B701B801B901BB02A030C8
:1010AA003A07AE00BB022030BA002B300310B60D4F
:1010BA00B70DB80DB90DCC200A128A152830840054
:1010CA000008B200840A0008B300840A0008B400C9
:1010DA00840A0008B50031083502031D7E2830084D
:1010EA003402031D7E282F083302031D7E282E0892
:1010FA003202031C9A282B30CC200A128A15283077
:10110A0084002E088002840A2F08031C2F0F8002F5
:10111A00840A3008031C300F8002840A3108031C39
:10112A00310A800203308402361428308400031006
:10113A00800D840A800D840A800D840A800DBA0B02
:10114A005A28BB1FB5283B08803A9F3E031C242817
:10115A000310B90CB80CB70CB60CBB0FAD28C328DA
:10116A0020303B0203182428BB080319C3280310A4
:10117A00B60DB70DB80DB90DBB03B9283908AB00C8
:10118A003808AA003708A9003608A8000800840011
:10119A000008AE00840A0008AF00840A0008B00004
:1011AA00840A0008B1000800A6006E302602031C5B
:1011BA00712903308312B1000A30AD006430A800EF
:1011CA00831626080A220A128A15EE210A128A159D
:1011DA005A270A128A151C3E84000A168A11002010
:1011EA000A128A15C5000A168A1100200A128A15DF
:1011FA00C6000A168A1100200A128A15C70003308F
:10120A00B1006430AD0083162608EE210A128A1551
:10121A005A270A128A15373E84000A168A110020B4
:10122A000A128A15C8000A168A1100200A128A159B
:10123A00C9000A168A1100200A128A15CA000A125F
:10124A008A15EB260A128A1535220A128A150330E4
:10125A0048220A128A150A220A128A155A270A12DB
:10126A008A15013E84000A168A1100200A128A157C
:10127A00C5000A168A1100200A128A15C6000A1623
:10128A008A1100200A128A1527220A128A15EB26C9
:10129A000A128A1545088316A00083124608831687
:1012AA00A100831247088316A20083123F30C501AA
:1012BA00C601C700831620088312C80083162108B6
:1012CA008312C900831622088312CA000A128A15D9
:1012DA00EB260A128A15412A0B302602031CC6295C
:1012EA00033048220A128A150A220A128A155A2734
:1012FA000A128A15013E84000A168A1100200A126F
:10130A008A15C5000A168A1100200A128A15C60013
:10131A000A168A1100200A128A15C7000330B10082
:10132A000A30AD0083162608EE210A128A155A27BA
:10133A000A128A151C3E84000A168A1100200A1213
:10134A008A15C8000A168A1100200A128A15C900CD
:10135A000A168A1100200A128A15CA000A128A1568
:10136A00EB260A128A1535220A128A1583123F3091
:10137A00C501C60127220A128A15EB260A128A1506
:10138A00412A83123F30C501C601C7000330B100AC
:10139A00831626080A128A155A270A128A15013E46
:1013AA0084000A168A1100200A128A15C8000A1631
:1013BA008A1100200A128A15C9000A168A11002009
:1013CA000A128A15CA000A128A15EB260A128A1507
:1013DA00412A8312AE00B0012D080319082AAF0171
:1013EA00AF0AAD1BFB290310AD0DF5290310B00D93
:1013FA002D082E02031C052A2D08AE0230140310F4
:10140A00AD0CAF0BFB29300808008312AA00083084
:10141A00AB00AC012A08A90007300310A90CFF3E53
:10142A000310031D132A2C0D2904AC000310AA0D66
:10143A0028082C02031C232A2808AC02AB0B0F2A0B
:10144A002C080800C700831623088312C8008316D5
:10145A0024088312C900831625088312CA000800CB
:10146A0045088316A300831246088316A400831234
:10147A0047088316A50008004508E0004608E10071
:10148A004708E20008008312B1000A30A800831658
:10149A0026080800AE002D080319562A4030AF006E
:1014AA00572AAF012E08AF072F088038A80000304E
:1014BA0057230A128A1502240A128A1500380319B8
:1014CA000800602AB0008D2A0030A801A80A572314
:1014DA000A128A1502240A128A150038031908000A
:1014EA006F2A0030AD01AD0A4F2A30082D240A12A6
:1014FA008A15031C08003008A800013057230A1275
:10150A008A1502240A128A15003803190800862A45
:10151A0030080A3A0319762A063A0319692A7A2AF6
:10152A00080003138811881008110812881208137A
:10153A00881383120330881188100811AF008A308B
:10154A00AE005630AD00AD0BA82AAE0BA82AAF0BE1
:10155A00A82AAF2A3B240A128A1557230A128A1587
:10156A000230AF004530AE00A930AD00AD0BBB2A4A
:10157A00AE0BBB2AAF0BBB2AC22A3B240A128A151E
:10158A0057230A128A150230AF004530AE00A9303F
:10159A00AD00AD0BCE2AAE0BCE2AAF0BCE2AD52A82
:1015AA00323083120313A800003057230A128A1517
:1015BA000330AF008A30AE005630AD00AD0BE32ADF
:1015CA00AE0BE32AAF0BE32AEA2A03308312031392
:1015DA00AF008A30AE005630AD00AD0BF22AAE0B2A
:1015EA00F22AAF0BF22AF92A033083120313AF004F
:1015FA008A30AE005630AD00AD0B012BAE0B012B7D
:10160A00AF0B012B082B02240A128A150038031D7E
:10161A00082B2830A800003057230A128A15022402
:10162A000A128A150038031D142B0830A80000304E
:10163A0057230A128A1502240A128A150038031D32
:10164A00202B0C30A800003057230A128A150224D6
:10165A000A128A150038031D2C2B0030A801A80A8B
:10166A0057230A128A1502240A128A150038031D02
:10167A00382B0430A800003057230A128A15022496
:10168A000A128A150038031D442B0030A801A80A43
:10169A0057230A128A1502240A128A1500380319D6
:1016AA000800502BAB0083160812881208138813FF
:1016BA00831288102B08031D88142130A900A90B56
:1016CA00642B8312031321300811A900A90B6B2B79
:1016DA008312031388112808AC002C0E0139A900C3
:1016EA00290C031C7C2B8312031308167F2B8312ED
:1016FA00031308122C0EA900290C0139AA002A0C7E
:10170A00031C8B2B8312031388168E2B831203134D
:10171A0088122C0EA900A90C290C0139AA002A0C3E
:10172A00031C9B2B8312031308179E2B831203138C
:10173A0008132C0D2C0D0139A900290C031CA92B07
:10174A00831203138817AC2B8312031388132130D7
:10175A00A900A90BAE2B8312031321308815A90007
:10176A00A90BB52B8312031388112C080139A90080
:10177A00290C031CC42B831203130816C72B8312CC
:10178A00031308122C0C0139A900290C031CD12BB4
:10179A00831203138816D42B8312031388122C0C7A
:1017AA00A900290C0139AA002A0C031CE02B831278
:1017BA0003130817E32B8312031308132C0CA90035
:1017CA00A90C290C0139AA002A0C031CF02B83123C
:1017DA0003138817F32B8312031388132130A900EC
:1017EA00A90BF52B8312031321308815A900A90B25
:1017FA00FC2B83120313881108008316031308169F
:10180A008816081788178312213008158810A8002F
:10181A00A80B0D2C8312031321308815A800A80BDE
:10182A00142C003083120313881B0130A9002130C5
:10183A008811A800A80B1F2C8312031321308815C6
:10184A00A800A80B262C8312031388112908080064
:10185A00A9007F30A80129020318392C2030290257
:10186A00031C392CA801A80A280C0800303083125E
:10187A000313A80000348E30B501B400B31F522CF4
:10188A00B009B109B209B309B00A0319B10A0319B7
:10189A00B20A0319B30AB501B50AFF3033050319B1
:1018AA005D2C0310B30CB20CB10CB00CB40A522C60
:1018BA003008A8003108A9003208AA003408AB0091
:1018CA003508AC0069272808B0002908B1002A08A1
:1018DA00B20008003908BC003A08BD003B08BE0047
:1018EA0003103D0D3E0DC300C308031D802CB60135
:1018FA00B701B80108003608BC003708BD0038082F
:10190A00BE0003103D0D3E0DC400C408031D912CFA
:10191A00B601B701B80108008930C001C101C2018E
:10192A004407BC00C3023B08C4003808C406803020
:10193A00C4051830BA17BB01B717B801BF000310A6
:10194A00C00DC10DC20D38083B02031DB22C370869
:10195A003A02031DB22C36083902031CC02C360881
:10196A00B9023708031C370FBA023808031C380AB1
:10197A00BB0240140310B90DBA0DBB0DBF0BA42C4A
:10198A004008A8004108A9004208AA004308AB0081
:10199A004408AC0069272808B6002908B7002A08B5
:1019AA00B80008008312DE00DE1FA32DDE09DE0A5E
:1019BA005E08803A123E031C472D0A30CB270A12D2
:1019CA008A15AE260A128A152908B1002808B0001D
:1019DA0069260A128A15E8271C3E84000A168A110B
:1019EA0000200A128A15C5000A168A1100200A1256
:1019FA008A15C6000A168A1100200A128A15F027CB
:101A0A000A128A15B01BB10369260A128A15AF2772
:101A1A00373E84000A168A1100200A128A15C80065
:101A2A000A168A1100200A128A15C9000A168A1192
:101A3A0000200A128A15CA00EB260A128A15BE2746
:101A4A000A128A15AA1BAB03AE260A128A15A72701
:101A5A00013E84000A168A1100200A128A15C5005E
:101A6A000A168A1100200A128A15C6000A168A1155
:101A7A0000200A128A15F8270A128A15EB260A127A
:101A8A008A15B72F5E08803A753E031C8C2D0A30E2
:101A9A00A800A9015E08AA00AB01AA1BAB03AE26E7
:101AAA000A128A15A727013E84000A168A11002005
:101ABA000A128A15C5000A168A1100200A128A1506
:101ACA00C6000A168A1100200A128A15E0270A128D
:101ADA008A15B01BB10369260A128A15AF271C3E64
:101AEA0084000A168A1100200A128A15C8000A16EA
:101AFA008A1100200A128A15C9000A168A110020C2
:101B0A000A128A15CA00EB260A128A15B72F033061
:101B1A00B1005E085A27013E84000A168A11002085
:101B2A000A128A15D4000A168A1100200A128A1586
:101B3A00D5000A168A110020D60008005E08803AED
:101B4A00123E031C0D2E0A30CB270A128A15AE2626
:101B5A000A128A152908B1002808B00069260A1253
:101B6A008A15E827433E84000A168A1100200A12C1
:101B7A008A15C5000A168A1100200A128A15C6009B
:101B8A000A168A1100200A128A15F0270A128A15E3
:101B9A00B01BB10369260A128A15AF275E3E84007C
:101BAA000A168A1100200A128A15C8000A168A1112
:101BBA0000200A128A15C9000A168A1100200A1280
:101BCA008A15CA00EB260A128A15BE270A128A1536
:101BDA00AA1BAB03AE260A128A15A727283E840041
:101BEA000A168A1100200A128A15C5000A168A11D5
:101BFA0000200A128A15C6000A168A1100200A1243
:101C0A008A15F8270A128A15EB260A128A15B72F9F
:101C1A005E08803A753E031C522E0A30A800A901BC
:101C2A005E08AA00AB01AA1BAB03AE260A128A15EC
:101C3A00A727283E84000A168A1100200A128A154C
:101C4A00C5000A168A1100200A128A15C6000A1649
:101C5A008A1100200A128A15E0270A128A15B01B77
:101C6A00B10369260A128A15AF27433E84000A1671
:101C7A008A1100200A128A15C8000A168A11002041
:101C8A000A128A15C9000A168A1100200A128A1530
:101C9A00CA00EB260A128A15B72F0330B1005E0874
:101CAA005A27283E84000A168A1100200A128A1529
:101CBA00D4000A168A1100200A128A15D5000A16BB
:101CCA008A110020D6000800B301AF1F732EAE0997
:101CDA00AF09AE0A0319AF0AB301B30AB11F7C2ECA
:101CEA00B009B109B00A0319B10A0130B306B40147
:101CFA00B5012F082E040319A12EB201B20AAF1B97
:101D0A008A2E0310AE0DAF0D832E0310B40DB50D40
:101D1A002F083102031D932E2E083002031C9D2E1C
:101D2A002E08B0022F08031CB103B10234140310A9
:101D3A00AF0CAE0CB20B8A2E33080319A92EB409C4
:101D4A00B509B40A0319B50A3508AF003408AE005C
:101D5A000800AD01AB1FB82EAA09AB09AA0A0319DC
:101D6A00AB0AAD01AD0AA91FBF2EA809A909A80A85
:101D7A000319A90A290828040319DE2EAC01AC0AA2
:101D8A00A91BCB2E0310A80DA90DC42E29082B02BE
:101D9A00031DD12E28082A02031CDA2E2808AA02BB
:101DAA002908031CAB03AB020310A90CA80CAC0B4B
:101DBA00CB2E2D080319E62EAA09AB09AA0A031984
:101DCA00AB0A2B08A9002A08A80008004508CB007E
:101DDA004608CC004708CD0003104C0D4D0DCE002F
:101DEA00CE08031DFC2EC501C601C701080048081C
:101DFA00CB004908CC004A08CD0003104C0D4D0D0C
:101E0A00D300D308031D0D2FC501C601C701080061
:101E1A0053087B3ECE074708D3004A08D3068030D2
:101E2A00D3050730C617C917CA01CF01D001D1019E
:101E3A00D200451C282F4808D6270A128A150318EB
:101E4A004A0A031DD1070310C70CC60CC50C0310A0
:101E5A00C80DC90DCA0DD20B1E2F0930D200451C60
:101E6A003E2F4808D6270A128A1503184A0A031D64
:101E7A00D1070310C70CC60CC50C0310D10CD00C2B
:101E8A00CF0CD20B342F4F08A8005008A9005108D4
:101E9A00AA004E08AB005308AC0069272808C50001
:101EAA002908C6002A08C70008008312B300B20135
:101EBA0031083318B2070310B10D0310B30CB3087D
:101ECA00031D5D2F320808002B080319712F2A08F9
:101EDA0029042804031D7A2FA801A901AA010800D0
:101EEA00AB0A0310AA0CA90CA80CFE302A05031988
:101EFA00892F752FAB0AA80A0319A90A0319AA0A76
:101F0A000310AA0CA90CA80CFF302A050319932F59
:101F1A007F2FAB030310A80DA90DAA0DA91F8E2FA1
:101F2A002B1CA9130310AB0C2B08AF00AE01AD019B
:101F3A002D08A8042E08A9042F08AA042C08031D9A
:101F4A00AA1708002808D7002908D80057085707F1
:101F5A00570708002E08D9002F08DA005908590730
:101F6A00590708004508D4004608D5004708D60096
:101F7A0008004508DB004608DC004708DD000A3097
:101F8A00A800A9015E08AA00AB010800AE00AF01D3
:101F9A005E08AA00AB01AA1BAB036430A800A90122
:101FAA000800CF07490803110318490A031DD0077F
:101FBA004A0803110800C7000A30AE00AF015E08E4
:101FCA00B000B10108002E08D7002F08D800570822
:101FDA00570757070800C7006430AE00AF015E0814
:101FEA00B000B1010800C7005B08C8005C08C9005E
:101FFA005D08CA00080010308A000408840A8207B3
:10200A000034003480343F34CD34CC343D34D734BA
:10201A0023343C34123483343A34B734D134383428
:10202A00C63427343734383486343534C034D63459
:10203A003334CC342B343234703489343034E7348A
:10204A00DB342E34E5343C341E344234A2340D34AD
:10205A00003480343F340034203441340034C834EE
:10206A00423400347A34443440341C3446345034D4
:10207A00C3344734243474344934973418344B34D1
:10208A00BC34BE344C346B346E344E3403341534A1
:10209A0050347934AD346034F33449347134013412
:1020AA000034003400340A34003400340034643418
:1020BA00003400340034E83403340034003410347B
:1020CA00273400340034A0348634013400344034D8
:1020DA0042340F3400348034963498340034003457
:1020EA00E134F53405340034CA349A343B34783454
:1020FA0075346E3467343A34203425343034383405
:10210A007534003476343A342034253433342E345A
:06211A003234663400348B
:102AA20083160317890188010A128A1596220A16CB
:102AB2008A118316051688010730091081128111C7
:102AC200011181140110831281008B160B118B17D7
:102AD2001013901410159012101210148F018E0101
:102AE20083129630C501C6004330C700B430B60128
:102AF200B7004330B80083164F088312B300831621
:102B02004E088312B20083164D088312B100831659
:102B12004C088312B0000A128A1540240A168A1140
:102B22003008B9003108BA003208BB000A128A150F
:102B32006F240A168A113608C8003708C9003808F7
:102B4200CA000A128A15EB260A168A11450883164C
:102B5200C900831246088316CA00831247088316E7
:102B6200CB0083120030AD010A128A154F220A16D9
:102B72008A1183164F08AA004E08A9004D08A80022
:102B82004C08A70077300A128A1111200A168A11FE
:102B920083120030AD01AD0A0A128A154F220A16BD
:102BA2008A1183164908A7004A08A8004B08A90001
:102BB20082300A128A1111200A168A11712D803070
:102BC200A20623088312D400831624088312D50098
:102BD200831625088312D600831620088312D70095
:102BE200831621088312D800831622088312D90083
:102BF200062654088316A000831255088316A100E6
:102C0200831256088316A20008005408DA005508F9
:102C1200DB005608DC0003105B0D5C0DDF0057087B
:102C2200DA005808DB005908DC0003105B0D5C0D6C
:102C3200DE005F080319292E5E085F025E08031892
:102C4200312EDA005F08DA0219305A02031C302EE4
:102C52005708D4005808D5005908D60008005E0865
:102C6200031908005F085E0203183F2E5F08DA00AE
:102C72005E08DA0219305A02031808000630DD0035
:102C8200D61BDD17D91B5D17D517D601D817D90169
:102C92005E085F020318662E0310D70DD80DD90DFA
:102CA200DE035E085F060319612EDD035D08073946
:102CB2000319612E4D2E0310D60CD50CD40CDF0A4D
:102CC2005F085E060319822E5C2E5F085E020318FF
:102CD200822E0310D40DD50DD60DDF035E085F06DC
:102CE20003197E2EDD035D08073903197E2E6A2E35
:102CF2000310D90CD80CD70CDE0A5F085E06031D40
:102D0200792EDD1F8D2EFF30D406D506D606D40AC5
:102D12000319D50A0319D60A5D1F982EFF30D7066C
:102D2200D806D906D70A0319D80A0319D90ADD0128
:102D32005408D707550803110318550A031DD8076D
:102D4200560803110318560A031DD907D91FB42EBA
:102D5200FF30D706D806D906D70A0319D80A0319AD
:102D6200D90ADD01DD0A5708A8005808A900590848
:102D7200AA005F08AB005D08AC000A128A15692739
:102D82002808D4002908D5002A08D60008000730F0
:102D920081000B1DFB2E8030F801F9003F30FA0054
:102DA2006308FB006408FC006508FD0002270A16A0
:102DB2008A117808E3007908E4007A08E500433ACA
:102DC200031DE92EFA306406031DE92E0030630666
:102DD200031DFA2EE301E401E5010E088316CC007F
:102DE20083120F088316CD00CE01CF0183128F010B
:102DF2008E010B1127088A00260E8300FE0E7E0E1E
:102E020009007808A0007908A1007A08A20003103E
:102E1200210D220DA5007B08A0007C08A1007D08E1
:102E2200A2000310210D220DA40025080319252F4D
:102E320024082502240803182D2FA0002508A0022B
:102E420019302002031C2C2F7B08F8007C08F900A3
:102E52007D08FA0008002408031908002508240246
:102E620003183B2F2508A0002408A00219302002D5
:102E7200031808000630A300FA1BA317FD1B231733
:102E8200F917FA01FC17FD01240825020318622F25
:102E92000310FB0DFC0DFD0DA403240825060319E8
:102EA2005D2FA3032308073903195D2F492F031050
:102EB200FA0CF90CF80CA50A2508240603197E2F32
:102EC200582F2508240203187E2F0310F80DF90D40
:102ED200FA0DA5032408250603197A2FA303230854
:102EE200073903197A2F662F0310FD0CFC0CFB0C1B
:102EF200A40A25082406031D752FA31F892FFF305E
:102F0200F806F906FA06F80A0319F90A0319FA0A81
:102F1200231F942FFF30FB06FC06FD06FB0A031954
:102F2200FC0A0319FD0AA3017808FB0779080311BB
:102F32000318790A031DFC077A08031103187A0A99
:102F4200031DFD07FD1FB02FFF30FB06FC06FD062B
:102F5200FB0A0319FC0A0319FD0AA301A30A7B0851
:102F6200F0007C08F1007D08F2002508F300230838
:102F7200F400C2277008F8007108F9007208FA001C
:102F8200080073080319CA2F720871047004031D24
:102F9200D32FF001F101F2010800F30A0310F20C41
:102FA200F10CF00CFE3072050319E22FCE2FF30A5A
:102FB200F00A0319F10A0319F20A0310F20CF10CD8
:102FC200F00CFF3072050319EC2FD82FF303031016
:102FD200F00DF10DF20DF11FE72F731CF113031029
:102FE200F30C7308F700F601F5017508F004760892
:0E2FF200F1047708F2047408031DF2170800BA
:02400E00C2E30B
:00000001FF
