:060000000A128A110E280D
:10000800FE00030EF0000408F1000A08F2000A12CC
:100018008A116A280A128A1111290430F300F4019E
:100028003108F6003008F50025207308950097126E
:10003800171230080239013A0319971630181716A3
:100048000800AD01F41F2F28F309F409F30A031976
:10005800F40AAD01AD0AF61F3828F509F609F50AC4
:100068000319F60A0130AD06AE01AF017408730436
:1000780003195D28AC01AC0AF41B46280310F30DE4
:10008800F40D3F280310AE0DAF0D74087602031D62
:100098004F2873087502031C59287308F502740861
:1000A800031CF603F6022E140310F40CF30CAC0B2D
:1000B80046282D0803196528AE09AF09AE0A0319A9
:1000C800AF0A2F08F4002E08F30008000B1D7F2844
:1000D8000630831203138100AA0A0319AB0A2A08FF
:1000E800FA3A2B04031D7E28AA01AB010E080F085B
:1000F8008E018F010B11831203138C1EAD28770814
:10010800203E84001A0883138000F70A0319F80AAE
:1001180077037804031D9228F701F8011A08503A6A
:10012800031D9A28891009111211AC281A08533A8C
:10013800031DA12889100915AB281A084C3A031980
:100148009E281A08523A031DAC2889140911121561
:100158008C1272088A0071088400700E8300FE0EEB
:100168007E0E09008316031789018801031389107D
:100178008312891083160911831209118316071136
:1001880083127C309210121483169200831291010C
:100198000C301215970090149012101210158E0141
:1001A8008F0110131014831606308112811101116A
:1001B80081140110831281008B160B118B170B17FA
:1001C8000A128A1123210A128A110A128A11FC20A2
:1001D8000A128A11F030B2000130B300F030B000DA
:1001E8000130B1000A128A1111200A128A11EE2870
:1001F80083161812181503170230871503139A006F
:1002080008309900831218161813981783168C163D
:1002180083128C120B178B170800F701F801A00145
:10022800A101A201A301A401A501A601A701A8019A
:10023800A901AA01AB0183010A128A11B628831603
:100248001812181503170230871503139A0008307F
:0C025800990098161813831298170800DC
:02400E00C2E30B
:00000001FF
