:060000000A128A110E280D
:10000800FE00030EF0000408F1000A08F2000A16C8
:100018008A11C42D0A128A1511288316A8005A308D
:10002800A40083162808A80A84000A168A1100204A
:100038000A128A11B800B80803190800253A0319EA
:100048002A28380864250A128A111528B101B20134
:10005800AD01AE0131282D15A80A280884000A161A
:100068008A1100200A128A11303A03192F283C28D5
:10007800280884000A168A1100200A128A11D42539
:100088000A128A11031C6C28B101B2013208F4006B
:100098003108F3000A30F500F601E225280884004B
:1000A8000A168A1100200A128A1126270A128A11B2
:1000B800B1006927B200A80A280884000A168A1124
:1000C80000200A128A11D4250A128A1103184A2814
:1000D800280884000A168A1100200A128A112E3A6A
:1000E800031D9F282E17A80AB601B7012808840007
:1000F8000A168A1100200A128A11D4250A128A11B6
:10010800031CA5283708F4003608F3000A30F50068
:10011800F601E225280884000A168A1100200A122E
:100128008A1126270A128A11B60069270A128A112B
:10013800B700A80A7A28B601B7012E16A5282E15E9
:10014800BB282808A80A84000A168A1100200A1267
:100158008A11B800003A0319632D643A0319BB28C1
:10016800023A0319A3280F3A0319BB28152883124A
:100178000730DD0183162E058312DE005D040319A6
:10018800142C83162E1ECB280630B600B70124087F
:10019800840083130008B300840A0008B400840AAA
:1001A8000008B5000330A4073308F3003408F4004E
:1001B8003508F500F601F701F801A8250A128A1199
:1001C8000318F7283308F3003408F4003508F5005D
:1001D8009E260A128A117308B3007408B4007508C1
:1001E800B5000330AD04AF01B00135083404330461
:1001F80003199529B330840062270A128A11840AE8
:100208000008DF00840A0008E0000F300310E00C4B
:10021800DF0CDE0CDD0CFF3E031D0A295E08831689
:10022800B00083125D088316AF008230B001AF07BB
:10023800031CB003FF30AF07031CB0030330F30007
:10024800F4013008F6002F08F500E2257408B00024
:100258007308AF000A308312A000A101831630088A
:100268008312A30083162F088312A2000A128A158C
:100278006A260A128A1121088316B0008312200800
:100288008316AF00B01F4C29FF30AF07031CB00323
:100298002F03FF3A0A128A15D8240A128A11102746
:1002A8000A128A113D27831625088312B80083167F
:1002B80026088312B900831627088312BA000A1287
:1002C8008A15EC260A128A1135088316A5008312AE
:1002D80036088316A600831237088316A7005B2703
:1002E8000A128A118030F601F7003F30F800A8257D
:1002F8000A128A1103188529FF30AF07031CB003BF
:1003080095295B270A128A112030F601F70041303F
:10031800F800A8250A128A11031C9529AF0A0319A7
:10032800B00A3708803AFF0080307F02031D9E29FB
:100338000D3036020318C929772736080A128A159C
:100348001B210A128A115008C4005108C50052081E
:10035800C600831633088312C70083163408831235
:10036800C800831635088312C9000A168A11732635
:100378000A128A1144088316B300831245088316AB
:10038800B400831246088316B50077273008803AF0
:10039800FF0080307F02031DD3290A302F02031883
:1003A800F42977273508340433040319352A330828
:1003B80032270A128A11FB250A128A112B082A04ED
:1003C80029042804031D352A83163008803AFF00C3
:1003D80080307F02031DF22902302F02031C352AC8
:1003E80077275B270A128A117030F6008930F700E8
:1003F8004030F800A8250A128A110318052AF73098
:10040800062AF830AF07031CB0032F080A128A1512
:10041800D8240A128A1110270A128A11F300340804
:10042800F4003508F5002508F6002608F700270827
:10043800F8007A270A128A1176088316A30075082D
:10044800A2007408A1007308A0002308AC002208C9
:10045800AB002108AA002008A900B301B401B50126
:10046800762A7727330832270A128A11FB250A12BF
:100478008A1102270A128A118316A9002C088312EE
:10048800A60083162B088312A50083162A08831258
:10049800A400831629088312A300A6260A128A112B
:1004A8002308D0002408D1002508D2008316330879
:1004B8008312D300831634088312D40083163508B8
:1004C8008312D500C6260A128A1150088316B30073
:1004D800831251088316B400831252088316B5009C
:1004E800AF01B001B801B80AF0260A168A11002037
:1004F8000A128A11DE000A168A1100200A128A11CD
:10050800DF000A168A1100200A128A11E0000A1672
:100518008A1100200A128A11E10083162C02031D99
:10052800A52A8312600883162B02031DA52A8312AD
:100538005F0883162A02031DA52A83125E08831604
:100548002902031CAC2AB80A38080A3A031D782A7B
:10055800360838078312DD00831637080318370A70
:10056800B81BFF3E8312DE0083162F0883125D0737
:10057800DF00831630080318300A83125E07E00094
:100588005F088316B102831260088316031CB20346
:10059800B202370836040319D52AFF30B107031C05
:1005A800B2032D0803390319DD2AFF30B107031CF4
:1005B800B2032D19E92AFE2A303064250A128A115D
:1005C800FF308316B107031CB2033208803AFF00DC
:1005D80080307F02031DF22A01303102031C3C2BBC
:1005E800E02A203064250A128A11FF308316B107E9
:1005F800031CB2033208803AFF0080307F02031DDB
:10060800072B013031020318F52A77272D08033903
:1006180003193C2B2D30392BFA260A128A11F026A1
:100628000A168A1100200A128A11A0000A168A11D5
:1006380000200A128A11A1000A168A1100200A1243
:100648008A11A2000A168A1100200A128A11DE26CF
:100658000A128A1156260A128A111D270A128A11AD
:100668006A250A128A112808303E64250A128A115E
:100678007727B803380F102B3008803AFF008030F6
:100688007F02031D492B01302F02031C552B3030EC
:1006980064250A128A11FF308316AF07031CB003C2
:1006A800402B77273708803AFF0080307F02031DF0
:1006B8005F2B09303602031C642B08307727662B22
:1006C80077273608B8008312DD00DE01DD1BDE0364
:1006D8008316B60283125E088316031CB703B7029B
:1006E80038080319792B2E306425831638080A1226
:1006F8008A15D8240A128A114408B8004508B90096
:100708004608BA00831633083D270A128A15EC26D4
:100718000A128A113508A8003608A9003708AA0065
:10072800FB250A128A1102270A128A11012CFA26BD
:100738000A128A11F0260A168A1100200A128A1152
:10074800A0000A168A1100200A128A11A1000A16AE
:100758008A1100200A128A11A2000A168A110020A2
:100768000A128A11DE260A128A1156260A128A11DC
:100778001D270A128A116A250A128A112808303E92
:1007880064250A128A118316F0260A168A11002097
:100798000A128A11A8000A168A1100200A128A1160
:1007A800A9000A168A1100200A128A11AA000A163C
:1007B8008A1100200A128A11AB0083162C088312B2
:1007C800AF0083162B088312AE0083162A08831203
:1007D800AD00831629088312AC006A250A128A1113
:1007E8002B088316AC0083122A088316AB008312E9
:1007F80029088316AA00831228088316A900B803BB
:10080800380F9B2B37083604031915283030642518
:100818000A128A11FF308316B607031CB703062C89
:10082800831624088400831362270A128A115D083C
:100838008316A90083125E088316AA000030AA1B3B
:10084800FF30AB00AC00A40AA40AAC1F382C03305C
:10085800AD04A909AA09AB09AC09A90A0319AA0A8E
:100868000319AB0A0319AC0A37083604031D442CD4
:100878002C082B042A0429040319B60A0319B70AF9
:10088800B801B80AF0260A168A1100200A128A113D
:10089800DE000A168A1100200A128A11DF000A16E1
:1008A8008A1100200A128A11E0000A168A11002013
:1008B8000A128A11E10083162C02031D732C83127D
:1008C800600883162B02031D732C83125F0883169E
:1008D8002A02031D732C83125E0883162902031C47
:1008E8007A2CB80A38080A3A031D462C38084827D3
:1008F8000A128A113708803A83125F02031D882C76
:100908008316360883125D0203188E2C7727360863
:10091800B800A62C831652270A128A113708803A83
:100928008312DF005E08803A5F02031D9E2C5D087B
:10093800831636020318A62C77273808B600B701A5
:10094800B61BB7037727320831040319B32C2D08D7
:1009580003390319B32CFF30B107031CB2032E1F50
:10096800D02C3708803A8312DD0083163208803A8B
:1009780083125D02031DC32C831631083602031847
:10098800CD2C77273608B1023708031CB203B20210
:10099800D02C7727B101B201380848270A128A11EA
:1009A8003208803A83125F02031DDE2C8316310859
:1009B80083125D020318EC2C831652270A128A113F
:1009C800B10283125E088316031CB203B202EF2C35
:1009D8007727B101B2012D1D082D2D080339031900
:1009E800F92C2D3064250A128A1183163208310435
:1009F8000319212D303064250A128A11FF3083161D
:100A0800B107031CB203FA2C320831040319192D5B
:100A1800203064250A128A11FF308316B107031C9F
:100A2800B20332083104031D0C2D2D0803390319B4
:100A3800212D2D3064250A128A11FF308316B6073E
:100A4800031CB703360A0319370A031915280A3095
:100A58008312A800A901AA01AB01831636088312E4
:100A6800DD000310DD0D03105D0D4F3E84000A16F6
:100A78008A1100200A128A11A0000A168A11002081
:100A88000A128A11A1000A168A1100200A128A1174
:100A9800A2000A168A1100200A128A11DE260A12FA
:100AA8008A1156260A128A111D270A128A116A25E6
:100AB8000A128A112808303E8316B8001E2D080035
:100AC80083120313A3000A128A15862A2B082A0404
:100AD8002904280403199F2DF801F80AAB1B7A2D65
:100AE8000310A80DA90DAA0DAB0D712D2B082F020F
:100AF800031D882D2A082E02031D882D29082D0282
:100B0800031D882D28082C02031C992D2808AC02E7
:100B18002908031C290FAD022A08031C2A0FAE025C
:100B28002B08031C2B0FAF020310AB0CAA0CA90C4B
:100B3800A80CF80B7A2D2F08AB002E08AA002D0858
:100B4800A9002C08A8000800F51FB72D7308003C61
:100B5800F3007408031C740F003CF4007508031CB0
:100B6800750F803CF500F81FC62D7608003CF6008E
:100B78007708031C770F003CF7007808031C780FF0
:100B8800803CF8008030F506F80678087502031DE9
:100B9800080077087402031D08007608730208002D
:100BA800F4003A30F30174020318E02D3030740277
:100BB800031CE02DF301F30A730C0800F701F80198
:100BC800731CEC2D7508F7070318F80A7608F80760
:100BD8000310F50DF60D0310F40CF30C74087304F0
:100BE800031DE42D7808F4007708F3000800702747
:100BF8000A128A1103102D0D2E0DB400B408031D1E
:100C08000A2EA801A901AA01AB01080070270A123F
:100C18008A1117300310AE0CAD0CAC0CFF3E031D4F
:100C28000E2E2C08AF00A917AA012808B000290821
:100C3800B1002A08B2008E30B301B402B41F312EBD
:100C48003408803A8F3E031C052E0310B30CB20CF7
:100C5800B10CB00CB40F292E3F2E183034020318F3
:100C6800052EB40803193F2E0310B00DB10DB20DB7
:100C7800B30DB403352E2F0803194D2EB009B10951
:100C8800B209B309B00A0319B10A0319B20A031960
:100C9800B30A3308AB003208AA003108A9003008AB
:100CA800A8000800F301F401F501F6012308220465
:100CB800210420040319952EF701F70AA31B6A2EB5
:100CC8000310A00DA10DA20DA30D612E0310F30DAD
:100CD800F40DF50DF60D23082702031D7D2E2208BD
:100CE8002602031D7D2E21082502031D7D2E2008C6
:100CF8002402031C8F2E2008A4022108031C210FA4
:100D0800A5022208031C220FA6022308031C230F96
:100D1800A70273140310A30CA20CA10CA00CF70BD0
:100D28006A2E7608A3007508A2007408A10073084B
:100D3800A0000800750874047304031908008030C3
:100D4800F50608008E30F800FF3026050319B32E8B
:100D58000310A60CA50CA40CA30CF80AA82E2308B3
:100D6800F3002408F4002508F5007808F600F701D8
:100D78000A128A1569277308A3007408A400750865
:100D8800A50008008030D2065308C4005408C500E6
:100D98005508C6005008C7005108C8005208C900C5
:100DA8000A168A1173264408D0004508D10046085F
:100DB800D2000800A30083162C088312A70083160C
:100DC8002B088312A60083162A088312A50083160F
:100DD80029088312A400080038088312DD000310D4
:100DE800DD0D03105D0D4F3E840008000A308312AC
:100DF800A800A901AA01AB01831608002B088316D5
:100E0800AC0083122A088316AB00831229088316C4
:100E1800AA0083122808080044088316A500831234
:100E280045088316A600831246088316A7003308D0
:100E380008002308AF002208AE002108AD002008F2
:100E4800AC00080073078312DD000030031801307E
:100E58007407DE005D08D03E831608008312A800E0
:100E6800831634088312A900831635088312AA0052
:100E780008008312B500831634088312B60083165F
:100E880035088312B70008008312DD00DE01DD1B80
:100E9800DE035E08803ADF00831608000313380873
:100EA8008312DD00DE01DD1BDE0383160800250842
:100EB800F3002608F4002708F5000800000883124C
:100EC800DD00840A0008DE00080083125E080318AB
:100ED800013EFF3E831608002808AC002908AD0033
:100EE8002A08AE000800831603130800730883124B
:100EF800A0007408A1007508A2000310210D220D9E
:100F0800A800A808031D8D2FF301F401F501F601CF
:100F180008007608A0007708A1007808A20003104E
:100F2800210D220DA700A7080319882F7F30F41779
:100F3800F501F717F801A301A401A501A601A8026C
:100F480098302707A000A8021830A7000310A30DA7
:100F5800A40DA50DA60D78087502031DB92F7708F5
:100F68007402031DB92F76087302031CC72F760875
:100F7800F3027708031C770FF4027808031C780A39
:100F8800F50223140310F30DF40DF50DA70BAA2F8A
:100F9800A81FDB2F2808803A973E031C882F0310D0
:100FA800A60CA50CA40CA30CA80FD32FE92F18305E
:100FB80028020318882FA8080319E92F0310A30D86
:100FC800A40DA50DA60DA803DF2F2608F6002508F9
:0C0FD800F5002408F4002308F3000800D2
:1010040083161812181503170230871503139A0054
:101014000830990098161813831298170800F901DC
:10102400FA01E901EA01EB01EC01ED01EE0183169D
:10103400B901BA01BB01BC01BD01BE01BF01C001C0
:10104400C101C201C301C401C50183010A128A1589
:101054002B2883160317890188010A128A15B522E1
:101064000A128A15831609108910831289108316AF
:1010740009110614071183127C309210121483167E
:101084009200831291010C30121597009014901263
:10109400101210158E018F011013101483160630D0
:1010A4008112811101118114011083128100013018
:1010B4008B160B118B170B17831695004130811378
:1010C4008B170B168B108312E300EE30E200E20B59
:1010D4006928E30B692864002C3083120313EB00A6
:1010E4000130EC002C30A8000130A9000A128A1546
:1010F40041240A128A150A128A1502200A128A1534
:101104000A168A11AF250A128A1502308312E700E3
:10111400E801831203136708B93E840083130008AF
:10112400E2006708FE3E643E840062088000E70A2D
:101134000319E80A6808803AFF0080307F02031D23
:10114400A52805306702031C8B2864300A168A110F
:1011540012260A128A152108EC002008EB0016302A
:10116400B501B6004430B700B430A601A70043303F
:10117400A8006E08A4006D08A3000A128A1555245D
:101184000A128A152308A9002408AA002508AB001E
:101194000A128A1570240A128A152608B80027082C
:1011A400B9002808BA000A128A15EC260A128A1510
:1011B40035088316C300831236088316C4008312CD
:1011C40037088316C50083126C08A9006B08A800B1
:1011D4000A128A1541240A128A150030F8010A12EB
:1011E4008A156D220A128A15831643088312DA00BF
:1011F400831644088312DB00831645088312DC003F
:1012040082300A128A1111200A128A150030F8015C
:10121400F80A0A128A156D220A128A156E08DB0072
:101224006D08DA0077300A128A1111200A128A1521
:1012340087288312D9006E305902031CA629033073
:10124400A3000A30F8006430F30059083B220A1264
:101254008A1520220A128A155B270A128A151C3E57
:1012640084000A168A1100200A128A15B5000A168B
:101274008A1100200A128A15B6000A168A11002063
:101284000A128A15B7000330A3006430F800590825
:1012940020220A128A155B270A128A15373E840017
:1012A4000A168A1100200A128A15B8000A168A1131
:1012B40000200A128A15B9000A168A1100200A129F
:1012C4008A15BA000A128A15EC260A128A156622B1
:1012D4000A128A150330A3000A30F30059083B228E
:1012E4000A128A155B270A128A15013E84000A161F
:1012F4008A1100200A128A15B5000A168A110020E4
:101304000A128A15B6000A168A1100200A128A15D2
:101314005E220A128A15EC260A128A153508D300B1
:101324003608D4003708D5003F30B501B601B70000
:101334005308B8005408B9005508BA000A128A15AF
:10134400EC260A128A15572A0B305902031CFA2973
:101354000330A3000A30F30059083B220A128A150D
:101364005B270A128A15013E84000A168A1100209E
:101374000A128A15B5000A168A1100200A128A1563
:10138400B6000A168A1100200A128A15B700033023
:10139400A3000A30F800590820220A128A155B2794
:1013A4000A128A151C3E84000A168A1100200A12A9
:1013B4008A15B8000A168A1100200A128A15B90083
:1013C4000A168A1100200A128A15BA000A128A150E
:1013D400EC260A128A1566220A128A153F30B501D4
:1013E400B6015E220A128A15EC260A128A15572AB9
:1013F4003F30B501B601B7000330A30059080A1203
:101404008A155B270A128A15013E84000A168A117E
:1014140000200A128A15B8000A168A1100200A123E
:101424008A15B9000A168A1100200A128A15BA0010
:101434000A128A15EC260A128A15572AA000A2015C
:1014440078080319392AA101A10AF81B2C2A0310D0
:10145400F80D262A0310A20D78082002031C362A50
:101464007808A00222140310F80CA10B2C2A2208DD
:101474000800F5000830F600F7017508F40007309D
:101484000310F40CFF3E0310031D432A770D74046C
:10149400F7000310F50D73087702031C532A730831
:1014A400F702F60B3F2A770808003508D000360803
:1014B400D1003708D2000800B7005608B800570812
:1014C400B9005808BA0008003508D6003608D70015
:1014D4003708D80008008312A00078080319752A79
:1014E4004030A100762AA1012008A10721088038F4
:1014F400F300003072230A128A1502240A128A1594
:101504000038031908007F2AA200AC2A0030F30136
:10151400F30A72230A128A1502240A128A15003861
:10152400031908008E2A0030F801F80A6D2A2208EF
:1015340029240A128A15031C08002208F30001302A
:1015440072230A128A1502240A128A150038031912
:101554000800A52A22080A3A0319952A063A03190B
:10156400882A992A08000313881188100811081280
:101574008812081388138312033088118810081105
:10158400A2008A30A1005630A000A00BC72AA10BEC
:10159400C72AA20BC72ACE2A3030F30000307223A8
:1015A4000A128A150230A2004530A100A930A00019
:1015B400A00BDA2AA10BDA2AA20BDA2AE12A3030AC
:1015C400F300003072230A128A150230A20045305B
:1015D400A100A930A000A00BED2AA10BED2AA20BBB
:1015E400ED2AF42A3230F300003072230A128A15ED
:1015F4000330A2008A30A1005630A000A00B002BBB
:10160400A10B002BA20B002B072B03303E24A200BE
:101614008A30A1005630A000A00B0E2BA10B0E2B7C
:10162400A20B0E2B152B03303E24A2008A30A100FE
:101634005630A000A00B1C2BA10B1C2BA20B1C2BA7
:10164400232B02240A128A150038031D232B283069
:10165400F300003072230A128A1502240A128A1532
:101664000038031D2F2B0830F300003072230A12B8
:101674008A1502240A128A150038031D3B2B0C30EC
:10168400F300003072230A128A1502240A128A1502
:101694000038031D472B0030F301F30A72230A12AA
:1016A4008A1502240A128A150038031D532B0430AC
:1016B400F300003072230A128A1502240A128A15D2
:1016C4000038031D5F2B0030F301F30A72230A1262
:1016D4008A1502240A128A150038031908006B2B94
:1016E400F600831603130812881208138813831252
:1016F40088107608031D88142130F400F40B802B25
:101704003E2421300811F400F40B862B3E2488116A
:101714007308F700770E0139F400740C031C952B41
:101724003E240816972B3E240812770EF400740CFE
:101734000139F500750C031CA22B3E248816A42B3A
:101744003E248812770E37240A128A15031CAD2B07
:101754003E240817AF2B3E240813770D770D01396B
:10176400F400740C031CB92B3E248817BB2B3E24B5
:1017740088132130F400F40BBD2B3E24213088154E
:10178400F400F40BC32B3E24881177080139F400CC
:10179400740C031CD02B3E240816D22B3E240812B2
:1017A400770C0139F400740C031CDB2B3E248816DF
:1017B400DD2B3E248812770CF400740C0139F500FB
:1017C400750C031CE82B3E240817EA2B3E2408134F
:1017D400770C37240A128A15031CF32B3E2488172E
:1017E400F52B3E2488132130F400F40BF72B3E2410
:1017F40021308815F400F40BFD2B3E2488110800D9
:1018040083160313081688160817881783122130C5
:1018140008158810F300F30B0D2C3E242130881595
:10182400F300F30B132C00303E24881B0130F4002A
:1018340021308811F300F30B1D2C3E242130881530
:10184400F300F30B232C3E24881174080800F400E1
:101854007F30F30174020318352C20307402031C0A
:10186400352CF301F30A730C0800F400F40C740C27
:101874000139F500750C08008312031308000430C5
:10188400A000A1012908A3002808A2006A262008B4
:1018940095009712171228080239013A031997166E
:1018A400281817160800F801A41F5F2CA309A4091F
:1018B400A30A0319A40AF801F80A2308F300240868
:1018C400F4008E30F501F6007808F70069277308F4
:1018D400A3007408A4007508A50008002908AC003A
:1018E4002A08AD002B08AE0003102D0D2E0DB300F9
:1018F400B308031D812CA601A701A801080026082E
:10190400AC002708AD002808AE0003102D0D2E0DE5
:10191400B400B408031D922CA601A701A801080075
:101924008930B001B101B2013407AC00B3022B0815
:10193400B4002808B4068030B4051830AA17AB01E7
:10194400A717A801AF000310B00DB10DB20D280800
:101954002B02031DB32C27082A02031DB32C2608CF
:101964002902031CC12C2608A9022708031C270FDF
:10197400AA022808031C280AAB0230140310A90D7C
:10198400AA0DAB0DAF0BA52C3008F3003108F40001
:101994003208F5003308F6003408F70069277308A5
:1019A400A6007408A7007508A80008008312CE00DA
:1019B400CE1FA42DCE09CE0A4E08803A123E031C37
:1019C400482D0A30CB270A128A15AF260A128A1527
:1019D4007408A3007308A2006A260A128A15E8276D
:1019E4001C3E84000A168A1100200A128A15B500CA
:1019F4000A168A1100200A128A15B6000A168A11DC
:101A040000200A128A15F8270A128A15A21BA303BA
:101A14006A260A128A15BC27373E84000A168A11E0
:101A240000200A128A15B8000A168A1100200A1228
:101A34008A15B9000A168A1100200A128A15BA00FA
:101A4400EC260A128A15A7270A128A15F51BF60333
:101A5400AF260A128A15B427013E84000A168A1199
:101A640000200A128A15B5000A168A1100200A12EB
:101A74008A15B6000A168A1100200A128A15F02760
:101A84000A128A15EC260A128A15C42F4E08803AC7
:101A9400753E031C8D2D0A30F300F4014E08F50049
:101AA400F601F51BF603AF260A128A15B427013E88
:101AB40084000A168A1100200A128A15B5000A1633
:101AC4008A1100200A128A15B6000A168A1100200B
:101AD4000A128A15E0270A128A15A21BA3036A2692
:101AE4000A128A15BC271C3E84000A168A1100209B
:101AF4000A128A15B8000A168A1100200A128A15D9
:101B0400B9000A168A1100200A128A15BA00EC26B6
:101B14000A128A15C42F0330A3004E085B27013E26
:101B240084000A168A1100200A128A15C4000A16B3
:101B34008A1100200A128A15C5000A168A1100208B
:101B4400C60008004E08803A123E031C0E2E0A30CE
:101B5400CB270A128A15AF260A128A157408A30025
:101B64007308A2006A260A128A15E827433E8400F5
:101B74000A168A1100200A128A15B5000A168A115B
:101B840000200A128A15B6000A168A1100200A12C9
:101B94008A15F8270A128A15A21BA3036A260A12B9
:101BA4008A15BC275E3E84000A168A1100200A1298
:101BB4008A15B8000A168A1100200A128A15B9007B
:101BC4000A168A1100200A128A15BA00EC260A1293
:101BD4008A15A7270A128A15F51BF603AF260A12DF
:101BE4008A15B427283E84000A168A1100200A1296
:101BF4008A15B5000A168A1100200A128A15B60041
:101C04000A168A1100200A128A15F0270A128A1568
:101C1400EC260A128A15C42F4E08803A753E031C1E
:101C2400532E0A30F300F4014E08F500F601F51BBB
:101C3400F603AF260A128A15B427283E84000A1632
:101C44008A1100200A128A15B5000A168A1100208A
:101C54000A128A15B6000A168A1100200A128A1579
:101C6400E0270A128A15A21BA3036A260A128A1500
:101C7400BC27433E84000A168A1100200A128A15E2
:101C8400B8000A168A1100200A128A15B9000A1629
:101C94008A1100200A128A15BA00EC260A128A1543
:101CA400C42F0330A3004E085B27283E84000A1685
:101CB4008A1100200A128A15C4000A168A1100200B
:101CC4000A128A15C5000A168A110020C6000800E7
:101CD400A501A11F742EA009A109A00A0319A10A34
:101CE400A501A50AA31F7D2EA209A309A20A03190F
:101CF400A30A0130A506A601A7012108200403199F
:101D0400A22EA401A40AA11B8B2E0310A00DA10DC9
:101D1400842E0310A60DA70D21082302031D942E63
:101D240020082202031C9E2E2008A2022108031C64
:101D3400A303A30226140310A10CA00CA40B8B2E46
:101D440025080319AA2EA609A709A60A0319A70A92
:101D54002708A1002608A0000800F801F61FB92EE4
:101D6400F509F609F50A0319F60AF801F80AF41F49
:101D7400C02EF309F409F30A0319F40A740873046E
:101D84000319DF2EF701F70AF41BCC2E0310F30D11
:101D9400F40DC52E74087602031DD22E7308750245
:101DA400031CDB2E7308F5027408031CF603F60209
:101DB4000310F40CF30CF70BCC2E78080319E72E60
:101DC400F509F609F50A0319F60A7608F400750808
:101DD400F30008003508BB003608BC003708BD0016
:101DE40003103C0D3D0DBE00BE08031DFD2EB501C4
:101DF400B601B70108003808BB003908BC003A082E
:101E0400BD0003103C0D3D0DC300C308031D0E2F80
:101E1400B501B601B701080043087B3EBE07370889
:101E2400C3003A08C3068030C3050730B617B91794
:101E3400BA01BF01C001C101C200351C292F3808F5
:101E4400D6270A128A1503183A0A031DC10703107C
:101E5400B70CB60CB50C0310B80DB90DBA0DC20B06
:101E64001F2F0930C200351C3F2F3808D6270A120D
:101E74008A1503183A0A031DC1070310B70CB60CE0
:101E8400B50C0310C10CC00CBF0CC20B352F3F089E
:101E9400F3004008F4004108F5003E08F60043084A
:101EA400F70069277308B5007408B6007508B70011
:101EB4000800A500A40123082518A4070310A30DF6
:101EC4000310A50CA508031D5D2F2408080076083F
:101ED4000319712F750874047304031D7A2FF30119
:101EE400F401F5010800F60A0310F50CF40CF30CE8
:101EF400FE3075050319892F752FF60AF30A0319A5
:101F0400F40A0319F50A0310F50CF40CF30CFF3072
:101F140075050319932F7F2FF6030310F30DF40DAA
:101F2400F50DF41F8E2F761CF4130310F60C7608AF
:101F3400A200A101A0012008F3042108F40422084E
:101F4400F5047708031DF51708003508CB0036089B
:101F5400CC003708CD000A30F300F4014E08F50038
:101F6400F60108007308C7007408C800470847074B
:101F7400470708002008C9002108CA004908490782
:101F8400490708003508C4003608C5003708C600EC
:101F94000800A000A1014E08F500F601F51BF603A8
:101FA4006430F300F4010800BF0739080311031873
:101FB400390A031DC0073A0803110800B7000A30A4
:101FC400A000A1014E08A200A30108002008C70038
:101FD4002108C8004708470747070800B7004B080F
:101FE400B8004C08B9004D08BA000800B7006430C6
:101FF400A000A1014E08A200A301080010308A002D
:102004000408840A82070034003480343F34CD3419
:10201400CC343D34D73423343C34123483343A340E
:10202400B734D1343834C63427343734383486346A
:102034003534C034D6343334CC342B343234703465
:1020440089343034E734DB342E34E5343C341E3404
:102054004234A2340D34003480343F34003420340C
:1020640041340034C834423400347A344434403483
:102074001C3446345034C33447342434743449341F
:10208400973418344B34BC34BE344C346B346E3413
:102094004E340334153450347934AD346034F3346D
:1020A4004934713401340034003400340A340034C7
:1020B400003400346434003400340034E83403342D
:1020C400003400341034273400340034A03486340F
:1020D40001340034403442340F34003480349634B4
:1020E400983400340034E134F53405340034CA340F
:1020F4009A343B34783475346E3467343A3420344B
:102104002534303435346434003476343A3420346D
:0C211400253433342E3432346634003469
:102B5E0083161812181503170230871503139A00DF
:102B6E0008309900831218161813981783168C16AE
:102B7E0083128C120B178B1708000B1DDB2D0630E2
:102B8E00831203138100E90A0319EA0A6908FA3A63
:102B9E006A04031DDA2DE901EA010F08EE000E08A2
:102BAE00ED008E018F010B11831203138C1E092E63
:102BBE007908B93E84001A0883138000F90A0319B4
:102BCE00FA0A7908053A7A04031DEF2DF901FA0184
:102BDE001A08533A031DF82D091489100911121100
:102BEE00082E1A084C3A031D002E091489100915D7
:102BFE00072E1A08523A031D082E091089140911BE
:102C0E0012158C1272088A0071088400700E8300EF
:102C1E00FE0E7E0E090083120313A7002708840000
:102C2E0083130008203A031D1E2EA70A152E27080F
:102C3E0084000008093A03191C2EA501A601A4015F
:102C4E002708840000082D3A031D2F2EA40A5D2E9E
:102C5E002708840000082B3A03195D2E27088400EC
:102C6E0000080A128A11D4250A168A11031C5F2E37
:102C7E00270884002608F4002508F3000A30F50022
:102C8E00F6010A128A11E2250A168A110008730744
:102C9E00A2000030031801307407A3002208D03EB2
:102CAE00A50023080318013EFF3EA600A70A352EF5
:102CBE00240803196E2E2509A2002609A300A20AD4
:102CCE000319A30A2208A0002308A1000800260861
:102CDE00A1002508A00008004408CA004508CB0042
:102CEE004608CC0003104B0D4C0DCF004708CA0010
:102CFE004808CB004908CC0003104B0D4C0DCE00FC
:102D0E004F080319962E4E084F024E0803189E2E9A
:102D1E00CA004F08CA0219304A02031C9D2E4708EA
:102D2E00C4004808C5004908C60008004E0803192B
:102D3E0008004F084E020318AC2E4F08CA004E086A
:102D4E00CA0219304A02031808000630CD00C61B0D
:102D5E00CD17C91B4D17C517C601C817C9014E0897
:102D6E004F020318D32E0310C70DC80DC90DCE0385
:102D7E004E084F060319CE2ECD034D080739031901
:102D8E00CE2EBA2E0310C60CC50CC40CCF0A4F089B
:102D9E004E060319EF2EC92E4F084E020318EF2EC2
:102DAE000310C40DC50DC60DCF034E084F060319F3
:102DBE00EB2ECD034D0807390319EB2ED72E03103A
:102DCE00C90CC80CC70CCE0A4F084E06031DE62EC2
:102DDE00CD1FFA2EFF30C406C506C606C40A031957
:102DEE00C50A0319C60A4D1F052FFF30C706C806B0
:102DFE00C906C70A0319C80A0319C90ACD0144082E
:102E0E00C707450803110318450A031DC8074608DE
:102E1E0003110318460A031DC907C91F212FFF30CE
:102E2E00C706C806C906C70A0319C80A0319C90A7C
:102E3E00CD01CD0A4708F3004808F4004908F50013
:102E4E004F08F6004D08F7000A128A156927730815
:102E5E00C4007408C5007508C600080073308400ED
:102E6E00000883120313A000840A0008A100840A3C
:102E7E000008A200840A0008A3000310220D230DEF
:102E8E00AD00AD08031D502FF301F401F501F6015D
:102E9E0008007630F3270A168A110310220D230D2F
:102EAE00AC00AC0803194B2F733084008030840AB9
:102EBE00840A80047330840A84007630840A840A7B
:102ECE00840A800184008030840A840A800476306B
:102EDE00840A84007F30840A840A840A8001A8014F
:102EEE00A901AA01AB01AD02A0302C07A000AD02D2
:102EFE002030AC0076300310A80DA90DAA0DAB0D35
:102F0E00F3270A168A11733084000008A400840A7D
:102F1E000008A500840A0008A600840A0008A7007D
:102F2E0023082702031DA52F22082602031DA52F05
:102F3E0021082502031DA52F20082402031CC12FE2
:102F4E007630F3270A168A11733084002008800227
:102F5E00840A2108031C210F8002840A2208031C04
:102F6E00220F8002840A2308031C230A80020330E6
:102F7E0084022814733084000310800D840A800D9F
:102F8E00840A800D840A800DAC0B812FAD1FDC2FBF
:102F9E002D08803A9F3E031C4B2F0310AB0CAA0C3E
:102FAE00A90CA80CAD0FD42FEA2F20302D02031838
:102FBE004B2FAD080319EA2F0310A80DA90DAA0D6A
:102FCE00AB0DAD03E02F2B08F6002A08F5002908FB
:102FDE00F4002808F300080084000008A000840A0A
:102FEE000008A100840A0008A200840A0008A300B9
:022FFE000800C9
:02400E00C2E30B
:00000001FF
