:060000000A128A11122809
:10000800FE00030EFA000408FB000A08FC00831235
:1000180003137F08FD000A128A1115280A128A1193
:10002800C6288B1C2B289210121491017C30831641
:10003800920083124C3012159700C230A000013094
:10004800A100F9002008F8004D200A128A110B18A7
:10005800861C402892101214910154308316920085
:100068008312CC3012159700EE30A000A1012108B0
:10007800F9002008F8004D200B108B107D08FF00B8
:100088007C088A007B0884007A0E8300FE0E7E0EB0
:1000980009000430F000F1017908F3007808F20053
:1000A8006120700895009712171278080239013AF2
:1000B80003199716781817160800F501F11F6B2811
:1000C800F009F109F00A0319F10AF501F50AF31F1D
:1000D8007428F209F309F20A0319F30A0130F50644
:1000E800F601F7017108700403199928F401F40A5C
:1000F800F11B82280310F00DF10D7B280310F60D7B
:10010800F70D71087302031D8B2870087202031C17
:1001180095287008F2027108031CF303F3027614A1
:100128000310F10CF00CF40B822875080319A128B0
:10013800F609F709F60A0319F70A7708F1007608AD
:10014800F0000800831603178901880103130711BB
:1001580083120711831688128312881283160813D4
:1001680083120813831688138312881383160614C0
:1001780086140B168B1001138B1796148B150B1006
:100188008B17C528A001A10183010A128A11A6288C
:02400E00C2E30B
:00000001FF
