:060000000A128A110C280F
:10000800FE00030EF0000A08F1000A128A11B8294E
:100018000A128A11092B8030F701F70AF800F50156
:100028007908043A031D32287808831203138700DD
:100038000310780C7804F8000630F4001330F3004D
:10004800B130F200F20B2628F30B2628F40B2628F1
:100058002D280830F50A7502031C1428F6017908C2
:10006800043A031D512877088312031388000310EC
:10007800770D7704F7000630F4001330F300B13041
:10008800F200F20B4528F30B4528F40B45284C28C1
:100098000830F60A7602031C3328831203138701FB
:1000A80088010630F4001330F300B130F200F20B8F
:1000B8005B28F30B5B28F40B5B2862287908043A69
:1000C8000319080083120313880187010800803090
:1000D800F700F801F80AF5017908053A031D8E289A
:1000E80077088312031388000310770C7704F7004E
:1000F8000630F4001330F300B130F200F20B82281E
:10010800F30B8228F40B822889280830F50A750237
:10011800031C7028F6017908053A031DAD287808F4
:100128008312031387000310780D7804F800063053
:10013800F4001330F300B130F200F20BA128F30BF6
:10014800A128F40BA128A8280830F60A7602031C77
:100158008F2883120313870188010630F4001330B7
:10016800F300B130F200F20BB728F30BB728F40B09
:10017800B728BE287908053A031908008312031323
:100188008801870108008316870188010317890100
:100198008801FF30031386008312870188018B17BB
:1001A8008B150B1083169600790BDF280A128A111B
:1001B8006E210A128A117908023A031DE8280A12E8
:1001C8008A111F210A128A117908033A031DF1289E
:1001D8000A128A1102220A128A117908043A031DA6
:1001E800FA280A128A110F200A128A117908053A88
:1001F800031D03290A128A116B200A128A11790831
:10020800063A031D0C290A128A1148220A128A1179
:100218007908073A031D15290A128A118B220A1236
:100228008A117908083A031DD8280A128A11CD22A2
:100238000A128A11D8288030F501F50AF800F6016B
:100248007908023A031D43296B2188017808870041
:1002580006300310F80CF4001330F300B130F2004C
:10026800F20B3429F30B3429F40B34293B29780891
:100278006B2187000830F60A7602031C2429F7014F
:100288007908023A031D63296B21870175088800E4
:1002980006300310F50DF4001330F300B130F2000E
:1002A800F20B5429F30B5429F40B54295B297508D4
:1002B8006B2188000830F70A7702031C4429790863
:1002C800023A031908006B2188018701080083128C
:1002D800031308008030F500F801F80AF601790BDD
:1002E8009029B52187017508880006300310F50CA0
:1002F800F4001330F300B130F200F20B8129F30B54
:100308008129F40B812988297508B52188000830CE
:10031800F60A7602031C7329F701790BAE29B52179
:1003280088017808870006300310F80DF4001330B0
:10033800F300B130F200F20B9F29F30B9F29F40B65
:100348009F29A6297808B52187000830F70A77027F
:10035800031C9129790303190800B5218801870135
:1003680008008312031308000B1083120313061CE2
:10037800C3290618BD290618C329F901F90A861CDC
:10038800CB298618C5298618CB290230F900061D05
:10039800D3290619CD290619D3290330F900861D5A
:1003A800DB298619D5298619DB290430F900061EB0
:1003B800E329061ADD29061AE3290530F900861E05
:1003C800EB29861AE529861AEB290630F900061F5B
:1003D800F329061BED29061BF3290730F900861FB0
:1003E800FB29861BF529861BFB290830F9007108B3
:1003F8008A00700E8300FE0E7E0E09005530F7004D
:10040800AA30F8007908033A031D3F2A7908033A0D
:10041800031D3F2A7708F5007808F600750883124F
:1004280003138700760888000630F4001330F300C1
:10043800B130F200F20B1E2AF30B1E2AF40B1E2A0F
:10044800252A831203130708AA3A031D332A08082A
:10045800553A031D332A5530F700AA30F80007082B
:10046800553A031D062A0808AA3A031D062AAA3087
:10047800F7005530052A7908033A03190800831252
:100488000313880187010800F601F60AF701F70A45
:10049800F501760883120313880077088700031094
:1004A800770D7704F7000310760D7604F600063012
:1004B800F4001330F300B130F200F20B612AF30BB1
:1004C800612AF40B612A682A7908063A031D712A01
:1004D8000830F50A7502031C4D2A8312031387019D
:1004E80088010630F4001330F300B130F200F20B4B
:1004F8007B2AF30B7B2AF40B7B2A822A7908063A9B
:10050800031908008312031388018701080080304B
:10051800F600F700F5017908073A031DB32A7608B3
:10052800831203138800770887000310770C770479
:10053800F7000310760C7604F6000630F40013304A
:10054800F300B130F200F20BA72AF30BA72AF40B41
:10055800A72AAE2A0830F50A7502031C8F2A8312CF
:100568000313870188010630F4001330F300B1301B
:10057800F200F20BBD2AF30BBD2AF40BBD2AC42AE4
:100588007908073A031908008312031388018701C1
:100598000800F7017908083A031D002B7908083A82
:1005A800031D002B7708F5007708F60075088312FD
:1005B80003138700760888000630F4001330F30030
:1005C800B130F200F20BE62AF30BE62AF40BE62A26
:1005D800ED2A831203138708031DF72A8808031DD1
:1005E800F72AFF30F7000708FF3A031DCE2A08084C
:1005F800FF3A0319CD2ACE2A7908083A03190800C8
:1006080083120313880187010800F90183010A1284
:040618008A11C72854
:02400E00C2E30B
:00000001FF
