:060000000A128A110C280F
:10000800FE00030EF0000A08F1000A128A11772B8D
:100018000A128A115E2BFA01A11F1928A009A10949
:10002800A00A0319A10AFA01FA0A2008F200210815
:10003800F3008E30F401F5007A08F6000121720809
:10004800A0007308A1007408A20008002608A900EF
:100058002708AA002808AB0003102A0D2B0DB000B2
:10006800B008031D3B28A301A401A501080023082B
:10007800A9002408AA002508AB0003102A0D2B0D9F
:10008800B100B108031D4C28A301A401A501080073
:100098008930AD01AE01AF013107A900B0022808CF
:1000A800B1002508B1068030B1051830A717A8019E
:1000B800A417A501AC000310AD0DAE0DAF0D2508BA
:1000C8002802031D6D2824082702031D6D28230814
:1000D8002602031C7B282308A6022408031C240FDD
:1000E800A7022508031C250AA8022D140310A60D33
:1000F800A70DA80DAC0B5F282D08F2002E08F30001
:100108002F08F4003008F5003108F60001217208C4
:10011800A3007308A4007408A50008003208B800FA
:100128003308B9003408BA000310390D3A0DBB0082
:10013800BB08031DA328B201B301B40108003508A8
:10014800B8003608B9003708BA000310390D3A0D5F
:10015800C000C008031DB428B201B301B4010800EF
:1001680040087B3EBB073408C0003708C006803013
:10017800C0050730B317B617B701BC01BD01BE01F2
:10018800BF00321CCF2835083F210A128A110318F4
:10019800370A031DBE070310B40CB30CB20C0310CE
:1001A800B50DB60DB70DBF0BC5280930BF00321C01
:1001B800E52835083F210A128A110318370A031D5A
:1001C800BE070310B40CB30CB20C0310BE0CBD0C6C
:1001D800BC0CBF0BDB283C08F2003D08F3003E08CE
:1001E800F4003B08F5004008F60001217208B2004F
:1001F8007308B3007408B4000800750803190929C6
:10020800740873047204031D1229F201F301F40146
:100218000800F50A0310F40CF30CF20CFE30740518
:10022800031921290D29F50AF20A0319F30A0319FA
:10023800F40A0310F40CF30CF20CFF3074050319E4
:100248002B291729F5030310F20DF30DF40DF31FF5
:100258002629751CF3130310F50C7508F900F8012D
:10026800F7017708F2047808F3047908F4047608AB
:10027800031DF4170800BC07360803110318360AD3
:10028800031DBD07370803110800831603178901EA
:1002980088010313061405140317081483120313A3
:1002A8009F171F1383169F121F1283129F121F126C
:1002B8009F111F1183169F17831201301F14831675
:1002C8009500413081138B170B168B108312C200D7
:1002D800EE30C100C10B6E29C20B6E296400831673
:1002E80003138910091083120910831687018801E6
:1002F8008312880187010230C3004530C200A9304B
:10030800C100C10B8529C20B8529C30B85298C29FE
:10031800831203139F149F188F291E08C500C40158
:1003280083161E088312C4070318C50A4830B20191
:10033800B3004230B400C030A3007F30A400443082
:10034800A5004508A1004408A0000A128A110F2040
:100358000A128A112008A6002108A7002208A8006E
:100368000A128A112A200A128A112308B5002408C1
:10037800B6002508B7000A128A1192200A128A11BB
:100388003208C8003308C9003408CA000A30A60079
:10039800A7014808F2004908F3004A08F4000A12C5
:1003A8008A114E220A128A117308A9007208A8003D
:1003B8000A128A11B0220A128A112608C6000A30C7
:1003C800A600A7014808F2004908F3004A08F4000B
:1003D8000A128A114E220A128A117308A900720899
:1003E800A8000A128A11F5220A128A112608C700E3
:1003F800F20046080A128A1189230A128A11C830A3
:10040800F201F3004130F4004808F5004908F6000D
:100418004A08F7000A128A1132230A128A110318AD
:10042800362A5503031D362A06300910C300133037
:10043800C200B130C100C10B1F2AC20B1F2AC30B57
:100448001F2A262A8312031306300914C300133007
:10045800C200B130C100C10B2F2AC20B2F2AC30B17
:100468002F2A362A831203134808F2004908F3009A
:100478004A08F4000030F500C830F6004130F700B3
:100488000A128A1132230A128A1103187F290910C5
:10049800D5017F29A9220A128A110310770D780D38
:1004A800A500A508031D5D2AF201F301F401F50179
:1004B8000800A9220A128A1117300310F80CF70C49
:1004C800F60CFF3E031D612A7608A000F317F4011D
:1004D8007208A1007308A2007408A3008E30A4015A
:1004E800A502A51F842A2508803A8F3E031C582A96
:1004F8000310A40CA30CA20CA10CA50F7C2A922A11
:10050800183025020318582AA5080319922A03103F
:10051800A10DA20DA30DA40DA503882A2008031977
:10052800A02AA109A209A309A409A10A0319A20AD8
:100538000319A30A0319A40A2408F5002308F400E0
:100548002208F3002108F20008007208F600730878
:10055800F7007408F8000800AB01A71FBA2AA6091B
:10056800A709A60A0319A70AAB01AB0AA91FC32A40
:10057800A809A909A80A0319A90A0130AB06AC0100
:10058800AD01270826040319E82AAA01AA0AA71B0D
:10059800D12A0310A60DA70DCA2A0310AC0DAD0D64
:1005A80027082902031DDA2A26082802031CE42A40
:1005B8002608A8022708031CA903A9022C14031063
:1005C800A70CA60CAA0BD12A2B080319F02AAC09F0
:1005D800AD09AC0A0319AD0A2D08A7002C08A6001E
:1005E8000800FA01A91FFF2AA809A909A80A0319DE
:1005F800A90AFA01FA0AA71F062BA609A709A60A3B
:100608000319A70A270826040319252BF901F90A53
:10061800A71B122B0310A60DA70D0B2B27082902C9
:10062800031D182B26082802031C212B2608A802C4
:100638002708031CA903A9020310A70CA60CF90B91
:10064800122B7A0803192D2BA809A909A80A03193E
:10065800A90A2908A7002808A6000800F41F412BAA
:100668007208003CF2007308031C730F003CF3008F
:100678007408031C740F803CF400F71F502B750896
:10068800003CF5007608031C760F003CF60077085E
:10069800031C770F803CF7008030F406F7067708D4
:1006A8007402031D080076087302031D080075080C
:1006B800720208003F30D501CB000630CC005B3019
:1006C800CD004F30CE006630CF006D30D0007D3089
:1006D800D1000730D2007F30D3006F30D4008301BF
:1006E8000A128A1149298B1083120313061C822BC4
:1006F80006187C2B0618822BD501D50A71088A00AA
:10070800700E8300FE0E7E0E0900F3004B3E84003F
:1007180083130008870072084B3E84000008880095
:020728000800C7
:02400E00C2E30B
:00000001FF
