:060000000A128A110C280F
:10000800FE00030EF0000A08F1000A128A11C82F38
:100018000A128A1582298316B2005B30A400831263
:100028005A08DA0A84000A128A1500200A128A116C
:100038008316B800B8080319992C3808253A03190B
:100048002928320884003808952CAE01AF01AC018C
:10005800AD0183125A0884000A128A1500200A1278
:100068008A11CA240A128A11031C62288316AE0157
:10007800AF0183162F08F3002E08F2000A30F400AF
:10008800F501D82483125A0884000A128A15002020
:100098000A128A1158270A128A11AE00B727AF0030
:1000A8008312DA0A5A0884000A128A1500200A12F2
:1000B8008A11CA240A128A1103183D285A08840092
:1000C8000A128A1500200A128A112E3A031D9C284A
:1000D80083162D178312DA0A8316B601B701831225
:1000E8005A0884000A128A1500200A128A11CA24A2
:1000F8000A128A11031CA32883163708F30036084E
:10010800F2000A30F400F501D82483125A0884005A
:100118000A128A1500200A128A1158270A128A110F
:10012800B600B7270A128A11B7008312DA0A7328B1
:100138008316B601B7012D16A3282D15B5288312ED
:100148005A08DA0A84000A128A1500200A128A114B
:100158008316B800003A0319992C663A0319A128A6
:10016800132883120730DE0183162D058312DF0062
:100178005E040319FA2B83162D1EC5280630B60017
:10018800B7012408840083130008B300840A000818
:10019800B400840A0008B5000330A4073308F2004D
:1001A8003408F3003508F400F501F601F7019E2440
:1001B8000A128A110318F1283308F2003408F300F0
:1001C8003508F4004B260A128A117208B300730826
:1001D800B4007408B5000330AC04B001B1013508AF
:1001E8003404330403199229B330840000088312BD
:1001F800DE00840A0008DF00840A0008E000840AA0
:100208000008E1000F300310E10CE00CDF0CDE0CFD
:10021800FF3E031D07295F088316B10083125E089D
:100228008316B0008230B101B007031CB103FF3060
:10023800B007031CB1030330F200F3013108F500E5
:100248003008F400D8247308B1007208B0000A30EE
:100258008312A000A101831631088312A30083161C
:1002680030088312A2000A128A156A260A128A1115
:1002780021088316B100831220088316B000B11F2D
:100288004929FF30B007031CB1033003FF3A0A12B3
:100298008A15D8240A128A114B270A128A116E2746
:1002A800831625088312B800831626088312B9001E
:1002B800831627088312BA000A128A15EC260A1236
:1002C8008A1135088316A500831236088316A600FE
:1002D800831237088316A700A9270A128A118030CB
:1002E800F501F6003F30F7009E240A128A11031820
:1002F8008229FF30B007031CB1039229A9270A12EB
:100308008A112030F501F6004130F7009E240A12C8
:100318008A11031C9229B00A0319B10A3708803AD6
:10032800FF0080307F02031D9B290D303602031821
:10033800C429C52736080A128A15E5220A128A1125
:100348005008C4005108C5005208C6008316330877
:100358008312C700831634088312C8008316350831
:100368008312C90053260A128A1144088316B3005F
:10037800831245088316B400831246088316B50015
:10038800C5273108803AFF0080307F02031DCE293F
:100398000A3030020318EF29C5273508340433041E
:1003A8000319302A330863270A128A11F1240A1222
:1003B8008A112B082A0429042804031D302A8316CD
:1003C8003108803AFF0080307F02031DED2902309A
:1003D8003002031C302AC527A9270A128A11703057
:1003E800F5008930F6004030F7009E240A128A1181
:1003F8000318002AF730012AF830B007031CB103AC
:1004080030080A128A15D8240A128A114B270A12B0
:100418008A11F2003408F3003508F4002508F500C5
:100428002608F6002708F700D3250A128A1175084E
:100438008316A3007408A2007308A1007208A00024
:100448002308AB002208AA002108A9002008A80058
:10045800B301B401B501712AC527330863270A120D
:100468008A11F1240A128A113D278316A8002B0845
:100478008312A30083162A088312A2008316290870
:100488008312A100831628088312A0000A128A1575
:1004980052240A128A112008D0002108D10022080B
:1004A800D200831633088312D300831634088312CC
:1004B800D400831635088312D50015270A128A112D
:1004C80050088316B300831251088316B4008312B0
:1004D80052088316B500B001B101B801B80A2B273C
:1004E8000A128A1500200A128A11DF000A128A15D8
:1004F80000200A128A11E0000A128A1500200A1246
:100508008A11E1000A128A1500200A128A11E200F3
:1005180083162B02031DA02A8312610883162A0260
:10052800031DA02A8312600883162902031DA02A2E
:1005380083125F0883162802031CA72AB80A380802
:100548000A3A031D732A360838078312DE00831619
:1005580037080318370AB81BFF3E8312DF008316DB
:10056800300883125E07E000831631080318310A49
:1005780083125F07E10060088316AE0283126108E8
:100588008316031CAF03AF02370836040319D02AB9
:10059800FF30AE07031CAF032C080339031DE62AFE
:1005A8002F08803AFF0080307F02031DDD2A0130CA
:1005B8002E02031CEB2AC52732088400203083133F
:1005C8008000B20AFF30AE07031CAF03D42AC52748
:1005D8002C0803390319222B320884002D301E2BD6
:1005E80035270A128A112B270A128A1500200A12A7
:1005F8008A11F2000A128A1500200A128A11F300E1
:100608000A128A1500200A128A11F4000A128A15A1
:1006180000200A128A1179270A128A118A250A12D9
:100628008A118E270A128A114C250A128A119727D5
:100638000A128A11831380008316B20AB803380F8E
:10064800F42A3108803AFF0080307F02031D2E2BE8
:1006580001303002031C392BC5273208B0270A1293
:100668008A11B007031CB103252BC5273708803A28
:10067800FF0080307F02031D432B09303602031C24
:10068800482B0830C5274A2BC5273608B8008312DF
:10069800DE00DF01DE1BDF038316B60283125F086C
:1006A8008316031CB703B70238080319612B3208F5
:1006B80084002E3083138000B20A38080A128A1583
:1006C800D8240A128A114408B8004508B900460817
:1006D800BA00831633086E270A128A15EC260A1206
:1006E8008A113508A8003608A9003708AA00F1249D
:1006F8000A128A113D270A128A11E92B35270A1294
:100708008A112B270A128A1500200A128A11F20070
:100718000A128A1500200A128A11F3000A128A1591
:1007280000200A128A11F4000A128A1500200A12FF
:100738008A1179270A128A118A250A128A118E27A4
:100748000A128A114C250A128A1197270A128A114D
:10075800831380008316B20A2B270A128A150020F9
:100768000A128A11A5000A128A1500200A128A1193
:10077800A6000A128A1500200A128A11A7000A1276
:100788008A1500200A128A11A80083162B088312E2
:10079800AC0083162A088312AB008316290883123B
:1007A800AA00831628088312A9004C250A128A1168
:1007B80028088316AB00831227088316AA00831221
:1007C80026088316A900831225088316A800B803F3
:1007D800380F822B37083604031913283208B0273C
:1007E8000A128A11B607031CB703EE2B83163708C3
:1007F8003604031D072C2B082A042904280403198E
:10080800B60A0319B70A380884270A128A11370862
:10081800803A83126002031D152C83163608831252
:100828005E0203181B2CC5273608B800332C831624
:10083800A0270A128A113708803A8312E0005F085D
:10084800803A6002031D2B2C5E08831636020318BB
:10085800332CC5273808B600B701B61BB703C52720
:100868002F082E040319402C2C0803390319402C97
:10087800FF30AE07031CAF032D1F5D2C3708803AED
:100888008312DE0083162F08803A83125E02031D4E
:10089800502C83162E08360203185A2CC527360802
:1008A800AE023708031CAF03AF025D2CC527AE01AB
:1008B800AF01380884270A128A112F08803A831258
:1008C8006002031D6B2C83162E0883125E02031828
:1008D800792C8316A0270A128A11AE0283125F08A8
:1008E8008316031CAF03AF027C2CC527AE01AF01F2
:1008F8002F082E0403198E2C32088400203083130D
:100908008000FF30B20AAE07031CAF032F082E0485
:10091800031D802C2C08033903191328320884007E
:100928002D3083138000B20A132832088400831301
:1009380080010800F41FAD2C7208003CF200730817
:10094800031C730F003CF3007408031C740F803CF5
:10095800F400F71FBC2C7508003CF5007608031C52
:10096800760F003CF6007708031C770F803CF700F1
:100978008030F406F70677087402031D080076082D
:100988007302031D0800750872020800F3003A306C
:10099800F20173020318D62C30307302031CD62CD4
:1009A800F201F20A720C0800F601F701721CE22C3F
:1009B8007408F6070318F70A7508F7070310F40D0B
:1009C800F50D0310F30CF20C73087204031DDA2CF6
:1009D8007708F3007608F2000800BE270A128A1189
:1009E80003102D0D2E0DB400B408031D002DA80111
:1009F800A901AA01AB010800BE270A128A11173003
:100A08000310AE0CAD0CAC0CFF3E031D042D2C08DE
:100A1800AF00A917AA012808B0002908B1002A08C0
:100A2800B2008E30B301B402B41F272D3408803AC7
:100A38008F3E031CFB2C0310B30CB20CB10CB00C92
:100A4800B40F1F2D352D183034020318FB2CB408B1
:100A58000319352D0310B00DB10DB20DB30DB4034C
:100A68002B2D2F080319432DB009B109B209B30979
:100A7800B00A0319B10A0319B20A0319B30A3308F1
:100A8800AB003208AA003108A9003008A800080005
:100A980028082704260425040319812DAD01AD0A71
:100AA800A81B5C2D0310A50DA60DA70DA80D532D91
:100AB80028082C02031D6A2D27082B02031D6A2D06
:100AC80026082A02031D6A2D25082902031C7B2DEE
:100AD8002508A9022608031C260FAA022708031CBA
:100AE800270FAB022808031C280FAC020310A80C20
:100AF800A70CA60CA50CAD0B5C2D2C08A8002B0888
:100B0800A7002A08A6002908A50008008312A0014A
:100B1800A101A201A30175087404730472040319E6
:100B2800CA2DA401A40AF51B9F2D0310F20DF30D85
:100B3800F40DF50D962D0310A00DA10DA20DA30D1A
:100B480075087902031DB22D74087802031DB22DB1
:100B580073087702031DB22D72087602031CC42D98
:100B68007208F6027308031C730FF7027408031C5B
:100B7800740FF8027508031C750FF902201403108E
:100B8800F50CF40CF30CF20CA40B9F2D2308F500C4
:100B98002208F4002108F3002008F2000800720877
:100BA8008312A0007308A1007408A2000310210D8D
:100BB800220DA800A808031DE62DF201F301F40197
:100BC800F50108007508A0007608A1007708A200C2
:100BD8000310210D220DA700A7080319E12D7F306E
:100BE800F317F401F617F701A301A401A501A60163
:100BF800A80298302707A000A8021830A700031001
:100C0800A30DA40DA50DA60D77087402031D122EC1
:100C180076087302031D122E75087202031C202E1B
:100C28007508F2027608031C760FF3027708031C96
:100C3800770AF40223140310F20DF30DF40DA70B39
:100C4800032EA81F342E2808803A973E031CE12D56
:100C58000310A60CA50CA40CA30CA80F2C2E422E36
:100C6800183028020318E12DA8080319422E031092
:100C7800A30DA40DA50DA60DA803382E2608F50072
:100C88002508F4002408F3002308F200080074087B
:100C980073047204031908008030F406080044083D
:100CA800CA004508CB004608CC0003104B0D4C0D7C
:100CB800CF004708CA004808CB004908CC000310F9
:100CC8004B0D4C0DCE004F080319762E4E084F02DF
:100CD8004E0803187E2ECA004F08CA0219304A026D
:100CE800031C7D2E4708C4004808C5004908C600F3
:100CF80008004E08031908004F084E0203188C2EEE
:100D08004F08CA004E08CA0219304A0203180800E0
:100D18000630CD00C61BCD17C91B4D17C517C60118
:100D2800C817C9014E084F020318B32E0310C70D88
:100D3800C80DC90DCE034E084F060319AE2ECD03BC
:100D48004D0807390319AE2E9A2E0310C60CC50C90
:100D5800C40CCF0A4F084E060319CF2EA92E4F08F0
:100D68004E020318CF2E0310C40DC50DC60DCF03B8
:100D78004E084F060319CB2ECD034D08073903192A
:100D8800CB2EB72E0310C90CC80CC70CCE0A4F08BF
:100D98004E06031DC62ECD1FDA2EFF30C406C5062B
:100DA800C606C40A0319C50A0319C60A4D1FE52E4B
:100DB800FF30C706C806C906C70A0319C80A0319B7
:100DC800C90ACD014408C707450803110318450A95
:100DD800031DC807460803110318460A031DC9075F
:100DE800C91F012FFF30C706C806C906C70A03195D
:100DF800C80A0319C90ACD01CD0A4708F2004808F4
:100E0800F3004908F4004F08F5004D08F6000A12EF
:100E18008A1569277208C4007308C5007408C600DB
:100E280008008030D2065308C4005408C50055088D
:100E3800C6005008C7005108C8005208C900532608
:100E48004408D0004508D1004608D20008003808F8
:100E58008312DE000310DE0D03105E0D4F3E84008A
:100E680008000A308312A500A601A701A80183166D
:100E780008002B088316AB0083122A088316AA00E1
:100E8800831229088316A900831228080800440839
:100E98008316A500831245088316A6008312460808
:100EA8008316A700330808007207DE000030031815
:100EB80001307307DF005E08D03E831608008312F6
:100EC800A800831634088312A900831635088312F4
:100ED800AA0008008312B500831634088312B600EE
:100EE800831635088312B7000800F50083162B080F
:100EF800F9002A08F8002908F7002808F600080071
:100F08008312DE00DF01DE1BDF035F08803AE000AA
:100F1800831608007508AC007408AB007308AA00B3
:100F28007208A90008002508303EDF008316320841
:100F3800840083125F080800031338088312DE0058
:100F4800DF01DE1BDF03831608002508F2002608F0
:100F5800F3002708F4000800840030308313800071
:100F6800FF30B20A080083125F080318013EFF3EF3
:100F7800831608002808AC002908AD002A08AE002E
:100F880008008316031308000B1DDF2F0630831299
:100F980003138100FA0A0319FB0A7A08FA3A7B0458
:100FA800031DDE2FFA01FB010F08E7000E08E6001B
:100FB8008E018F010B1171088A00700E8300FE0EDE
:100FC8007E0E0900F30073088400800803190800E6
:100FD800730884000008F4270A128A11F30AE72F1D
:0E0FE800F20083120C1EF52F7208990008000B
:1010000008308A000408840A8207003400348034DF
:101010003F34CD34CC343D34D73423343C341234D3
:1010200083343A34B734D1343834C634273437347F
:10103000383486343534C034D6343334CC342B345D
:101040003234703489343034E734DB342E34E534D0
:101050003C341E344234A2340D34003480343F34E6
:101060000034203441340034C834423400347A34FB
:10107000443440341C3446345034C334473424346C
:1010800074344934973418344B34BC34BE344C3443
:101090006B346E344E340334153450347934AD34FB
:1010A0006034F33449347134013400340034003492
:1010B0000A34003400340034643400340034003422
:1010C000E83403340034003410342734003400345E
:1010D000A034863401340034403442340F340034B8
:1010E00080349634983400340034E134F5340534D7
:1010F0000034CA349A343B3476343A3425343334A9
:081100002E3432346634003451
:10130400FA01FB01E601E70183010A128A15AE29FD
:1013140083161812181503170230871503139A0041
:10132400083099009816181383129817080083162A
:101334001812181503170230871503139A00083082
:101344009900831218161813981783168C16831293
:101354008C120B178B170800831603178901880159
:1013640003130910831209148316063081128111A4
:10137400011181140110831281008B160B118B173C
:101384000B1790149012101210158E018F01101368
:1013940010140A128A158A210A128A150A128A1549
:1013A40099210A128A1583121630B501B600443009
:1013B400B700BB30A401A5004330A6006708A10014
:1013C4006608A0000A128A1537240A128A15200812
:1013D400A7002108A8002208A9000A128A1570246F
:1013E4000A128A152408B8002508B9002608BA008C
:1013F4000A128A15EC260A128A153508E300360803
:10140400E4003708E5007730DA006308DB0064089D
:10141400DC006508DD00B9300A128A110F200A12B7
:101424008A15B9300A128A11E6270A128A15D529B3
:1014340072308400000883120313A000840A000899
:10144400A100840A0008A200840A0008A300031073
:10145400220D230DAD00AD08031D352AF201F30161
:10146400F401F50108007530D8220A128A15031018
:10147400220D230DAC00AC080319302A723084000D
:101484008030840A840A80047230840A84007530AF
:10149400840A840A840A800184008030840A840ACD
:1014A40080047530840A84007F30840A840A840AA4
:1014B4008001A801A901AA01AB01AD02A0302C074B
:1014C400A000AD022030AC0075300310A80DA90DAA
:1014D400AA0DAB0DD8220A128A15723084000008B6
:1014E400A400840A0008A500840A0008A600840A4F
:1014F4000008A70023082702031D8A2A22082602BF
:10150400031D8A2A21082502031D8A2A2008240291
:10151400031CA62A7530D8220A128A157230840058
:1015240020088002840A2108031C210F8002840AF7
:101534002208031C220F8002840A2308031C230AA6
:101544008002033084022814723084000310800D5A
:10155400840A800D840A800D840A800DAC0B662AEF
:10156400AD1FC12A2D08803A9F3E031C302A031068
:10157400AB0CAA0CA90CA80CAD0FB92ACF2A2030A9
:101584002D020318302AAD080319CF2A0310A80D21
:10159400A90DAA0DAB0DAD03C52A2B08F5002A0829
:1015A400F4002908F3002808F20008008400000869
:1015B400A000840A0008A100840A0008A200840A8A
:1015C4000008A30008008312D9006E305902031CDE
:1015D400702B0330F8000A30F7006430F200590829
:1015E40005240A128A15EA230A128A155B270A12AD
:1015F4008A151C3E84000A128A1500200A128A15D4
:10160400B5000A128A1500200A128A15B6000A12B9
:101614008A1500200A128A15B7000330F8006430D6
:10162400F7005908EA230A128A155B270A128A1559
:10163400373E84000A128A1500200A128A15B8005F
:101644000A128A1500200A128A15B9000A128A158C
:1016540000200A128A15BA000A128A15EC260A1208
:101664008A1530240A128A150330F8000A30F20071
:10167400590805240A128A155B270A128A15013EA5
:1016840084000A128A1500200A128A15B5000A126B
:101694008A1500200A128A15B6000A128A1500203B
:1016A4000A128A1528240A128A15EC260A128A15A7
:1016B4003508D3003608D4003708D5003F30B501CB
:1016C400B601B7005308B8005408B9005508BA0069
:1016D4000A128A15EC260A128A15212C0B3059029B
:1016E400031CC42B0330F8000A30F2005908052407
:1016F4000A128A155B270A128A15013E84000A120F
:101704008A1500200A128A15B5000A128A150020CB
:101714000A128A15B6000A128A1500200A128A15BE
:10172400B7000330F8000A30F7005908EA230A1218
:101734008A155B270A128A151C3E84000A128A1530
:1017440000200A128A15B8000A128A1500200A120B
:101754008A15B9000A128A1500200A128A15BA00DD
:101764000A128A15EC260A128A1530240A128A15DE
:101774003F30B501B60128240A128A15EC260A1254
:101784008A15212C3F30B501B601B7000330F800AB
:1017940059080A128A155B270A128A15013E840029
:1017A4000A128A1500200A128A15B8000A128A152C
:1017B40000200A128A15B9000A128A1500200A129A
:1017C4008A15BA000A128A15EC260A128A15212CE7
:1017D400A000A20177080319032CA101A10AF71B99
:1017E400F62B0310F70DF02B0310A20D770820023F
:1017F400031C002C7708A00222140310F70CA10B81
:10180400F62B22080800F4000830F500F6017408ED
:10181400F30007300310F30CFF3E0310031D0D2CDF
:10182400760D7304F6000310F40D72087602031C9F
:101834001D2C7208F602F50B092C760808003508F1
:10184400D0003608D1003708D2000800B700560887
:10185400B8005708B9005808BA0008003508D6007F
:101864003608D7003708D8000800A301A11F412C6F
:10187400A009A109A00A0319A10AA301A30A200827
:10188400F2002108F3008E30F401F5002308F6007D
:1018940069277208A0007308A1007408A200080058
:1018A4008E30A400FF30230503195F2C0310A30C12
:1018B400A20CA10CA00CA40A542C2008F2002108AC
:1018C400F3002208F4002408F500F60169277208E1
:1018D400A0007308A1007408A20008002708AA0049
:1018E4002808AB002908AC0003102B0D2C0DB10007
:1018F400B108031D812CA401A501A6010800240838
:10190400AA002508AB002608AC0003102B0D2C0DF3
:10191400B200B208031D922CA401A501A60108007F
:101924008930AE01AF01B0013207AA00B102290823
:10193400B2002608B2068030B2051830A817A901F3
:10194400A517A601AD000310AE0DAF0DB00D26080E
:101954002902031DB32C25082802031DB32C2408D7
:101964002702031CC12C2408A7022508031C250FE9
:10197400A8022608031C260AA9022E140310A70D88
:10198400A80DA90DAD0BA52C2E08F2002F08F3000D
:101994003008F4003108F5003208F60069277208AF
:1019A400A4007308A5007408A60008008312CE00E2
:1019B400CE1FA42DCE09CE0A4E08803A123E031C37
:1019C400482D0A30CB270A128A15AF260A128A1527
:1019D4007308A3007208A2006A260A128A15F02767
:1019E4001C3E84000A128A1500200A128A15B500CA
:1019F4000A128A1500200A128A15B6000A128A15DC
:101A040000200A128A15F8270A128A15A21BA303BA
:101A14006A260A128A15BC27373E84000A128A15E0
:101A240000200A128A15B8000A128A1500200A1228
:101A34008A15B9000A128A1500200A128A15BA00FA
:101A4400EC260A128A15A7270A128A15F41BF50335
:101A5400AF260A128A15B427013E84000A128A1599
:101A640000200A128A15B5000A128A1500200A12EB
:101A74008A15B6000A128A1500200A128A15E02770
:101A84000A128A15EC260A128A15C42F4E08803AC7
:101A9400753E031C8D2D0A30F200F3014E08F4004C
:101AA400F501F41BF503AF260A128A15B427013E8B
:101AB40084000A128A1500200A128A15B5000A1237
:101AC4008A1500200A128A15B6000A128A15002007
:101AD4000A128A15E8270A128A15A21BA3036A268A
:101AE4000A128A15BC271C3E84000A128A1500209B
:101AF4000A128A15B8000A128A1500200A128A15D9
:101B0400B9000A128A1500200A128A15BA00EC26B6
:101B14000A128A15C42F0330F8004E085B27013ED1
:101B240084000A128A1500200A128A15C4000A12B7
:101B34008A1500200A128A15C5000A128A15002087
:101B4400C60008004E08803A123E031C0E2E0A30CE
:101B5400CB270A128A15AF260A128A157308A30026
:101B64007208A2006A260A128A15F027433E8400EE
:101B74000A128A1500200A128A15B5000A128A155B
:101B840000200A128A15B6000A128A1500200A12C9
:101B94008A15F8270A128A15A21BA3036A260A12B9
:101BA4008A15BC275E3E84000A128A1500200A1298
:101BB4008A15B8000A128A1500200A128A15B9007B
:101BC4000A128A1500200A128A15BA00EC260A1293
:101BD4008A15A7270A128A15F41BF503AF260A12E1
:101BE4008A15B427283E84000A128A1500200A1296
:101BF4008A15B5000A128A1500200A128A15B60041
:101C04000A128A1500200A128A15E0270A128A1578
:101C1400EC260A128A15C42F4E08803A753E031C1E
:101C2400532E0A30F200F3014E08F400F501F41BC0
:101C3400F503AF260A128A15B427283E84000A1237
:101C44008A1500200A128A15B5000A128A15002086
:101C54000A128A15B6000A128A1500200A128A1579
:101C6400E8270A128A15A21BA3036A260A128A15F8
:101C7400BC27433E84000A128A1500200A128A15E2
:101C8400B8000A128A1500200A128A15B9000A122D
:101C94008A1500200A128A15BA00EC260A128A153F
:101CA400C42F0330F8004E085B27283E84000A1234
:101CB4008A1500200A128A15C4000A128A15002007
:101CC4000A128A15C5000A128A150020C6000800E7
:101CD400A501A11F742EA009A109A00A0319A10A34
:101CE400A501A50AA31F7D2EA209A309A20A03190F
:101CF400A30A0130A506A601A7012108200403199F
:101D0400A22EA401A40AA11B8B2E0310A00DA10DC9
:101D1400842E0310A60DA70D21082302031D942E63
:101D240020082202031C9E2E2008A2022108031C64
:101D3400A303A30226140310A10CA00CA40B8B2E46
:101D440025080319AA2EA609A709A60A0319A70A92
:101D54002708A1002608A0000800F701F51FB92EE6
:101D6400F409F509F40A0319F50AF701F70AF31F50
:101D7400C02EF209F309F20A0319F30A7308720474
:101D84000319DF2EF601F60AF31BCC2E0310F20D15
:101D9400F30DC52E73087502031DD22E720874024A
:101DA400031CDB2E7208F4027308031CF503F5020E
:101DB4000310F30CF20CF60BCC2E77080319E72E64
:101DC400F409F509F40A0319F50A7508F30074080F
:101DD400F20008003508BB003608BC003708BD0017
:101DE40003103C0D3D0DBE00BE08031DFD2EB501C4
:101DF400B601B70108003808BB003908BC003A082E
:101E0400BD0003103C0D3D0DC300C308031D0E2F80
:101E1400B501B601B701080043087B3EBE07370889
:101E2400C3003A08C3068030C3050730B617B91794
:101E3400BA01BF01C001C101C200351C292F3808F5
:101E4400D6270A128A1503183A0A031DC10703107C
:101E5400B70CB60CB50C0310B80DB90DBA0DC20B06
:101E64001F2F0930C200351C3F2F3808D6270A120D
:101E74008A1503183A0A031DC1070310B70CB60CE0
:101E8400B50C0310C10CC00CBF0CC20B352F3F089E
:101E9400F2004008F3004108F4003E08F50043084E
:101EA400F60069277208B5007308B6007408B70015
:101EB4000800A400A30178082418A3070310F80D50
:101EC4000310A40CA408031D5D2F23080800750843
:101ED4000319712F740873047204031D7A2FF2011D
:101EE400F301F4010800F50A0310F40CF30CF20CEE
:101EF400FE3074050319892F752FF50AF20A0319A8
:101F0400F30A0319F40A0310F40CF30CF20CFF3077
:101F140074050319932F7F2FF5030310F20DF30DAE
:101F2400F40DF31F8E2F751CF3130310F50C7508B5
:101F3400F900F801F7017708F2047808F304790846
:101F4400F4047608031DF41708003508CB0036089E
:101F5400CC003708CD000A30F200F3014E08F4003B
:101F6400F50108007208C7007308C800470847074E
:101F7400470708002008C9002108CA004908490782
:101F8400490708003508C4003608C5003708C600EC
:101F94000800A000A1014E08F400F501F41BF503AC
:101FA4006430F200F3010800BF0739080311031875
:101FB400390A031DC0073A0803110800B7004B088B
:101FC400B8004C08B9004D08BA000800B7000A3040
:101FD400A000A1014E08A200A30108002008C70028
:101FE4002108C8004708470747070800B7006430BE
:0C1FF400A000A1014E08A200A3010800FB
:02400E00C2E30B
:00000001FF
